Apollo Guidance Computer (AGC) assembler, version 20100220, built Mar 24 2016
(c)2003-2005,2009-2010 Ronald S. Burkey
Refer to http://www.ibiblio.org/apollo/index.html for more information.
Pass #1
Pass #2
000001:                                                                                         	# Copyright 2004 Ronald S. Burkey <info@sandroid.org>
000002:
000003:                                                                                         	# This file is part of yaAGC.
000004:
000005:                                                                                         	# yaAGC is free software; you can redistribute it and/or modify
000006:                                                                                         	# it under the terms of the GNU General Public License as published by
000007:                                                                                         	# the Free Software Foundation; either version 2 of the License, or
000008:                                                                                         	# (at your option) any later version.
000009:
000010:                                                                                         	# yaAGC is distributed in the hope that it will be useful,
000011:                                                                                         	# but WITHOUT ANY WARRANTY; without even the implied warranty of
000012:                                                                                         	# MERCHANTABILITY or FITNESS FOR A PARTICULAR PURPOSE.  See the
000013:                                                                                         	# GNU General Public License for more details.
000014:
000015:                                                                                         	# You should have received a copy of the GNU General Public License
000016:                                                                                         	# along with yaAGC; if not, write to the Free Software
000017:                                                                                         	# Foundation, Inc., 59 Temple Place, Suite 330, Boston, MA  02111-1307  USA
000018:
000019:                                                                                         	# Filename:	Validation.agc
000020:                                                                                         	# Purpose:	This is a program which attempts to provide a validation
000021:                                                                                         	#		suite --- "suite" being, perhaps, too grandiose a term ---
000022:                                                                                         	#		for the instructions of the yaAGC CPU.  I've written this
000023:                                                                                         	#		directly from E-2052 (Savage & Drake).
000024:                                                                                         	# Mod history:	07/03/04 RSB.	Began.
000025:                                                                                         	#		07/07/04 RSB.	Added ValidateSmally.agc.
000026:                                                                                         	#		07/10/04 RSB.	Added ERRSUB.
000027:                                                                                         	#		07/23/04 RSB	Added a few seconds of delay at the start
000028:                                                                                         	#				of the program.
000029:                                                                                         	#		08/12/04 RSB	... and removed it again, since yaAGC has
000030:                                                                                         	#				been fixed not to need it.  The last time
000031:                                                                                         	#				I checked, Julian's sim would still need\
000032:                                                                                         	#				it, but that was a month or so ago.
000033:
000034:                                                                                         	# This program is probably not a bad introduction on how to write an AGC
000035:                                                                                         	# program that interacts with the DSKY, though it doesn't use any interrupts.
000036:                                                                                         	# What it does is pretty simple:
000037:
000038:                                                                                         	#	1.  Clears the DSKY, and then writes 00 to MODE of the DSKY.
000039:                                                                                         	#	2.  Perform tests.  Upon finding an error:
000040:                                                                                         	#	    a)	Writes a non-zero error code to MODE of the DSKY.
000041:                                                                                         	#	    b)  Turns on the OPR ERR lamp.
000042:                                                                                         	#	    c)  Waits for the PRO key to be pressed.
000043:                                                                                         	#	    d)	Turns off the OPR ERR lamp.
000044:                                                                                         	#	    e)	Proceeds with further tests.
000045:                                                                                         	#	3.  When all done, writes 77 to MODE of the DSKY.
000046:
000047:                                                                                         	# To keep this file from becoming too big and ponderous, most of the
000048:                                                                                         	# code is split out into include-files.
000049:
000050:                                                                                         	#-------------------------------------------------------------------------
000051:
000052:    4000                                          SETLOC   4000                          	#
000053:
000054:                                                                                         	# An interrupt-vector table will go here when (if) I become
000055:                                                                                         	# interested in validating the interrupt behavior, but for
000056:                                                                                         	# now I'm just interested in how the instructions perform,
000057:                                                                                         	# so the program simply starts here.
000058:
000059:                                                                                         	# We start by testing a few random items that pop into my
000060:                                                                                         	# mind, and then proceed to test the instructions, to the
000061:                                                                                         	# extent feasible.
000062:
000063:                                                                                         	# Initialization.
000064:    4000           00004                          INHINT                                 	#
000065:    4001           30007                          CA       ZEROES                        	# zero out A
000066:    4002           54061                          TS       ERRNUM                        	# and the error-code
000067:    4003           54062                          TS       ERRSUB                        	#
000068:
000069:    4004           07240                          TC       ERRORDSP                      	# display it on the DSKY.
000070:
000071:                                                                                         	#+++++++++++++++++++++++++++++++++++++++++++++++++++++++++
000072:                                                                                         	# Test 1:  what is in the Z register?  Should be the
000073:                                                                                         	# next address after the 'CA' instruction, which I've
000074:                                                                                         	# cunningly placed in the WHERE1 constant.
000075:    4005           24061                          INCR     ERRNUM                        	#
000076:    4006           30005                          CA       Z                             	# fetch Z.
000077:    4007           54001        DEST1             TS       L                             	#
000078:    4010           37447                          CA       WHERE1                        	#
000079:    4011           00006                          EXTEND                                 	#
000080:    4012           60001                          SU       L                             	#
000081:    4013           00006                          EXTEND                                 	#
000082:    4014           14016                          BZF      TEST1OK                       	#
000083:    4015           07240                          TC       ERRORDSP                      	# Error!
000084:    4016                        TEST1OK                                                  	#
000085:
000086:                                                                                         	#+++++++++++++++++++++++++++++++++++++++++++++++++++++++++
000087:                                                                                         	# Test 2:  check of the editing registers.
000088:                                                                                         	# I've swiped this from the Luminary AGC self-check.
000089:    4016           24061        CYCLSHFT          INCR     ERRNUM                        	#
000090:    4017           37450                          CA       CONC+S1                       	# 25252
000091:    4020           54020                          TS       CYR                           	# C(CYR) = 12525
000092:    4021           54022                          TS       CYL                           	# C(CYL) = 52524
000093:    4022           54021                          TS       SR                            	# C(SR) = 12525
000094:    4023           54023                          TS       EDOP                          	# C(EDOP) = 00125
000095:    4024           60020                          AD       CYR                           	# 37777		C(CYR) = 45252
000096:    4025           60022                          AD       CYL                           	# 00-12524	C(CYL) = 25251
000097:    4026           60021                          AD       SR                            	# 00-25251	C(SR) = 05252
000098:    4027           60023                          AD       EDOP                          	# 00-25376	C(EDOP) = +0
000099:    4030           67451                          AD       CONC+S2                       	# C(CONC+S2) = 52400
000100:    4031           07353                          TC       -1CHK                         	#
000101:    4032           60020                          AD       CYR                           	# 45252
000102:    4033           60022                          AD       CYL                           	# 72523
000103:    4034           60021                          AD       SR                            	# 77775
000104:    4035           60023                          AD       EDOP                          	# 77775
000105:    4036           67433                          AD       S+1                           	# 77776
000106:    4037           07353                          TC       -1CHK                         	#
000107:
000108:                                                                                         	#+++++++++++++++++++++++++++++++++++++++++++++++++++++++++
000109:                                                                                         	# Test 3:  check of TC.
000110:    4040           24061                          INCR     ERRNUM                        	#
000111:                                                                                         	# ... add the code for this later ...
000112:
000113:                                                                                         	#+++++++++++++++++++++++++++++++++++++++++++++++++++++++++
000114:                                                                                         	# Test 4:  check of CCS.
000115: $ValidateCCS.agc
000001:                                                                                         	# Copyright 2004 Ronald S. Burkey <info@sandroid.org>
000002:                                                                                         	#
000003:                                                                                         	# This file is part of yaAGC.
000004:
000005:                                                                                         	# yaAGC is free software; you can redistribute it and/or modify
000006:                                                                                         	# it under the terms of the GNU General Public License as published by
000007:                                                                                         	# the Free Software Foundation; either version 2 of the License, or
000008:                                                                                         	# (at your option) any later version.
000009:
000010:                                                                                         	# yaAGC is distributed in the hope that it will be useful,
000011:                                                                                         	# but WITHOUT ANY WARRANTY; without even the implied warranty of
000012:                                                                                         	# MERCHANTABILITY or FITNESS FOR A PARTICULAR PURPOSE.  See the
000013:                                                                                         	# GNU General Public License for more details.
000014:
000015:                                                                                         	# You should have received a copy of the GNU General Public License
000016:                                                                                         	# along with yaAGC; if not, write to the Free Software
000017:                                                                                         	# Foundation, Inc., 59 Temple Place, Suite 330, Boston, MA  02111-1307  USA
000018:
000019:                                                                                         	# Filename:	ValidateCCS.agc
000020:                                                                                         	# Purpose:	This is the part of the Validation program that validates
000021:                                                                                         	#		just the CCS instruction.
000022:                                                                                         	# Mod history:	07/04/04 RSB.	Began.
000023:
000024:                                                                                         	# We check using values that are
000025:                                                                                         	# +-37777, +-1, and +-0, from both the accumulator and the
000026:                                                                                         	# L register.
000027:    4041           24061                          INCR     ERRNUM                        	#
000028:
000029:                                                                                         	# First, 37777 from accumulator.
000030:    4042           24062                          INCR     ERRSUB                        	# 1
000031:    4043           37436                          CA       MAXP                          	#
000032:    4044           10000                          CCS      A                             	#
000033:    4045           14051                          TCF      CCSCHK1                       	#
000034:    4046           14252                          TCF      ERROR4                        	#
000035:    4047           14252                          TCF      ERROR4                        	#
000036:    4050           14252                          TCF      ERROR4                        	#
000037:    4051           24062        CCSCHK1           INCR     ERRSUB                        	# 2
000038:    4052           54001                          TS       L                             	#
000039:    4053           37437                          CA       MAXP-1                        	#
000040:    4054           00006                          EXTEND                                 	#
000041:    4055           60001                          SU       L                             	#
000042:    4056           00006                          EXTEND                                 	#
000043:    4057           14061                          BZF      CCSOK1                        	#
000044:    4060           14252                          TCF      ERROR4                        	#
000045:    4061                        CCSOK1                                                   	#
000046:                                                                                         	# Next, 0 and 1 from accumulator.
000047:    4061           24062                          INCR     ERRSUB                        	# 3
000048:    4062           30007                          CA       ZEROES                        	#
000049:    4063           24000                          INCR     A                             	#
000050:    4064           10000                          CCS      A                             	#
000051:    4065           14071                          TCF      CCSCHK2                       	#
000052:    4066           14252                          TCF      ERROR4                        	#
000053:    4067           14252                          TCF      ERROR4                        	#
000054:    4070           14252                          TCF      ERROR4                        	#
000055:    4071           24062        CCSCHK2           INCR     ERRSUB                        	# 4
000056:    4072           00006                          EXTEND                                 	#
000057:    4073           14075                          BZF      CCSOK2                        	#
000058:    4074           14252                          TCF      ERROR4                        	#
000059:    4075                        CCSOK2                                                   	#
000060:                                                                                         	# Next, -37777 from accumulator.
000061:    4075           24062                          INCR     ERRSUB                        	# 5
000062:    4076           37436                          CA       MAXP                          	#
000063:    4077           40000                          COM                                    	#
000064:    4100           10000                          CCS      A                             	#
000065:    4101           14252                          TCF      ERROR4                        	#
000066:    4102           14252                          TCF      ERROR4                        	#
000067:    4103           14105                          TCF      CCSCHK3                       	#
000068:    4104           14252                          TCF      ERROR4                        	#
000069:    4105           24062        CCSCHK3           INCR     ERRSUB                        	# 6
000070:    4106           54001                          TS       L                             	#
000071:    4107           37437                          CA       MAXP-1                        	#
000072:    4110           00006                          EXTEND                                 	#
000073:    4111           60001                          SU       L                             	#
000074:    4112           00006                          EXTEND                                 	#
000075:    4113           14115                          BZF      CCSOK3                        	#
000076:    4114           14252                          TCF      ERROR4                        	#
000077:    4115                        CCSOK3                                                   	#
000078:                                                                                         	# Next, -0 and -1 from accumulator.
000079:    4115           24062                          INCR     ERRSUB                        	# 7
000080:    4116           30007                          CA       ZEROES                        	#
000081:    4117           24000                          INCR     A                             	#
000082:    4120           40000                          COM                                    	#
000083:    4121           54001                          TS       L                             	#
000084:    4122           10001                          CCS      L                             	#
000085:    4123           14252                          TCF      ERROR4                        	#
000086:    4124           14252                          TCF      ERROR4                        	#
000087:    4125           14127                          TCF      CCSCHK4                       	#
000088:    4126           14252                          TCF      ERROR4                        	#
000089:    4127           24062        CCSCHK4           INCR     ERRSUB                        	# 10
000090:    4130           40000                          COM                                    	#
000091:    4131           10000                          CCS      A                             	#
000092:    4132           14252                          TCF      ERROR4                        	#
000093:    4133           14252                          TCF      ERROR4                        	#
000094:    4134           14252                          TCF      ERROR4                        	#
000095:    4135           00006                          EXTEND                                 	#
000096:    4136           14137                          BZF      CCSOK4                        	#
000097:    4137                        CCSOK4                                                   	#
000098:                                                                                         	# Next, 37777 from L.
000099:    4137           24062                          INCR     ERRSUB                        	# 11
000100:    4140           37436                          CA       MAXP                          	#
000101:    4141           54001                          TS       L                             	#
000102:    4142           10001                          CCS      L                             	#
000103:    4143           14147                          TCF      CCSCHK5                       	#
000104:    4144           14252                          TCF      ERROR4                        	#
000105:    4145           14252                          TCF      ERROR4                        	#
000106:    4146           14252                          TCF      ERROR4                        	#
000107:    4147           24062        CCSCHK5           INCR     ERRSUB                        	# 12
000108:    4150           54063                          TS       TEMPI                         	#
000109:    4151           37437                          CA       MAXP-1                        	#
000110:    4152           00006                          EXTEND                                 	#
000111:    4153           60063                          SU       TEMPI                         	#
000112:    4154           00006                          EXTEND                                 	#
000113:    4155           14157                          BZF      CCSOK5                        	#
000114:    4156           14252                          TCF      ERROR4                        	#
000115:    4157           24062        CCSOK5            INCR     ERRSUB                        	# 13
000116:    4160           37436                          CA       MAXP                          	#
000117:    4161           00006                          EXTEND                                 	#
000118:    4162           60001                          SU       L                             	#
000119:    4163           00006                          EXTEND                                 	#
000120:    4164           14166                          BZF      CCSOK5A                       	#
000121:    4165           14252                          TCF      ERROR4                        	#
000122:    4166                        CCSOK5A                                                  	#
000123:                                                                                         	# Next, 0 and 1 from L.
000124:    4166           24062                          INCR     ERRSUB                        	# 14
000125:    4167           30007                          CA       ZEROES                        	#
000126:    4170           24000                          INCR     A                             	#
000127:    4171           54001                          TS       L                             	#
000128:    4172           10001                          CCS      L                             	#
000129:    4173           14177                          TCF      CCSCHK6                       	#
000130:    4174           14252                          TCF      ERROR4                        	#
000131:    4175           14252                          TCF      ERROR4                        	#
000132:    4176           14252                          TCF      ERROR4                        	#
000133:    4177           24062        CCSCHK6           INCR     ERRSUB                        	# 15
000134:    4200           54001                          TS       L                             	#
000135:    4201           10001                          CCS      L                             	#
000136:    4202           14252                          TCF      ERROR4                        	#
000137:    4203           14206                          TCF      CCSOK6                        	#
000138:    4204           14252                          TCF      ERROR4                        	#
000139:    4205           14252                          TCF      ERROR4                        	#
000140:    4206                        CCSOK6                                                   	#
000141:                                                                                         	# Next, -37777 from L.
000142:    4206           24062                          INCR     ERRSUB                        	# 16
000143:    4207           37436                          CA       MAXP                          	#
000144:    4210           40000                          COM                                    	#
000145:    4211           54001                          TS       L                             	#
000146:    4212           10001                          CCS      L                             	#
000147:    4213           14252                          TCF      ERROR4                        	#
000148:    4214           14252                          TCF      ERROR4                        	#
000149:    4215           14217                          TCF      CCSCHK7                       	#
000150:    4216           14252                          TCF      ERROR4                        	#
000151:    4217           24062        CCSCHK7           INCR     ERRSUB                        	# 17
000152:    4220           54063                          TS       TEMPI                         	#
000153:    4221           37437                          CA       MAXP-1                        	#
000154:    4222           00006                          EXTEND                                 	#
000155:    4223           60063                          SU       TEMPI                         	#
000156:    4224           00006                          EXTEND                                 	#
000157:    4225           14227                          BZF      CCSOK7A                       	#
000158:    4226           14252                          TCF      ERROR4                        	#
000159:    4227                        CCSOK7A                                                  	#
000160:                                                                                         	# Next, -0 and -1 from L.
000161:    4227           24062                          INCR     ERRSUB                        	# 20
000162:    4230           30007                          CA       ZEROES                        	#
000163:    4231           24000                          INCR     A                             	#
000164:    4232           40000                          COM                                    	#
000165:    4233           54001                          TS       L                             	#
000166:    4234           10001                          CCS      L                             	#
000167:    4235           14252                          TCF      ERROR4                        	#
000168:    4236           14252                          TCF      ERROR4                        	#
000169:    4237           14241                          TCF      CCSCHK8                       	#
000170:    4240           14252                          TCF      ERROR4                        	#
000171:    4241           24062        CCSCHK8           INCR     ERRSUB                        	# 21
000172:    4242           40000                          COM                                    	#
000173:    4243           54001                          TS       L                             	#
000174:    4244           10001                          CCS      L                             	#
000175:    4245           14252                          TCF      ERROR4                        	#
000176:    4246           14252                          TCF      ERROR4                        	#
000177:    4247           14252                          TCF      ERROR4                        	#
000178:    4250           14251                          TCF      CCSOK8A                       	#
000179:    4251                        CCSOK8A                                                  	#
000180:                                                                                         	# All done.
000181:    4251           14253                          TCF      DONE4                         	#
000182:    4252           07240        ERROR4            TC       ERRORDSP                      	#
000183:    4253           30007        DONE4             CA       ZEROES                        	#
000184:    4254           54062                          TS       ERRSUB                        	#
000185:
000186:
(End of include-file ValidateCCS.agc, resuming Validation.agc)
000116:
000117:                                                                                         	#+++++++++++++++++++++++++++++++++++++++++++++++++++++++++
000118:                                                                                         	# Test 5:  check of TCF.
000119:    4255           24061                          INCR     ERRNUM                        	#
000120:                                                                                         	# ... add this later ...
000121:
000122:                                                                                         	#+++++++++++++++++++++++++++++++++++++++++++++++++++++++++
000123:                                                                                         	# Tests 6-10 (octal):  check of DAS.
000124: $ValidateDAS.agc
000001:                                                                                         	# Copyright 2004 Ronald S. Burkey <info@sandroid.org>
000002:                                                                                         	#
000003:                                                                                         	# This file is part of yaAGC.
000004:
000005:                                                                                         	# yaAGC is free software; you can redistribute it and/or modify
000006:                                                                                         	# it under the terms of the GNU General Public License as published by
000007:                                                                                         	# the Free Software Foundation; either version 2 of the License, or
000008:                                                                                         	# (at your option) any later version.
000009:
000010:                                                                                         	# yaAGC is distributed in the hope that it will be useful,
000011:                                                                                         	# but WITHOUT ANY WARRANTY; without even the implied warranty of
000012:                                                                                         	# MERCHANTABILITY or FITNESS FOR A PARTICULAR PURPOSE.  See the
000013:                                                                                         	# GNU General Public License for more details.
000014:
000015:                                                                                         	# You should have received a copy of the GNU General Public License
000016:                                                                                         	# along with yaAGC; if not, write to the Free Software
000017:                                                                                         	# Foundation, Inc., 59 Temple Place, Suite 330, Boston, MA  02111-1307  USA
000018:
000019:                                                                                         	# Filename:	ValidateDAS.agc
000020:                                                                                         	# Purpose:	This is the portion of the Validation program that attempts
000021:                                                                                         	#		to validate the DAS instruction
000022:                                                                                         	# Mod history:	07/04/04 RSB.	Began.
000023:
000024:                                                                                         	# (Test 6.)  What we do here is just add
000025:                                                                                         	# various numbers and check the result, including some
000026:                                                                                         	# boundary cases that generate +- overflow.
000027:    4256           24061                          INCR     ERRNUM                        	#
000028:
000029:    4257           00006                          EXTEND                                 	#
000030:    4260           37455                          DCA      BIGRNUM                       	# Get 123454321 * 14 (octal).
000031:    4261           00006                          EXTEND                                 	#
000032:    4262           40001                          DCOM                                   	# 123454321 * -14.
000033:    4263           52065                          DXCH     TEMPJ                         	# Save at TEMPJ,TEMPK
000034:    4264           37432                          CA       TWNTHREE                      	# TEMPI is loop counter.
000035:
000036:                                                                                         	# First check the normal case.
000037:                                                                                         	# The idea here is that we start with -14*123454321, go to
000038:                                                                                         	# -13*123454321, ..., -0, +1*123454321, ..., +14*123454321.
000039:                                                                                         	# Then we compare the results.
000040:    4265           24062                          INCR     ERRSUB                        	# 1
000041:    4266           54063        DASLOOP           TS       TEMPI                         	#
000042:    4267           00006                          EXTEND                                 	# Update the running sum.
000043:    4270           37453                          DCA      BIGNUM                        	#
000044:    4271           20065                          DAS      TEMPJ                         	#
000045:    4272           00006                          EXTEND                                 	# Overflow?
000046:    4273           14275                          BZF      DASNOV1                       	#
000047:    4274           14572                          TCF      VDAERROR                      	#
000048:    4275           30001        DASNOV1           CA       L                             	# L-reg 0?
000049:    4276           00006                          EXTEND                                 	#
000050:    4277           14301                          BZF      DASNOV1A                      	#
000051:    4300           14572                          TCF      VDAERROR                      	#
000052:    4301           10063        DASNOV1A          CCS      TEMPI                         	#
000053:    4302           14266                          TCF      DASLOOP                       	#
000054:    4303           24062                          INCR     ERRSUB                        	# 2
000055:    4304           00006                          EXTEND                                 	# Compare.
000056:    4305           37455                          DCA      BIGRNUM                       	#
000057:    4306           00006                          EXTEND                                 	#
000058:    4307           60064                          SU       TEMPJ                         	#
000059:    4310           00006                          EXTEND                                 	#
000060:    4311           14313                          BZF      DASOK1                        	#
000061:    4312           14572                          TCF      VDAERROR                      	#
000062:    4313           24062        DASOK1            INCR     ERRSUB                        	# 3
000063:    4314           30001                          CA       L                             	#
000064:    4315           00006                          EXTEND                                 	#
000065:    4316           60065                          SU       TEMPK                         	#
000066:    4317           00006                          EXTEND                                 	#
000067:    4320           14322                          BZF      DASOK2                        	#
000068:    4321           14572                          TCF      VDAERROR                      	#
000069:    4322                        DASOK2                                                   	#
000070:    4322           30007                          CA       ZEROES                        	#
000071:    4323           54062                          TS       ERRSUB                        	#
000072:
000073:                                                                                         	# (Test 7.) Now we check boundary cases where +- overflow are
000074:                                                                                         	# generated.  Also, we check that adding +-0 doesn't change
000075:                                                                                         	# the result.
000076:    4324           24061                          INCR     ERRNUM                        	#
000077:    4325           24062                          INCR     ERRSUB                        	# 1
000078:                                                                                         	# Add +-0 to next-to-highest DP integer.
000079:    4326           00006                          EXTEND                                 	#
000080:    4327           37473                          DCA      DBMAXP-1                      	# Next-to-highest + DP.
000081:    4330           52065                          DXCH     TEMPJ                         	# Store in erasable.
000082:                                                                                         	# ... first, +0.
000083:    4331           00006                          EXTEND                                 	# Let's add +0 to it.
000084:    4332           37457                          DCA      DBZERO                        	#
000085:    4333           20065                          DAS      TEMPJ                         	#
000086:    4334           00006                          EXTEND                                 	# Overflow?
000087:    4335           14337                          BZF      DASOK3                        	#
000088:    4336           14572                          TCF      VDAERROR                      	#
000089:    4337           24062        DASOK3            INCR     ERRSUB                        	# 2
000090:    4340           00006                          EXTEND                                 	#
000091:    4341           37473                          DCA      DBMAXP-1                      	# Check if unchanged.
000092:    4342           00006                          EXTEND                                 	# MS word first.
000093:    4343           60064                          SU       TEMPJ                         	#
000094:    4344           00006                          EXTEND                                 	#
000095:    4345           14347                          BZF      DASOK4                        	#
000096:    4346           14572                          TCF      VDAERROR                      	#
000097:    4347           24062        DASOK4            INCR     ERRSUB                        	# 3
000098:    4350           30001                          CA       L                             	# LS word.
000099:    4351           00006                          EXTEND                                 	#
000100:    4352           60065                          SU       TEMPK                         	#
000101:    4353           00006                          EXTEND                                 	#
000102:    4354           14356                          BZF      DASOK5                        	#
000103:    4355           14572                          TCF      VDAERROR                      	#
000104:                                                                                         	# ... now, -0.
000105:    4356           24062        DASOK5            INCR     ERRSUB                        	# 4
000106:    4357           00006                          EXTEND                                 	# Let's add -0 to it.
000107:    4360           37461                          DCA      DBMZERO                       	#
000108:    4361           20065                          DAS      TEMPJ                         	#
000109:    4362           00006                          EXTEND                                 	# Overflow?
000110:    4363           14365                          BZF      DASOK6                        	#
000111:    4364           14572                          TCF      VDAERROR                      	#
000112:    4365           24062        DASOK6            INCR     ERRSUB                        	# 5
000113:    4366           00006                          EXTEND                                 	#
000114:    4367           37473                          DCA      DBMAXP-1                      	# Check if unchanged.
000115:    4370           00006                          EXTEND                                 	# MS word first.
000116:    4371           60064                          SU       TEMPJ                         	#
000117:    4372           00006                          EXTEND                                 	#
000118:    4373           14375                          BZF      DASOK7                        	#
000119:    4374           14572                          TCF      VDAERROR                      	#
000120:    4375           24062        DASOK7            INCR     ERRSUB                        	# 6
000121:    4376           30001                          CA       L                             	# LS word.
000122:    4377           00006                          EXTEND                                 	#
000123:    4400           60065                          SU       TEMPK                         	#
000124:    4401           00006                          EXTEND                                 	#
000125:    4402           14404                          BZF      DASOK8                        	#
000126:    4403           14572                          TCF      VDAERROR                      	#
000127:    4404                        DASOK8                                                   	#
000128:                                                                                         	# Now add +1, and make sure no overflow.
000129:    4404           24062                          INCR     ERRSUB                        	# 7
000130:    4405           00006                          EXTEND                                 	# Let's add +1 to it.
000131:    4406           37463                          DCA      DBONE                         	#
000132:    4407           20065                          DAS      TEMPJ                         	#
000133:    4410           00006                          EXTEND                                 	# Overflow?
000134:    4411           14413                          BZF      DASOK9                        	#
000135:    4412           14572                          TCF      VDAERROR                      	#
000136:    4413           24062        DASOK9            INCR     ERRSUB                        	# 10 octal
000137:    4414           00006                          EXTEND                                 	#
000138:    4415           37467                          DCA      DBMAXP                        	# Check result.
000139:    4416           00006                          EXTEND                                 	# MS word first.
000140:    4417           60064                          SU       TEMPJ                         	#
000141:    4420           00006                          EXTEND                                 	#
000142:    4421           14423                          BZF      DASOK10                       	#
000143:    4422           14572                          TCF      VDAERROR                      	#
000144:    4423           24062        DASOK10           INCR     ERRSUB                        	# 11 octal
000145:    4424           30001                          CA       L                             	# LS word.
000146:    4425           00006                          EXTEND                                 	#
000147:    4426           60065                          SU       TEMPK                         	#
000148:    4427           00006                          EXTEND                                 	#
000149:    4430           14432                          BZF      DASOK11                       	#
000150:    4431           14572                          TCF      VDAERROR                      	#
000151:    4432                        DASOK11                                                  	#
000152:                                                                                         	# Now add +1 again, and make sure there is overflow and
000153:                                                                                         	# there is wraparound to +0.
000154:    4432           24062                          INCR     ERRSUB                        	# 12
000155:    4433           00006                          EXTEND                                 	# Let's add +1 to it.
000156:    4434           37463                          DCA      DBONE                         	#
000157:    4435           20065                          DAS      TEMPJ                         	#
000158:    4436           67417                          AD       NEGONE                        	# Positive overflow?
000159:    4437           00006                          EXTEND                                 	# Overflow?
000160:    4440           14442                          BZF      DASOK12                       	#
000161:    4441           14572                          TCF      VDAERROR                      	#
000162:    4442           24062        DASOK12           INCR     ERRSUB                        	# 13
000163:    4443           00006                          EXTEND                                 	#
000164:    4444           37457                          DCA      DBZERO                        	# Check result.
000165:    4445           00006                          EXTEND                                 	# MS word first.
000166:    4446           60064                          SU       TEMPJ                         	#
000167:    4447           00006                          EXTEND                                 	#
000168:    4450           14452                          BZF      DASOK13                       	#
000169:    4451           14572                          TCF      VDAERROR                      	#
000170:    4452           24062        DASOK13           INCR     ERRSUB                        	# 14
000171:    4453           30001                          CA       L                             	# LS word.
000172:    4454           00006                          EXTEND                                 	#
000173:    4455           60065                          SU       TEMPK                         	#
000174:    4456           00006                          EXTEND                                 	#
000175:    4457           14461                          BZF      DASOK14                       	#
000176:    4460           14572                          TCF      VDAERROR                      	#
000177:    4461                        DASOK14                                                  	#
000178:                                                                                         	# Same thing now, but with negative values.
000179:    4461           24062                          INCR     ERRSUB                        	# 15
000180:    4462           00006                          EXTEND                                 	#
000181:    4463           37475                          DCA      DBMAXN-1                      	#
000182:    4464           52065                          DXCH     TEMPJ                         	#
000183:                                                                                         	# Now add -1, and make sure no overflow.
000184:    4465           00006                          EXTEND                                 	# Let's add -1 to it.
000185:    4466           37465                          DCA      DBMONE                        	#
000186:    4467           20065                          DAS      TEMPJ                         	#
000187:    4470           00006                          EXTEND                                 	# Overflow?
000188:    4471           14473                          BZF      DASOK15                       	#
000189:    4472           14572                          TCF      VDAERROR                      	#
000190:    4473           24062        DASOK15           INCR     ERRSUB                        	# 16
000191:    4474           00006                          EXTEND                                 	#
000192:    4475           37471                          DCA      DBMAXN                        	# Check result.
000193:    4476           00006                          EXTEND                                 	# MS word first.
000194:    4477           60064                          SU       TEMPJ                         	#
000195:    4500           00006                          EXTEND                                 	#
000196:    4501           14503                          BZF      DASOK16                       	#
000197:    4502           14572                          TCF      VDAERROR                      	#
000198:    4503           24062        DASOK16           INCR     ERRSUB                        	# 17
000199:    4504           30001                          CA       L                             	# LS word.
000200:    4505           00006                          EXTEND                                 	#
000201:    4506           60065                          SU       TEMPK                         	#
000202:    4507           00006                          EXTEND                                 	#
000203:    4510           14512                          BZF      DASOK17                       	#
000204:    4511           14572                          TCF      VDAERROR                      	#
000205:    4512                        DASOK17                                                  	#
000206:                                                                                         	# Now add -1 again, and make sure there is pos. overflow and
000207:                                                                                         	# there is wraparound to -0.
000208:    4512           24062                          INCR     ERRSUB                        	# 20 octal
000209:    4513           00006                          EXTEND                                 	# Let's add -1 to it.
000210:    4514           37465                          DCA      DBMONE                        	#
000211:    4515           20065                          DAS      TEMPJ                         	#
000212:    4516           67423                          AD       ONE                           	#
000213:    4517           00006                          EXTEND                                 	# Overflow?
000214:    4520           14522                          BZF      DASOK18                       	#
000215:    4521           14572                          TCF      VDAERROR                      	#
000216:    4522           24062        DASOK18           INCR     ERRSUB                        	# 21 octal
000217:    4523           00006                          EXTEND                                 	#
000218:    4524           37461                          DCA      DBMZERO                       	# Check result.
000219:    4525           00006                          EXTEND                                 	# MS word first.
000220:    4526           60064                          SU       TEMPJ                         	#
000221:    4527           00006                          EXTEND                                 	#
000222:    4530           14532                          BZF      DASOK19                       	#
000223:    4531           14572                          TCF      VDAERROR                      	#
000224:    4532           24062        DASOK19           INCR     ERRSUB                        	# 22
000225:    4533           30001                          CA       L                             	# LS word.
000226:    4534           00006                          EXTEND                                 	#
000227:    4535           60065                          SU       TEMPK                         	#
000228:    4536           00006                          EXTEND                                 	#
000229:    4537           14541                          BZF      DASOK20                       	#
000230:    4540           14572                          TCF      VDAERROR                      	#
000231:    4541                        DASOK20                                                  	#
000232:
000233:    4541           30007                          CA       ZEROES                        	#
000234:    4542           54062                          TS       ERRSUB                        	#
000235:
000236:                                                                                         	# (Test 8.) Now we check cases where the signs of the more-significant
000237:                                                                                         	# and less-significant words disagree.
000238:    4543           24061                          INCR     ERRNUM                        	#
000239:
000240:                                                                                         	# Check that X + -X = -0.  This isn't spec'd, but I've seen
000241:                                                                                         	# a comment somewhere that it is true.
000242:    4544           24062                          INCR     ERRSUB                        	# 1
000243:    4545           00006                          EXTEND                                 	#
000244:    4546           37453                          DCA      BIGNUM                        	#
000245:    4547           00006                          EXTEND                                 	#
000246:    4550           40001                          DCOM                                   	#
000247:    4551           52065                          DXCH     TEMPJ                         	#
000248:    4552           00006                          EXTEND                                 	#
000249:    4553           37453                          DCA      BIGNUM                        	#
000250:    4554           20065                          DAS      TEMPJ                         	#
000251:    4555           30064                          CA       TEMPJ                         	#
000252:    4556           10000                          CCS      A                             	#
000253:    4557           14572                          TCF      VDAERROR                      	#
000254:    4560           14572                          TCF      VDAERROR                      	#
000255:    4561           14572                          TCF      VDAERROR                      	#
000256:    4562           24062                          INCR     ERRSUB                        	# 2
000257:    4563           30065                          CA       TEMPK                         	#
000258:    4564           10000                          CCS      A                             	#
000259:    4565           14572                          TCF      VDAERROR                      	#
000260:    4566           14572                          TCF      VDAERROR                      	#
000261:    4567           14572                          TCF      VDAERROR                      	#
000262:
000263:    4570           14573                          TCF      +3                            	#
000264:    4571           00010        TSTEIGHT          DEC      8          B-14               	#
000265:    4572           07240        VDAERROR          TC       ERRORDSP                      	#
000266:    4573           34571                          CA       TSTEIGHT                      	#
000267:    4574           54061                          TS       ERRNUM                        	#
000268:    4575           30007                          CA       ZEROES                        	#
000269:    4576           54062                          TS       ERRSUB                        	#
000270:
(End of include-file ValidateDAS.agc, resuming Validation.agc)
000125:
000126:                                                                                         	#+++++++++++++++++++++++++++++++++++++++++++++++++++++++++
000127:                                                                                         	# Test 11:  check of LXCH.
000128: $ValidateLXCH.agc
000001:                                                                                         	# Copyright 2004 Ronald S. Burkey <info@sandroid.org>
000002:                                                                                         	#
000003:                                                                                         	# This file is part of yaAGC.
000004:
000005:                                                                                         	# yaAGC is free software; you can redistribute it and/or modify
000006:                                                                                         	# it under the terms of the GNU General Public License as published by
000007:                                                                                         	# the Free Software Foundation; either version 2 of the License, or
000008:                                                                                         	# (at your option) any later version.
000009:
000010:                                                                                         	# yaAGC is distributed in the hope that it will be useful,
000011:                                                                                         	# but WITHOUT ANY WARRANTY; without even the implied warranty of
000012:                                                                                         	# MERCHANTABILITY or FITNESS FOR A PARTICULAR PURPOSE.  See the
000013:                                                                                         	# GNU General Public License for more details.
000014:
000015:                                                                                         	# You should have received a copy of the GNU General Public License
000016:                                                                                         	# along with yaAGC; if not, write to the Free Software
000017:                                                                                         	# Foundation, Inc., 59 Temple Place, Suite 330, Boston, MA  02111-1307  USA
000018:
000019:                                                                                         	# Filename:	ValidateLXCH.agc
000020:                                                                                         	# Purpose:	This is the part of the Validation suite used for checking
000021:                                                                                         	#		the LXCH instruction.
000022:                                                                                         	# Mod history:	07/04/04 RSB.	Began.
000023:
000024:    4577           24061                          INCR     ERRNUM                        	#
000025:
000026:                                                                                         	# First we'll swap L and TEMPI
000027:    4600           24062                          INCR     ERRSUB                        	# 1
000028:    4601           37423                          CA       ONE                           	#
000029:    4602           54063                          TS       TEMPI                         	#
000030:    4603           37417                          CA       NEGONE                        	#
000031:    4604           54001                          TS       L                             	#
000032:    4605           22063                          LXCH     TEMPI                         	#
000033:    4606           30063                          CA       TEMPI                         	#
000034:    4607           67423                          AD       ONE                           	#
000035:    4610           00006                          EXTEND                                 	#
000036:    4611           14613                          BZF      LXCHOK1                       	#
000037:    4612           14711                          TCF      VLXERROR                      	#
000038:    4613           24062        LXCHOK1           INCR     ERRSUB                        	# 2
000039:    4614           30001                          CA       L                             	#
000040:    4615           67417                          AD       NEGONE                        	#
000041:    4616           00006                          EXTEND                                 	#
000042:    4617           14621                          BZF      LXCHOK2                       	#
000043:    4620           14711                          TCF      VLXERROR                      	#
000044:    4621                        LXCHOK2                                                  	#
000045:                                                                                         	# Now we'll swap A and L (without overflow)
000046:    4621           24062                          INCR     ERRSUB                        	# 3
000047:    4622           37417                          CA       NEGONE                        	#
000048:    4623           54001                          TS       L                             	#
000049:    4624           37423                          CA       ONE                           	#
000050:    4625           22000                          LXCH     A                             	#
000051:    4626           67423                          AD       ONE                           	#
000052:    4627           00006                          EXTEND                                 	#
000053:    4630           14632                          BZF      LXCHOK3                       	#
000054:    4631           14711                          TCF      VLXERROR                      	#
000055:    4632           24062        LXCHOK3           INCR     ERRSUB                        	# 4
000056:    4633           30001                          CA       L                             	#
000057:    4634           67417                          AD       NEGONE                        	#
000058:    4635           00006                          EXTEND                                 	#
000059:    4636           14640                          BZF      LXCHOK4                       	#
000060:    4637           14711                          TCF      VLXERROR                      	#
000061:    4640                        LXCHOK4                                                  	#
000062:                                                                                         	# Now we'll swap A and L with + overflow.
000063:    4640           24062                          INCR     ERRSUB                        	# 5
000064:    4641           37417                          CA       NEGONE                        	#
000065:    4642           54001                          TS       L                             	#
000066:    4643           37436                          CA       MAXP                          	#
000067:    4644           67423                          AD       ONE                           	#
000068:    4645           54000                          OVSK                                   	#
000069:    4646           14711                          TCF      VLXERROR                      	#
000070:    4647           24062                          INCR     ERRSUB                        	# 6
000071:    4650           54000                          OVSK                                   	#
000072:    4651           14711                          TCF      VLXERROR                      	#
000073:    4652           24062                          INCR     ERRSUB                        	# 7
000074:    4653           22000                          LXCH     A                             	#
000075:    4654           67423                          AD       ONE                           	#
000076:    4655           00006                          EXTEND                                 	#
000077:    4656           14660                          BZF      LXCHOK5                       	#
000078:    4657           14711                          TCF      VLXERROR                      	#
000079:    4660           24062        LXCHOK5           INCR     ERRSUB                        	# 10 octal
000080:    4661           30001                          CA       L                             	#
000081:    4662           00006                          EXTEND                                 	#
000082:    4663           14711                          BZF      VLXERROR                      	#
000083:    4664                        LXCHOK6                                                  	#
000084:                                                                                         	# Now we'll swap A and L with - overflow.
000085:    4664           24062                          INCR     ERRSUB                        	# 11
000086:    4665           37417                          CA       NEGONE                        	#
000087:    4666           54001                          TS       L                             	#
000088:    4667           37442                          CA       MAXN                          	#
000089:    4670           67417                          AD       NEGONE                        	#
000090:    4671           54000                          OVSK                                   	#
000091:    4672           14711                          TCF      VLXERROR                      	#
000092:    4673           24062                          INCR     ERRSUB                        	# 12
000093:    4674           54000                          OVSK                                   	#
000094:    4675           14711                          TCF      VLXERROR                      	#
000095:    4676           24062                          INCR     ERRSUB                        	# 13
000096:    4677           22000                          LXCH     A                             	#
000097:    4700           67423                          AD       ONE                           	#
000098:    4701           00006                          EXTEND                                 	#
000099:    4702           14704                          BZF      LXCHOK7                       	#
000100:    4703           14711                          TCF      VLXERROR                      	#
000101:    4704           24062        LXCHOK7           INCR     ERRSUB                        	# 14
000102:    4705           30001                          CA       L                             	#
000103:    4706           00006                          EXTEND                                 	#
000104:    4707           14711                          BZF      VLXERROR                      	#
000105:    4710                        LXCHOK8                                                  	#
000106:
000107:    4710           14712                          TCF      +2                            	#
000108:    4711           07240        VLXERROR          TC       ERRORDSP                      	#
000109:    4712           30007                          CA       ZEROES                        	#
000110:    4713           54062                          TS       ERRSUB                        	#
000111:
(End of include-file ValidateLXCH.agc, resuming Validation.agc)
000129:
000130:                                                                                         	#+++++++++++++++++++++++++++++++++++++++++++++++++++++++++
000131:                                                                                         	# Test 12:  check of INCR.
000132: $ValidateINCR.agc
000001:                                                                                         	# Copyright 2004 Ronald S. Burkey <info@sandroid.org>
000002:                                                                                         	#
000003:                                                                                         	# This file is part of yaAGC.
000004:
000005:                                                                                         	# yaAGC is free software; you can redistribute it and/or modify
000006:                                                                                         	# it under the terms of the GNU General Public License as published by
000007:                                                                                         	# the Free Software Foundation; either version 2 of the License, or
000008:                                                                                         	# (at your option) any later version.
000009:
000010:                                                                                         	# yaAGC is distributed in the hope that it will be useful,
000011:                                                                                         	# but WITHOUT ANY WARRANTY; without even the implied warranty of
000012:                                                                                         	# MERCHANTABILITY or FITNESS FOR A PARTICULAR PURPOSE.  See the
000013:                                                                                         	# GNU General Public License for more details.
000014:
000015:                                                                                         	# You should have received a copy of the GNU General Public License
000016:                                                                                         	# along with yaAGC; if not, write to the Free Software
000017:                                                                                         	# Foundation, Inc., 59 Temple Place, Suite 330, Boston, MA  02111-1307  USA
000018:
000019:                                                                                         	# Filename:	ValidateINCR.agc
000020:                                                                                         	# Purpose:	This is the part of the validation suite which tests the
000021:                                                                                         	#		INCR instruction.
000022:                                                                                         	# Mod history:	07/05/04 RSB.	Began.
000023:                                                                                         	#		07/08/04 RSB.	Overflow now inhibits BZF rather than being
000024:                                                                                         	#				ignored by it.
000025:
000026:
000027:    4714           24061                          INCR     ERRNUM                        	#
000028:
000029:                                                                                         	# Accumulator
000030:    4715           24062                          INCR     ERRSUB                        	# 1
000031:    4716           37417                          CA       NEGONE                        	#
000032:    4717           24000                          INCR     A                             	#
000033:    4720           00006                          EXTEND                                 	#
000034:    4721           14723                          BZF      INCROK1                       	#
000035:    4722           15013                          TCF      VINERROR                      	#
000036:    4723           24062        INCROK1           INCR     ERRSUB                        	# 2
000037:    4724           54000                          OVSK                                   	#
000038:    4725           14727                          TCF      INCROK2                       	#
000039:    4726           15013                          TCF      VINERROR                      	#
000040:    4727           24062        INCROK2           INCR     ERRSUB                        	# 3
000041:    4730           24000                          INCR     A                             	#
000042:    4731           54000                          OVSK                                   	#
000043:    4732           14734                          TCF      INCROK3                       	#
000044:    4733           15013                          TCF      VINERROR                      	#
000045:    4734           24062        INCROK3           INCR     ERRSUB                        	# 4
000046:    4735           54001                          TS       L                             	#
000047:    4736           37423                          CA       ONE                           	#
000048:    4737           00006                          EXTEND                                 	#
000049:    4740           60001                          SU       L                             	#
000050:    4741           00006                          EXTEND                                 	#
000051:    4742           14744                          BZF      INCROK4                       	#
000052:    4743           15013                          TCF      VINERROR                      	#
000053:    4744           24062        INCROK4           INCR     ERRSUB                        	# 5
000054:    4745           37437                          CA       MAXP-1                        	#
000055:    4746           24000                          INCR     A                             	#
000056:    4747           54000                          OVSK                                   	#
000057:    4750           14752                          TCF      INCROK5                       	#
000058:    4751           15013                          TCF      VINERROR                      	#
000059:    4752           24062        INCROK5           INCR     ERRSUB                        	# 6
000060:    4753           24000                          INCR     A                             	#
000061:    4754           00006                          EXTEND                                 	#
000062:    4755           15013                          BZF      VINERROR                      	#
000063:    4756           24062                          INCR     ERRSUB                        	# 7
000064:    4757           54000                          OVSK                                   	# We expect there to BE overflow.
000065:    4760           15013                          TCF      VINERROR                      	#
000066:
000067:                                                                                         	# TEMPI
000068:    4761           24062                          INCR     ERRSUB                        	# 10 octal
000069:    4762           37417                          CA       NEGONE                        	#
000070:    4763           54063                          TS       TEMPI                         	#
000071:    4764           24063                          INCR     TEMPI                         	#
000072:    4765           30063                          CA       TEMPI                         	#
000073:    4766           00006                          EXTEND                                 	#
000074:    4767           14771                          BZF      INCROK7                       	#
000075:    4770           15013                          TCF      VINERROR                      	#
000076:    4771           24062        INCROK7           INCR     ERRSUB                        	# 11
000077:    4772           24063                          INCR     TEMPI                         	#
000078:    4773           37423                          CA       ONE                           	#
000079:    4774           00006                          EXTEND                                 	#
000080:    4775           60001                          SU       L                             	#
000081:    4776           00006                          EXTEND                                 	#
000082:    4777           15001                          BZF      INCROK8                       	#
000083:    5000           15013                          TCF      VINERROR                      	#
000084:    5001           24062        INCROK8           INCR     ERRSUB                        	# 12
000085:    5002           37437                          CA       MAXP-1                        	#
000086:    5003           54063                          TS       TEMPI                         	#
000087:    5004           24063                          INCR     TEMPI                         	#
000088:    5005           24063                          INCR     TEMPI                         	#
000089:    5006           30063                          CA       TEMPI                         	#
000090:    5007           00006                          EXTEND                                 	#
000091:    5010           15012                          BZF      INCROK9                       	#
000092:    5011           15013                          TCF      VINERROR                      	#
000093:    5012                        INCROK9                                                  	#
000094:
000095:    5012           15014                          TCF      +2                            	#
000096:    5013           07240        VINERROR          TC       ERRORDSP                      	#
000097:    5014           30007                          CA       ZEROES                        	#
000098:    5015           54062                          TS       ERRSUB                        	#
000099:
(End of include-file ValidateINCR.agc, resuming Validation.agc)
000133:
000134:                                                                                         	#+++++++++++++++++++++++++++++++++++++++++++++++++++++++++
000135:                                                                                         	# Test 13:  check of ADS.
000136: $ValidateADS.agc
000001:                                                                                         	# Copyright 2004 Ronald S. Burkey <info@sandroid.org>
000002:                                                                                         	#
000003:                                                                                         	# This file is part of yaAGC.
000004:
000005:                                                                                         	# yaAGC is free software; you can redistribute it and/or modify
000006:                                                                                         	# it under the terms of the GNU General Public License as published by
000007:                                                                                         	# the Free Software Foundation; either version 2 of the License, or
000008:                                                                                         	# (at your option) any later version.
000009:
000010:                                                                                         	# yaAGC is distributed in the hope that it will be useful,
000011:                                                                                         	# but WITHOUT ANY WARRANTY; without even the implied warranty of
000012:                                                                                         	# MERCHANTABILITY or FITNESS FOR A PARTICULAR PURPOSE.  See the
000013:                                                                                         	# GNU General Public License for more details.
000014:
000015:                                                                                         	# You should have received a copy of the GNU General Public License
000016:                                                                                         	# along with yaAGC; if not, write to the Free Software
000017:                                                                                         	# Foundation, Inc., 59 Temple Place, Suite 330, Boston, MA  02111-1307  USA
000018:
000019:                                                                                         	# Filename:	ValidateADS.agc
000020:                                                                                         	# Purpose:	This is the part of the validation suite which tests the
000021:                                                                                         	#		ADS instruction.
000022:                                                                                         	# Mod history:	07/05/04 RSB.	Began.
000023:                                                                                         	#		07/08/04 RSB.	+ and - overflow now block BZF.
000024:
000025:    5016           24061                          INCR     ERRNUM                        	#
000026:
000027:    5017           24062                          INCR     ERRSUB                        	# 1
000028:                                                                                         	# First, start with -3*12345, and then add 12345 until
000029:                                                                                         	# we reach 3*12345, and check.
000030:    5020           37477                          CA       SMALRNUM                      	# 3 * 12345 (octal)
000031:    5021           40000                          COM                                    	# -3 * 12345.
000032:    5022           54064                          TS       TEMPJ                         	# TEMPJ is running sum.
000033:    5023           37426                          CA       FIVE                          	#
000034:    5024           54063        ADSLOOP1          TS       TEMPI                         	# TEMPI is loop counter.
000035:    5025           37476                          CA       SMALNUM                       	#
000036:    5026           26064                          ADS      TEMPJ                         	#
000037:    5027           54000                          OVSK                                   	# Overflow?
000038:    5030           15032                          TCF      ADS1                          	#
000039:    5031           15155                          TCF      VDSERROR                      	#
000040:    5032           00006        ADS1              EXTEND                                 	# A and TEMPJ match?
000041:    5033           60064                          SU       TEMPJ                         	#
000042:    5034           00006                          EXTEND                                 	#
000043:    5035           15037                          BZF      ADS2                          	#
000044:    5036           15155                          TCF      VDSERROR                      	#
000045:    5037           10063        ADS2              CCS      TEMPI                         	#
000046:    5040           15024                          TCF      ADSLOOP1                      	#
000047:    5041           24062                          INCR     ERRSUB                        	# 2
000048:    5042           24062                          INCR     ERRSUB                        	# 3
000049:                                                                                         	# Now compare.
000050:    5043           37477                          CA       SMALRNUM                      	#
000051:    5044           00006                          EXTEND                                 	#
000052:    5045           60064                          SU       TEMPJ                         	#
000053:    5046           00006                          EXTEND                                 	#
000054:    5047           15051                          BZF      ADS3                          	#
000055:    5050           15155                          TCF      VDSERROR                      	#
000056:    5051                        ADS3                                                     	#
000057:
000058:    5051           24062                          INCR     ERRSUB                        	# 4
000059:                                                                                         	# Same, but in the opposite direction.
000060:    5052           37477                          CA       SMALRNUM                      	# 3 * 12345 (octal)
000061:    5053           54064                          TS       TEMPJ                         	# TEMPJ is running sum.
000062:    5054           37426                          CA       FIVE                          	#
000063:    5055           54063        ADSLOOP2          TS       TEMPI                         	# TEMPI is loop counter.
000064:    5056           37476                          CA       SMALNUM                       	#
000065:    5057           40000                          COM                                    	#
000066:    5060           26064                          ADS      TEMPJ                         	#
000067:    5061           54000                          OVSK                                   	# Overflow?
000068:    5062           15064                          TCF      ADS4                          	#
000069:    5063           15155                          TCF      VDSERROR                      	#
000070:    5064           00006        ADS4              EXTEND                                 	# A and TEMPJ match?
000071:    5065           60064                          SU       TEMPJ                         	#
000072:    5066           00006                          EXTEND                                 	#
000073:    5067           15071                          BZF      ADS5                          	#
000074:    5070           15155                          TCF      VDSERROR                      	#
000075:    5071           10063        ADS5              CCS      TEMPI                         	#
000076:    5072           15055                          TCF      ADSLOOP2                      	#
000077:    5073           24062                          INCR     ERRSUB                        	# 5
000078:    5074           24062                          INCR     ERRSUB                        	# 6
000079:                                                                                         	# Now compare.
000080:    5075           37477                          CA       SMALRNUM                      	#
000081:    5076           40000                          COM                                    	#
000082:    5077           00006                          EXTEND                                 	#
000083:    5100           60064                          SU       TEMPJ                         	#
000084:    5101           00006                          EXTEND                                 	#
000085:    5102           15104                          BZF      ADS6                          	#
000086:    5103           15155                          TCF      VDSERROR                      	#
000087:    5104                        ADS6                                                     	#
000088:
000089:    5104           24062                          INCR     ERRSUB                        	# 7
000090:                                                                                         	# The steps above didn't generate overflow.  We want to
000091:                                                                                         	# check out overflow now.
000092:                                                                                         	# + Overflow
000093:    5105           37423                          CA       ONE                           	#
000094:    5106           54001                          TS       L                             	#
000095:    5107           37437                          CA       MAXP-1                        	#
000096:    5110           60001                          AD       L                             	#
000097:    5111           54000                          OVSK                                   	#
000098:    5112           15114                          TCF      ADS7                          	#
000099:    5113           15155                          TCF      VDSERROR                      	#
000100:    5114           24062        ADS7              INCR     ERRSUB                        	# 10 octal
000101:    5115           60001                          AD       L                             	#
000102:    5116           54000                          OVSK                                   	#
000103:    5117           15155                          TCF      VDSERROR                      	#
000104:    5120           24062                          INCR     ERRSUB                        	# 11 OCTAL
000105:    5121           00006                          EXTEND                                 	#
000106:    5122           15155                          BZF      VDSERROR                      	#
000107:    5123                        ADS8                                                     	#
000108:    5123           24062                          INCR     ERRSUB                        	# 12
000109:                                                                                         	# - Overflow
000110:    5124           37417                          CA       NEGONE                        	#
000111:    5125           54001                          TS       L                             	#
000112:    5126           37443                          CA       MAXN-1                        	#
000113:    5127           60001                          AD       L                             	#
000114:    5130           54000                          OVSK                                   	#
000115:    5131           15133                          TCF      ADS9                          	#
000116:    5132           15155                          TCF      VDSERROR                      	#
000117:    5133           24062        ADS9              INCR     ERRSUB                        	# 13
000118:    5134           60001                          AD       L                             	#
000119:    5135           54000                          OVSK                                   	#
000120:    5136           15155                          TCF      VDSERROR                      	#
000121:    5137           24062                          INCR     ERRSUB                        	# 14
000122:    5140           00006                          EXTEND                                 	#
000123:    5141           15155                          BZF      VDSERROR                      	#
000124:    5142                        ADS10                                                    	#
000125:
000126:    5142           24062                          INCR     ERRSUB                        	# 15
000127:                                                                                         	# Check that X + -X = -0.  This isn't spec'd, but I've seen
000128:                                                                                         	# a comment somewhere that it is true.
000129:    5143           37476                          CA       SMALNUM                       	#
000130:    5144           40000                          COM                                    	#
000131:    5145           54001                          TS       L                             	#
000132:    5146           37476                          CA       SMALNUM                       	#
000133:    5147           60001                          AD       L                             	#
000134:    5150           10000                          CCS      A                             	#
000135:    5151           15155                          TCF      VDSERROR                      	#
000136:    5152           15155                          TCF      VDSERROR                      	#
000137:    5153           15155                          TCF      VDSERROR                      	#
000138:
000139:    5154           15156                          TCF      +2                            	#
000140:    5155           07240        VDSERROR          TC       ERRORDSP                      	#
000141:    5156           30007                          CA       ZEROES                        	#
000142:    5157           54062                          TS       ERRSUB                        	#
000143:
(End of include-file ValidateADS.agc, resuming Validation.agc)
000137:
000138:                                                                                         	#+++++++++++++++++++++++++++++++++++++++++++++++++++++++++
000139:                                                                                         	# Test 14:  check of CA
000140: $ValidateCA.agc
000001:                                                                                         	# Copyright 2004 Ronald S. Burkey <info@sandroid.org>
000002:                                                                                         	#
000003:                                                                                         	# This file is part of yaAGC.
000004:
000005:                                                                                         	# yaAGC is free software; you can redistribute it and/or modify
000006:                                                                                         	# it under the terms of the GNU General Public License as published by
000007:                                                                                         	# the Free Software Foundation; either version 2 of the License, or
000008:                                                                                         	# (at your option) any later version.
000009:
000010:                                                                                         	# yaAGC is distributed in the hope that it will be useful,
000011:                                                                                         	# but WITHOUT ANY WARRANTY; without even the implied warranty of
000012:                                                                                         	# MERCHANTABILITY or FITNESS FOR A PARTICULAR PURPOSE.  See the
000013:                                                                                         	# GNU General Public License for more details.
000014:
000015:                                                                                         	# You should have received a copy of the GNU General Public License
000016:                                                                                         	# along with yaAGC; if not, write to the Free Software
000017:                                                                                         	# Foundation, Inc., 59 Temple Place, Suite 330, Boston, MA  02111-1307  USA
000018:
000019:                                                                                         	# Filename:	ValidateCA.agc
000020:                                                                                         	# Purpose:	This is the part of the Validation program that validates
000021:                                                                                         	#		just the CA instruction.
000022:                                                                                         	# Mod history:	07/05/04 RSB.	Began.
000023:
000024:    5160           24061                          INCR     ERRNUM                        	#
000025:
000026:                                                                                         	# Now just load and check a few values.
000027:
000028:    5161           24062                          INCR     ERRSUB                        	# 1
000029:                                                                                         	# Start with MAXP.  Generate overflow too.
000030:    5162           37436                          CA       MAXP                          	# Generate overflow.
000031:    5163           24000                          INCR     A                             	#
000032:    5164           37436                          CA       MAXP                          	# Load and check overflow.
000033:    5165           54000                          OVSK                                   	#
000034:    5166           15170                          TCF      CA1                           	#
000035:    5167           15261                          TCF      VCAERROR                      	#
000036:    5170           24062        CA1               INCR     ERRSUB                        	# 2
000037:    5171           54001                          TS       L                             	# Check that loaded value is right.
000038:    5172           00006                          EXTEND                                 	# Compute rather than load MAXP.
000039:    5173           60000                          SU       A                             	#
000040:    5174           67436                          AD       MAXP                          	#
000041:    5175           00006                          EXTEND                                 	# Compare.
000042:    5176           60001                          SU       L                             	#
000043:    5177           00006                          EXTEND                                 	#
000044:    5200           15202                          BZF      CA2                           	#
000045:    5201           15261                          TCF      VCAERROR                      	#
000046:    5202                        CA2                                                      	#
000047:
000048:    5202           24062                          INCR     ERRSUB                        	# 3
000049:                                                                                         	# -MAXP.
000050:    5203           37442                          CA       MAXN                          	#
000051:    5204           54001                          TS       L                             	# Check that loaded value is right.
000052:    5205           00006                          EXTEND                                 	# Compute rather than load MAXN.
000053:    5206           60000                          SU       A                             	#
000054:    5207           67442                          AD       MAXN                          	#
000055:    5210           00006                          EXTEND                                 	# Compare.
000056:    5211           60001                          SU       L                             	#
000057:    5212           00006                          EXTEND                                 	#
000058:    5213           15215                          BZF      CA3                           	#
000059:    5214           15261                          TCF      VCAERROR                      	#
000060:    5215                        CA3                                                      	#
000061:
000062:    5215           24062                          INCR     ERRSUB                        	# 4
000063:                                                                                         	# +1.
000064:    5216           37423                          CA       ONE                           	#
000065:    5217           54001                          TS       L                             	# Check that loaded value is right.
000066:    5220           00006                          EXTEND                                 	# Compute rather than load MAXN.
000067:    5221           60000                          SU       A                             	#
000068:    5222           67423                          AD       ONE                           	#
000069:    5223           00006                          EXTEND                                 	# Compare.
000070:    5224           60001                          SU       L                             	#
000071:    5225           00006                          EXTEND                                 	#
000072:    5226           15230                          BZF      CA4                           	#
000073:    5227           15261                          TCF      VCAERROR                      	#
000074:    5230                        CA4                                                      	#
000075:
000076:    5230           24062                          INCR     ERRSUB                        	# 5
000077:                                                                                         	# -1.
000078:    5231           37417                          CA       NEGONE                        	#
000079:    5232           54001                          TS       L                             	# Check that loaded value is right.
000080:    5233           00006                          EXTEND                                 	# Compute rather than load MAXN.
000081:    5234           60000                          SU       A                             	#
000082:    5235           67417                          AD       NEGONE                        	#
000083:    5236           00006                          EXTEND                                 	# Compare.
000084:    5237           60001                          SU       L                             	#
000085:    5240           00006                          EXTEND                                 	#
000086:    5241           15243                          BZF      CA5                           	#
000087:    5242           15261                          TCF      VCAERROR                      	#
000088:    5243                        CA5                                                      	#
000089:
000090:    5243           24062                          INCR     ERRSUB                        	# 6
000091:                                                                                         	# 0.
000092:    5244           30007                          CA       ZEROES                        	#
000093:    5245           10000                          CCS      A                             	#
000094:    5246           15261                          TCF      VCAERROR                      	#
000095:    5247           15252                          TCF      CA6                           	#
000096:    5250           15261                          TCF      VCAERROR                      	#
000097:    5251           15261                          TCF      VCAERROR                      	#
000098:    5252                        CA6                                                      	#
000099:
000100:    5252           24062                          INCR     ERRSUB                        	# 7
000101:                                                                                         	# -0.
000102:    5253           37416                          CA       NEGZERO                       	#
000103:    5254           10000                          CCS      A                             	#
000104:    5255           15261                          TCF      VCAERROR                      	#
000105:    5256           15261                          TCF      VCAERROR                      	#
000106:    5257           15261                          TCF      VCAERROR                      	#
000107:
000108:    5260           15262                          TCF      +2                            	#
000109:    5261           07240        VCAERROR          TC       ERRORDSP                      	#
000110:    5262           30007                          CA       ZEROES                        	#
000111:    5263           54062                          TS       ERRSUB                        	#
000112:
000113:
(End of include-file ValidateCA.agc, resuming Validation.agc)
000141:
000142:                                                                                         	#+++++++++++++++++++++++++++++++++++++++++++++++++++++++++
000143:                                                                                         	# Test 15:  check of CS
000144: $ValidateCS.agc
000001:                                                                                         	# Copyright 2004 Ronald S. Burkey <info@sandroid.org>
000002:                                                                                         	#
000003:                                                                                         	# This file is part of yaAGC.
000004:
000005:                                                                                         	# yaAGC is free software; you can redistribute it and/or modify
000006:                                                                                         	# it under the terms of the GNU General Public License as published by
000007:                                                                                         	# the Free Software Foundation; either version 2 of the License, or
000008:                                                                                         	# (at your option) any later version.
000009:
000010:                                                                                         	# yaAGC is distributed in the hope that it will be useful,
000011:                                                                                         	# but WITHOUT ANY WARRANTY; without even the implied warranty of
000012:                                                                                         	# MERCHANTABILITY or FITNESS FOR A PARTICULAR PURPOSE.  See the
000013:                                                                                         	# GNU General Public License for more details.
000014:
000015:                                                                                         	# You should have received a copy of the GNU General Public License
000016:                                                                                         	# along with yaAGC; if not, write to the Free Software
000017:                                                                                         	# Foundation, Inc., 59 Temple Place, Suite 330, Boston, MA  02111-1307  USA
000018:
000019:                                                                                         	# Filename:	ValidateCS.agc
000020:                                                                                         	# Purpose:	This is the part of the Validation program that validates
000021:                                                                                         	#		just the CS instruction.
000022:                                                                                         	# Mod history:	07/05/04 RSB.	Began.
000023:
000024:    5264           24061                          INCR     ERRNUM                        	#
000025:
000026:                                                                                         	# Now just load and check a few values.
000027:
000028:    5265           24062                          INCR     ERRSUB                        	# 1
000029:                                                                                         	# Start with MAXP.  Generate overflow too.
000030:    5266           37436                          CA       MAXP                          	# Generate overflow.
000031:    5267           24000                          INCR     A                             	#
000032:    5270           47436                          CS       MAXP                          	# Load and check overflow.
000033:    5271           54000                          OVSK                                   	#
000034:    5272           15274                          TCF      CS1                           	#
000035:    5273           15355                          TCF      VCSERROR                      	#
000036:    5274           24062        CS1               INCR     ERRSUB                        	# 2
000037:    5275           54001                          TS       L                             	# Check that loaded value is right.
000038:    5276           37442                          CA       MAXN                          	#
000039:    5277           00006                          EXTEND                                 	# Compare.
000040:    5300           60001                          SU       L                             	#
000041:    5301           00006                          EXTEND                                 	#
000042:    5302           15304                          BZF      CS2                           	#
000043:    5303           15355                          TCF      VCSERROR                      	#
000044:    5304                        CS2                                                      	#
000045:
000046:    5304           24062                          INCR     ERRSUB                        	# 3
000047:                                                                                         	# -MAXP.
000048:    5305           47442                          CS       MAXN                          	#
000049:    5306           54001                          TS       L                             	# Check that loaded value is right.
000050:    5307           37436                          CA       MAXP                          	#
000051:    5310           00006                          EXTEND                                 	# Compare.
000052:    5311           60001                          SU       L                             	#
000053:    5312           00006                          EXTEND                                 	#
000054:    5313           15315                          BZF      CS3                           	#
000055:    5314           15355                          TCF      VCSERROR                      	#
000056:    5315                        CS3                                                      	#
000057:
000058:    5315           24062                          INCR     ERRSUB                        	# 4
000059:                                                                                         	# +1.
000060:    5316           47423                          CS       ONE                           	#
000061:    5317           54001                          TS       L                             	# Check that loaded value is right.
000062:    5320           37417                          CA       NEGONE                        	#
000063:    5321           00006                          EXTEND                                 	# Compare.
000064:    5322           60001                          SU       L                             	#
000065:    5323           00006                          EXTEND                                 	#
000066:    5324           15326                          BZF      CS4                           	#
000067:    5325           15355                          TCF      VCSERROR                      	#
000068:    5326                        CS4                                                      	#
000069:
000070:    5326           24062                          INCR     ERRSUB                        	# 5
000071:                                                                                         	# -1.
000072:    5327           47417                          CS       NEGONE                        	#
000073:    5330           54001                          TS       L                             	# Check that loaded value is right.
000074:    5331           37423                          CA       ONE                           	#
000075:    5332           00006                          EXTEND                                 	# Compare.
000076:    5333           60001                          SU       L                             	#
000077:    5334           00006                          EXTEND                                 	#
000078:    5335           15337                          BZF      CS5                           	#
000079:    5336           15355                          TCF      VCSERROR                      	#
000080:    5337                        CS5                                                      	#
000081:
000082:    5337           24062                          INCR     ERRSUB                        	# 6
000083:                                                                                         	# 0.
000084:    5340           40007                          CS       ZEROES                        	#
000085:    5341           10000                          CCS      A                             	#
000086:    5342           15355                          TCF      VCSERROR                      	#
000087:    5343           15355                          TCF      VCSERROR                      	#
000088:    5344           15355                          TCF      VCSERROR                      	#
000089:
000090:    5345           24062                          INCR     ERRSUB                        	# 7
000091:                                                                                         	# -0.
000092:    5346           47416                          CS       NEGZERO                       	#
000093:    5347           10000                          CCS      A                             	#
000094:    5350           15355                          TCF      VCSERROR                      	#
000095:    5351           15354                          TCF      CS7                           	#
000096:    5352           15355                          TCF      VCSERROR                      	#
000097:    5353           15355                          TCF      VCSERROR                      	#
000098:    5354                        CS7                                                      	#
000099:
000100:    5354           15356                          TCF      +2                            	#
000101:    5355           07240        VCSERROR          TC       ERRORDSP                      	#
000102:    5356           30007                          CA       ZEROES                        	#
000103:    5357           54062                          TS       ERRSUB                        	#
000104:
000105:
(End of include-file ValidateCS.agc, resuming Validation.agc)
000145:
000146:                                                                                         	#+++++++++++++++++++++++++++++++++++++++++++++++++++++++++
000147:                                                                                         	# Test 16:  check of TS
000148: $ValidateTS.agc
000001:                                                                                         	# Copyright 2004 Ronald S. Burkey <info@sandroid.org>
000002:                                                                                         	#
000003:                                                                                         	# This file is part of yaAGC.
000004:
000005:                                                                                         	# yaAGC is free software; you can redistribute it and/or modify
000006:                                                                                         	# it under the terms of the GNU General Public License as published by
000007:                                                                                         	# the Free Software Foundation; either version 2 of the License, or
000008:                                                                                         	# (at your option) any later version.
000009:
000010:                                                                                         	# yaAGC is distributed in the hope that it will be useful,
000011:                                                                                         	# but WITHOUT ANY WARRANTY; without even the implied warranty of
000012:                                                                                         	# MERCHANTABILITY or FITNESS FOR A PARTICULAR PURPOSE.  See the
000013:                                                                                         	# GNU General Public License for more details.
000014:
000015:                                                                                         	# You should have received a copy of the GNU General Public License
000016:                                                                                         	# along with yaAGC; if not, write to the Free Software
000017:                                                                                         	# Foundation, Inc., 59 Temple Place, Suite 330, Boston, MA  02111-1307  USA
000018:
000019:                                                                                         	# Filename:	ValidateTS.agc
000020:                                                                                         	# Purpose:	This is the part of the Validation program that validates
000021:                                                                                         	#		just the TS instruction.
000022:                                                                                         	# Mod history:	07/05/04 RSB.	Began.
000023:
000024:    5360           24061                          INCR     ERRNUM                        	#
000025:
000026:                                                                                         	# I think that the "normal" uses of TS have been
000027:                                                                                         	# adequately check by the previous tests, since data has
000028:                                                                                         	# been saved and compared for correctness.  In other words,
000029:                                                                                         	# we know that it correctly saves data.  That leaves
000030:                                                                                         	# only weird cases like overflow behavior and +-0 to check.
000031:
000032:                                                                                         	# +0.
000033:    5361           24062                          INCR     ERRSUB                        	# 1
000034:    5362           30007                          CA       ZEROES                        	#
000035:    5363           54001                          TS       L                             	#
000036:    5364           10001                          CCS      L                             	#
000037:    5365           15505                          TCF      VTSERROR                      	#
000038:    5366           15371                          TCF      TS1                           	#
000039:    5367           15370                          NOOP                                   	#
000040:    5370           15505                          TCF      VTSERROR                      	#
000041:    5371                        TS1                                                      	#
000042:
000043:                                                                                         	# -0.
000044:    5371           24062                          INCR     ERRSUB                        	# 2
000045:    5372           37416                          CA       NEGZERO                       	#
000046:    5373           54001                          TS       L                             	#
000047:    5374           10001                          CCS      L                             	#
000048:    5375           15376                          NOOP                                   	#
000049:    5376           15377                          NOOP                                   	#
000050:    5377           15505                          TCF      VTSERROR                      	#
000051:
000052:                                                                                         	# +Overflow
000053:    5400           24062                          INCR     ERRSUB                        	# 3
000054:    5401           37436                          CA       MAXP                          	#
000055:    5402           67430                          AD       TEN                           	#
000056:    5403           54001                          TS       L                             	# Should be 9.
000057:    5404           15505                          TCF      VTSERROR                      	# No overflow.
000058:    5405           24062                          INCR     ERRSUB                        	# 4
000059:    5406           67417                          AD       NEGONE                        	# A should have been +1.
000060:    5407           00006                          EXTEND                                 	#
000061:    5410           15412                          BZF      TS2                           	#
000062:    5411           15505                          TCF      VTSERROR                      	#
000063:    5412           24062        TS2               INCR     ERRSUB                        	# 5
000064:    5413           37427                          CA       NINE                          	#
000065:    5414           00006                          EXTEND                                 	#
000066:    5415           60001                          SU       L                             	#
000067:    5416           00006                          EXTEND                                 	#
000068:    5417           15505                          BZF      VTSERROR                      	# L contains overflow.
000069:    5420           30001                          CA       L                             	#
000070:    5421           54063                          TS       TEMPI                         	#
000071:    5422           15423                          NOOP                                   	#
000072:    5423           37427                          CA       NINE                          	#
000073:    5424           00006                          EXTEND                                 	#
000074:    5425           60063                          SU       TEMPI                         	# ... but TEMPI does not.
000075:    5426           00006                          EXTEND                                 	#
000076:    5427           15431                          BZF      +2                            	#
000077:    5430           15505                          TCF      VTSERROR                      	#
000078:
000079:    5431                        TS3                                                      	#
000080:
000081:                                                                                         	# -Overflow
000082:    5431           24062                          INCR     ERRSUB                        	# 6
000083:    5432           37430                          CA       TEN                           	#
000084:    5433           54001                          TS       L                             	#
000085:    5434           37442                          CA       MAXN                          	#
000086:    5435           00006                          EXTEND                                 	#
000087:    5436           60001                          SU       L                             	#
000088:    5437           54001                          TS       L                             	# Should be -9.
000089:    5440           15505                          TCF      VTSERROR                      	# No overflow.
000090:    5441           24062                          INCR     ERRSUB                        	# 7
000091:    5442           67423                          AD       ONE                           	# A should have been -1.
000092:    5443           00006                          EXTEND                                 	#
000093:    5444           15446                          BZF      TS4A                          	#
000094:    5445           15505                          TCF      VTSERROR                      	#
000095:    5446           24062        TS4A              INCR     ERRSUB                        	# 10 octal
000096:    5447           37427                          CA       NINE                          	#
000097:    5450           60001                          AD       L                             	#
000098:    5451           00006                          EXTEND                                 	#
000099:    5452           15505                          BZF      VTSERROR                      	# L contains overflow.
000100:    5453           30001                          CA       L                             	#
000101:    5454           54063                          TS       TEMPI                         	#
000102:    5455           15456                          NOOP                                   	#
000103:    5456           37427                          CA       NINE                          	#
000104:    5457           60063                          AD       TEMPI                         	#
000105:    5460           00006                          EXTEND                                 	#
000106:    5461           15463                          BZF      +2                            	# ... but TEMPI does not.
000107:    5462           15505                          TCF      VTSERROR                      	#
000108:
000109:    5463                        TS4                                                      	#
000110:
000111:                                                                                         	# No overflow
000112:    5463           24062                          INCR     ERRSUB                        	# 11
000113:    5464           37426                          CA       FIVE                          	#
000114:    5465           40000                          COM                                    	#
000115:    5466           54001                          TS       L                             	# -5
000116:    5467           15471                          TCF      TS5A                          	# No overflow.
000117:    5470           15505                          TCF      VTSERROR                      	# Overflow.
000118:    5471           24062        TS5A              INCR     ERRSUB                        	# 12
000119:    5472           67426                          AD       FIVE                          	# A should have been -5.
000120:    5473           00006                          EXTEND                                 	#
000121:    5474           15476                          BZF      TS5                           	#
000122:    5475           15505                          TCF      VTSERROR                      	#
000123:    5476           24062        TS5               INCR     ERRSUB                        	# 13
000124:    5477           37426                          CA       FIVE                          	#
000125:    5500           60001                          AD       L                             	#
000126:    5501           00006                          EXTEND                                 	#
000127:    5502           15504                          BZF      TS6                           	#
000128:    5503           15505                          TCF      VTSERROR                      	#
000129:    5504                        TS6                                                      	#
000130:
000131:    5504           15506                          TCF      +2                            	#
000132:    5505           07240        VTSERROR          TC       ERRORDSP                      	#
000133:    5506           30007                          CA       ZEROES                        	#
000134:    5507           54062                          TS       ERRSUB                        	#
000135:
(End of include-file ValidateTS.agc, resuming Validation.agc)
000149:
000150:                                                                                         	#+++++++++++++++++++++++++++++++++++++++++++++++++++++++++
000151:                                                                                         	# Test 17:  check of INDEX
000152: $ValidateINDEX.agc
000001:                                                                                         	# Copyright 2004 Ronald S. Burkey <info@sandroid.org>
000002:                                                                                         	#
000003:                                                                                         	# This file is part of yaAGC.
000004:
000005:                                                                                         	# yaAGC is free software; you can redistribute it and/or modify
000006:                                                                                         	# it under the terms of the GNU General Public License as published by
000007:                                                                                         	# the Free Software Foundation; either version 2 of the License, or
000008:                                                                                         	# (at your option) any later version.
000009:
000010:                                                                                         	# yaAGC is distributed in the hope that it will be useful,
000011:                                                                                         	# but WITHOUT ANY WARRANTY; without even the implied warranty of
000012:                                                                                         	# MERCHANTABILITY or FITNESS FOR A PARTICULAR PURPOSE.  See the
000013:                                                                                         	# GNU General Public License for more details.
000014:
000015:                                                                                         	# You should have received a copy of the GNU General Public License
000016:                                                                                         	# along with yaAGC; if not, write to the Free Software
000017:                                                                                         	# Foundation, Inc., 59 Temple Place, Suite 330, Boston, MA  02111-1307  USA
000018:
000019:                                                                                         	# Filename:	ValidateINDEX.agc
000020:                                                                                         	# Purpose:	This is the part of the Validation program that validates
000021:                                                                                         	#		just the INDEX instruction.
000022:                                                                                         	# Mod history:	07/05/04 RSB.	Began.
000023:
000024:    5510           24061                          INCR     ERRNUM                        	#
000025:
000026:                                                                                         	# First do the "basic" (non-Extracode) INDEX instruction.
000027:                                                                                         	# Just load values from the table and check them.
000028:    5511           15517                          TCF      AFTERTAB                      	#
000029:    5512           77772                          DEC      -5         B-14               	#
000030:    5513           77766                          DEC      -9         B-14               	#
000031:    5514           77765        TABLE             DEC      -10        B-14               	#
000032:    5515           77776                          DEC      -1         B-14               	#
000033:    5516           00001                          DEC      1          B-14               	#
000034:    5517                        AFTERTAB                                                 	#
000035:    5517           37423                          CA       ONE                           	#
000036:    5520           67423                          AD       ONE                           	#
000037:    5521           40000                          COM                                    	#
000038:    5522           54063                          TS       TEMPI                         	# TEMPI is -2.
000039:
000040:    5523           24062                          INCR     ERRSUB                        	# 1
000041:    5524           50063                          INDEX    TEMPI                         	#
000042:    5525           35514                          CA       TABLE                         	#
000043:    5526           67426                          AD       FIVE                          	#
000044:    5527           00006                          EXTEND                                 	#
000045:    5530           15532                          BZF      INDEX1                        	#
000046:    5531           15653                          TCF      VNDERROR                      	#
000047:    5532                        INDEX1                                                   	#
000048:    5532           24062                          INCR     ERRSUB                        	# 2
000049:    5533           24063                          INCR     TEMPI                         	#
000050:    5534           50063                          INDEX    TEMPI                         	#
000051:    5535           35514                          CA       TABLE                         	#
000052:    5536           67427                          AD       NINE                          	#
000053:    5537           00006                          EXTEND                                 	#
000054:    5540           15542                          BZF      INDEX2                        	#
000055:    5541           15653                          TCF      VNDERROR                      	#
000056:    5542                        INDEX2                                                   	#
000057:    5542           24062                          INCR     ERRSUB                        	# 3
000058:    5543           24063                          INCR     TEMPI                         	#
000059:    5544           50063                          INDEX    TEMPI                         	#
000060:    5545           35514                          CA       TABLE                         	#
000061:    5546           67430                          AD       TEN                           	#
000062:    5547           00006                          EXTEND                                 	#
000063:    5550           15552                          BZF      INDEX3                        	#
000064:    5551           15653                          TCF      VNDERROR                      	#
000065:    5552                        INDEX3                                                   	#
000066:    5552           24062                          INCR     ERRSUB                        	# 4
000067:    5553           24063                          INCR     TEMPI                         	#
000068:    5554           50063                          INDEX    TEMPI                         	#
000069:    5555           35514                          CA       TABLE                         	#
000070:    5556           67423                          AD       ONE                           	#
000071:    5557           00006                          EXTEND                                 	#
000072:    5560           15562                          BZF      INDEX4                        	#
000073:    5561           15653                          TCF      VNDERROR                      	#
000074:    5562                        INDEX4                                                   	#
000075:    5562           24062                          INCR     ERRSUB                        	# 5
000076:    5563           24063                          INCR     TEMPI                         	#
000077:    5564           50063                          INDEX    TEMPI                         	#
000078:    5565           35514                          CA       TABLE                         	#
000079:    5566           67417                          AD       NEGONE                        	#
000080:    5567           00006                          EXTEND                                 	#
000081:    5570           15572                          BZF      INDEX5                        	#
000082:    5571           15653                          TCF      VNDERROR                      	#
000083:    5572                        INDEX5                                                   	#
000084:
000085:                                                                                         	# The test of the Extracode version is done the same way,
000086:                                                                                         	# except that we use DCA rather than CA to load the values.
000087:                                                                                         	# (We discard the extra word loaded into L without checking.
000088:    5572           37423                          CA       ONE                           	#
000089:    5573           67423                          AD       ONE                           	#
000090:    5574           40000                          COM                                    	#
000091:    5575           54063                          TS       TEMPI                         	# TEMPI is -2.
000092:
000093:    5576           24062                          INCR     ERRSUB                        	# 6
000094:    5577           00006                          EXTEND                                 	#
000095:    5600           50063                          INDEX    TEMPI                         	#
000096:    5601           35515                          DCA      TABLE                         	#
000097:    5602           67426                          AD       FIVE                          	#
000098:    5603           00006                          EXTEND                                 	#
000099:    5604           15606                          BZF      INDEX6                        	#
000100:    5605           15653                          TCF      VNDERROR                      	#
000101:    5606                        INDEX6                                                   	#
000102:    5606           24062                          INCR     ERRSUB                        	# 7
000103:    5607           24063                          INCR     TEMPI                         	#
000104:    5610           00006                          EXTEND                                 	#
000105:    5611           50063                          INDEX    TEMPI                         	#
000106:    5612           35515                          DCA      TABLE                         	#
000107:    5613           67427                          AD       NINE                          	#
000108:    5614           00006                          EXTEND                                 	#
000109:    5615           15617                          BZF      INDEX7                        	#
000110:    5616           15653                          TCF      VNDERROR                      	#
000111:    5617                        INDEX7                                                   	#
000112:    5617           24062                          INCR     ERRSUB                        	# 10 octal
000113:    5620           24063                          INCR     TEMPI                         	#
000114:    5621           00006                          EXTEND                                 	#
000115:    5622           50063                          INDEX    TEMPI                         	#
000116:    5623           35515                          DCA      TABLE                         	#
000117:    5624           67430                          AD       TEN                           	#
000118:    5625           00006                          EXTEND                                 	#
000119:    5626           15630                          BZF      INDEX8                        	#
000120:    5627           15653                          TCF      VNDERROR                      	#
000121:    5630                        INDEX8                                                   	#
000122:    5630           24062                          INCR     ERRSUB                        	# 11
000123:    5631           24063                          INCR     TEMPI                         	#
000124:    5632           00006                          EXTEND                                 	#
000125:    5633           50063                          INDEX    TEMPI                         	#
000126:    5634           35515                          DCA      TABLE                         	#
000127:    5635           67423                          AD       ONE                           	#
000128:    5636           00006                          EXTEND                                 	#
000129:    5637           15641                          BZF      INDEX9                        	#
000130:    5640           15653                          TCF      VNDERROR                      	#
000131:    5641                        INDEX9                                                   	#
000132:    5641           24062                          INCR     ERRSUB                        	# 12
000133:    5642           24063                          INCR     TEMPI                         	#
000134:    5643           00006                          EXTEND                                 	#
000135:    5644           50063                          INDEX    TEMPI                         	#
000136:    5645           35515                          DCA      TABLE                         	#
000137:    5646           67417                          AD       NEGONE                        	#
000138:    5647           00006                          EXTEND                                 	#
000139:    5650           15652                          BZF      INDEX10                       	#
000140:    5651           15653                          TCF      VNDERROR                      	#
000141:    5652                        INDEX10                                                  	#
000142:
000143:                                                                                         	# We also need to check that if the following instructions
000144:                                                                                         	# are created by indexing, that they are treated as real,
000145:                                                                                         	# rather than as the special codes RELINT, INHINT, EXTEND,
000146:                                                                                         	# and RESUME:
000147:                                                                                         	#	TC	3
000148:                                                                                         	#	TC	4
000149:                                                                                         	#	TC	6
000150:                                                                                         	#	INDEX	17
000151:                                                                                         	# However, we DON'T actually check that now, since that's
000152:                                                                                         	# not the way yaAGC is implemented currently.
000153:
000154:    5652           15654                          TCF      +2                            	#
000155:    5653           07240        VNDERROR          TC       ERRORDSP                      	#
000156:    5654           30007                          CA       ZEROES                        	#
000157:    5655           54062                          TS       ERRSUB                        	#
000158:
(End of include-file ValidateINDEX.agc, resuming Validation.agc)
000153:
000154:                                                                                         	#+++++++++++++++++++++++++++++++++++++++++++++++++++++++++
000155:                                                                                         	# Test 20:  check of RELINT
000156:    5656           24061                          INCR     ERRNUM                        	#
000157:                                                                                         	# ... later ...
000158:
000159:                                                                                         	#+++++++++++++++++++++++++++++++++++++++++++++++++++++++++
000160:                                                                                         	# Test 21:  check of INHINT
000161:    5657           24061                          INCR     ERRNUM                        	#
000162:                                                                                         	# ... later ...
000163:
000164:                                                                                         	#+++++++++++++++++++++++++++++++++++++++++++++++++++++++++
000165:                                                                                         	# Test 22:  check of EXTEND
000166:    5660           24061                          INCR     ERRNUM                        	#
000167:                                                                                         	# ... later ...
000168:
000169:                                                                                         	#+++++++++++++++++++++++++++++++++++++++++++++++++++++++++
000170:                                                                                         	# Test 23:  check of RESUME
000171:    5661           24061                          INCR     ERRNUM                        	#
000172:                                                                                         	# ... later ...
000173:
000174:    5662           16000                          TCF      BANK3                         	#
000175:    6000                                          SETLOC   6000                          	#
000176:    6000                        BANK3                                                    	#
000177:
000178:                                                                                         	#+++++++++++++++++++++++++++++++++++++++++++++++++++++++++
000179:                                                                                         	# Test 24:  check of DXCH
000180: $ValidateDXCH.agc
000001:                                                                                         	# Copyright 2004 Ronald S. Burkey <info@sandroid.org>
000002:                                                                                         	#
000003:                                                                                         	# This file is part of yaAGC.
000004:
000005:                                                                                         	# yaAGC is free software; you can redistribute it and/or modify
000006:                                                                                         	# it under the terms of the GNU General Public License as published by
000007:                                                                                         	# the Free Software Foundation; either version 2 of the License, or
000008:                                                                                         	# (at your option) any later version.
000009:
000010:                                                                                         	# yaAGC is distributed in the hope that it will be useful,
000011:                                                                                         	# but WITHOUT ANY WARRANTY; without even the implied warranty of
000012:                                                                                         	# MERCHANTABILITY or FITNESS FOR A PARTICULAR PURPOSE.  See the
000013:                                                                                         	# GNU General Public License for more details.
000014:
000015:                                                                                         	# You should have received a copy of the GNU General Public License
000016:                                                                                         	# along with yaAGC; if not, write to the Free Software
000017:                                                                                         	# Foundation, Inc., 59 Temple Place, Suite 330, Boston, MA  02111-1307  USA
000018:
000019:                                                                                         	# Filename:	ValidateDXCH.agc
000020:                                                                                         	# Purpose:	This is the part of the Validation program that validates
000021:                                                                                         	#		just the DXCH instruction.
000022:                                                                                         	# Mod history:	07/05/04 RSB.	Began.
000023:
000024:    6000           24061                          INCR     ERRNUM                        	#
000025:
000026:                                                                                         	# Well, exchange something.
000027:    6001           37423                          CA       ONE                           	#
000028:    6002           54064                          TS       TEMPJ                         	#
000029:    6003           37417                          CA       NEGONE                        	#
000030:    6004           54065                          TS       TEMPK                         	#
000031:    6005           37426                          CA       FIVE                          	#
000032:    6006           54001                          TS       L                             	#
000033:    6007           37430                          CA       TEN                           	#
000034:    6010           52065                          DXCH     TEMPJ                         	#
000035:                                                                                         	# Compare to see if right.
000036:    6011           67417                          AD       NEGONE                        	#
000037:    6012           00006                          EXTEND                                 	#
000038:    6013           16015                          BZF      DXCH1                         	#
000039:    6014           07240                          TC       ERRORDSP                      	#
000040:    6015           30001        DXCH1             CA       L                             	#
000041:    6016           67423                          AD       ONE                           	#
000042:    6017           00006                          EXTEND                                 	#
000043:    6020           16022                          BZF      DXCH2                         	#
000044:    6021           07240                          TC       ERRORDSP                      	#
000045:    6022           37426        DXCH2             CA       FIVE                          	#
000046:    6023           40000                          COM                                    	#
000047:    6024           60065                          AD       TEMPK                         	#
000048:    6025           00006                          EXTEND                                 	#
000049:    6026           16030                          BZF      DXCH3                         	#
000050:    6027           07240                          TC       ERRORDSP                      	#
000051:    6030           37430        DXCH3             CA       TEN                           	#
000052:    6031           40000                          COM                                    	#
000053:    6032           60064                          AD       TEMPJ                         	#
000054:    6033           00006                          EXTEND                                 	#
000055:    6034           16036                          BZF      DXCH4                         	#
000056:    6035           07240                          TC       ERRORDSP                      	#
000057:    6036                        DXCH4                                                    	#
000058:
000059:                                                                                         	# Now do something similar, but with initial overflow.
000060:    6036           37423                          CA       ONE                           	#
000061:    6037           54064                          TS       TEMPJ                         	#
000062:    6040           37417                          CA       NEGONE                        	#
000063:    6041           54065                          TS       TEMPK                         	#
000064:    6042           37426                          CA       FIVE                          	#
000065:    6043           54001                          TS       L                             	#
000066:    6044           37436                          CA       MAXP                          	#
000067:    6045           67430                          AD       TEN                           	# Causes overflow.
000068:    6046           52065                          DXCH     TEMPJ                         	#
000069:    6047           54000                          OVSK                                   	#
000070:    6050           16052                          TCF      DXCH5                         	#
000071:    6051           07240                          TC       ERRORDSP                      	#
000072:    6052                        DXCH5                                                    	#
000073:                                                                                         	# Compare to see if right.
000074:    6052           67417                          AD       NEGONE                        	#
000075:    6053           00006                          EXTEND                                 	#
000076:    6054           16056                          BZF      DXCH6                         	#
000077:    6055           07240                          TC       ERRORDSP                      	#
000078:    6056           30001        DXCH6             CA       L                             	#
000079:    6057           67423                          AD       ONE                           	#
000080:    6060           00006                          EXTEND                                 	#
000081:    6061           16063                          BZF      DXCH7                         	#
000082:    6062           07240                          TC       ERRORDSP                      	#
000083:    6063           37426        DXCH7             CA       FIVE                          	#
000084:    6064           40000                          COM                                    	#
000085:    6065           60065                          AD       TEMPK                         	#
000086:    6066           00006                          EXTEND                                 	#
000087:    6067           16071                          BZF      DXCH8                         	#
000088:    6070           07240                          TC       ERRORDSP                      	#
000089:    6071           37430        DXCH8             CA       TEN                           	#
000090:    6072           40000                          COM                                    	#
000091:    6073           24000                          INCR     A                             	#
000092:    6074           60064                          AD       TEMPJ                         	#
000093:    6075           00006                          EXTEND                                 	#
000094:    6076           16100                          BZF      DXCH9                         	#
000095:    6077           07240                          TC       ERRORDSP                      	#
000096:    6100                        DXCH9                                                    	#
000097:
000098:                                                                                         	# There shouldn't be any sensible reason for "DXCH A",
000099:                                                                                         	# but let's check it anyhow.
000100:    6100           37430                          CA       TEN                           	#
000101:    6101           54001                          TS       L                             	#
000102:    6102           37426                          CA       FIVE                          	#
000103:    6103           52001                          DXCH     A                             	#
000104:    6104           40000                          COM                                    	#
000105:    6105           67426                          AD       FIVE                          	#
000106:    6106           00006                          EXTEND                                 	#
000107:    6107           16111                          BZF      DXCH10                        	#
000108:    6110           07240                          TC       ERRORDSP                      	#
000109:    6111           30001        DXCH10            CA       L                             	#
000110:    6112           40000                          COM                                    	#
000111:    6113           67430                          AD       TEN                           	#
000112:    6114           00006                          EXTEND                                 	#
000113:    6115           16117                          BZF      DXCH11                        	#
000114:    6116           07240                          TC       ERRORDSP                      	#
000115:    6117                        DXCH11                                                   	#
000116:
000117:                                                                                         	# Finally, check "DXCH L".  (This wacky, undocumented
000118:                                                                                         	# case sends A to L, L to Q, and Q to A.  Before you
000119:                                                                                         	# say "of course!" note that the opposite direction
000120:                                                                                         	# is equally sensible.)
000121:    6117           37430                          CA       TEN                           	#
000122:    6120           54002                          TS       Q                             	#
000123:    6121           37426                          CA       FIVE                          	#
000124:    6122           54001                          TS       L                             	#
000125:    6123           37423                          CA       ONE                           	#
000126:    6124           52002                          DXCH     L                             	#
000127:    6125           40000                          COM                                    	#
000128:    6126           67430                          AD       TEN                           	#
000129:    6127           00006                          EXTEND                                 	#
000130:    6130           16132                          BZF      DXCH12                        	#
000131:    6131           07240                          TC       ERRORDSP                      	#
000132:    6132           30002        DXCH12            CA       Q                             	#
000133:    6133           40000                          COM                                    	#
000134:    6134           67426                          AD       FIVE                          	#
000135:    6135           00006                          EXTEND                                 	#
000136:    6136           16140                          BZF      DXCH13                        	#
000137:    6137           07240                          TC       ERRORDSP                      	#
000138:    6140           30001        DXCH13            CA       L                             	#
000139:    6141           67417                          AD       NEGONE                        	#
000140:    6142           00006                          EXTEND                                 	#
000141:    6143           16145                          BZF      DXCH14                        	#
000142:    6144           07240                          TC       ERRORDSP                      	#
000143:    6145                        DXCH14                                                   	#
000144:
(End of include-file ValidateDXCH.agc, resuming Validation.agc)
000181:
000182:                                                                                         	#+++++++++++++++++++++++++++++++++++++++++++++++++++++++++
000183:                                                                                         	# Test 25:  check of XCH
000184: $ValidateXCH.agc
000001:                                                                                         	# Copyright 2004 Ronald S. Burkey <info@sandroid.org>
000002:                                                                                         	#
000003:                                                                                         	# This file is part of yaAGC.
000004:
000005:                                                                                         	# yaAGC is free software; you can redistribute it and/or modify
000006:                                                                                         	# it under the terms of the GNU General Public License as published by
000007:                                                                                         	# the Free Software Foundation; either version 2 of the License, or
000008:                                                                                         	# (at your option) any later version.
000009:
000010:                                                                                         	# yaAGC is distributed in the hope that it will be useful,
000011:                                                                                         	# but WITHOUT ANY WARRANTY; without even the implied warranty of
000012:                                                                                         	# MERCHANTABILITY or FITNESS FOR A PARTICULAR PURPOSE.  See the
000013:                                                                                         	# GNU General Public License for more details.
000014:
000015:                                                                                         	# You should have received a copy of the GNU General Public License
000016:                                                                                         	# along with yaAGC; if not, write to the Free Software
000017:                                                                                         	# Foundation, Inc., 59 Temple Place, Suite 330, Boston, MA  02111-1307  USA
000018:
000019:                                                                                         	# Filename:	ValidateXCH.agc
000020:                                                                                         	# Purpose:	This is the part of the Validation program that validates
000021:                                                                                         	#		just the XCH instruction.
000022:                                                                                         	# Mod history:	07/05/04 RSB.	Began.
000023:                                                                                         	#		07/13/04 RSB.	Added ERRSUB.
000024:
000025:    6145           24061                          INCR     ERRNUM                        	#
000026:
000027:                                                                                         	# Swap some stuff.
000028:    6146           24062                          INCR     ERRSUB                        	# 1
000029:    6147           37430                          CA       TEN                           	#
000030:    6150           54063                          TS       TEMPI                         	#
000031:    6151           37426                          CA       FIVE                          	#
000032:    6152           56063                          XCH      TEMPI                         	#
000033:    6153           40000                          COM                                    	#
000034:    6154           67430                          AD       TEN                           	#
000035:    6155           00006                          EXTEND                                 	#
000036:    6156           16160                          BZF      XCH1                          	#
000037:    6157           16247                          TCF      VXCERROR                      	#
000038:    6160           24062        XCH1              INCR     ERRSUB                        	# 2
000039:    6161           30063                          CA       TEMPI                         	#
000040:    6162           40000                          COM                                    	#
000041:    6163           67426                          AD       FIVE                          	#
000042:    6164           00006                          EXTEND                                 	#
000043:    6165           16167                          BZF      XCH2                          	#
000044:    6166           16247                          TCF      VXCERROR                      	#
000045:    6167                        XCH2                                                     	#
000046:
000047:                                                                                         	# Same, but with some overflow correction.
000048:    6167           24062                          INCR     ERRSUB                        	# 3
000049:    6170           37430                          CA       TEN                           	#
000050:    6171           54063                          TS       TEMPI                         	#
000051:    6172           37436                          CA       MAXP                          	#
000052:    6173           67426                          AD       FIVE                          	#
000053:    6174           56063                          XCH      TEMPI                         	#
000054:    6175           54000                          OVSK                                   	#
000055:    6176           16200                          TCF      XCH3A                         	#
000056:    6177           16247                          TCF      VXCERROR                      	#
000057:    6200           24062        XCH3A             INCR     ERRSUB                        	# 4
000058:    6201           40000                          COM                                    	#
000059:    6202           67430                          AD       TEN                           	#
000060:    6203           00006                          EXTEND                                 	#
000061:    6204           16206                          BZF      XCH3                          	#
000062:    6205           16247                          TCF      VXCERROR                      	#
000063:    6206           24062        XCH3              INCR     ERRSUB                        	# 5
000064:    6207           30063                          CA       TEMPI                         	#
000065:    6210           24000                          INCR     A                             	#
000066:    6211           40000                          COM                                    	#
000067:    6212           67426                          AD       FIVE                          	#
000068:    6213           00006                          EXTEND                                 	#
000069:    6214           16216                          BZF      XCH4                          	#
000070:    6215           16247                          TCF      VXCERROR                      	#
000071:    6216                        XCH4                                                     	#
000072:
000073:                                                                                         	# Check for "XCH A", as if it's of any interest.
000074:    6216           24062                          INCR     ERRSUB                        	# 6
000075:    6217           37436                          CA       MAXP                          	#
000076:    6220           67430                          AD       TEN                           	#
000077:    6221           56000                          XCH      A                             	#
000078:    6222           54000                          OVSK                                   	#
000079:    6223           16247                          TCF      VXCERROR                      	#
000080:    6224           24062        XCH5              INCR     ERRSUB                        	# 7
000081:    6225           24000                          INCR     A                             	#
000082:    6226           54001                          TS       L                             	#
000083:    6227           16230                          NOOP                                   	#
000084:    6230           30001                          CA       L                             	#
000085:    6231           40000                          COM                                    	#
000086:    6232           67430                          AD       TEN                           	#
000087:    6233           00006                          EXTEND                                 	#
000088:    6234           16247                          BZF      VXCERROR                      	# L contains overflow.
000089:    6235           30001                          CA       L                             	#
000090:    6236           54063                          TS       TEMPI                         	#
000091:    6237           16240                          NOOP                                   	#
000092:    6240           37430                          CA       TEN                           	#
000093:    6241           40000                          COM                                    	#
000094:    6242           60063                          AD       TEMPI                         	#
000095:    6243           00006                          EXTEND                                 	#
000096:    6244           16246                          BZF      +2                            	# ... but TEMP doesn't.
000097:    6245           16247                          TCF      VXCERROR                      	#
000098:
000099:
000100:    6246                        XCH6                                                     	#
000101:
000102:    6246           16250                          TCF      +2                            	#
000103:    6247           07240        VXCERROR          TC       ERRORDSP                      	#
000104:    6250           30007                          CA       ZEROES                        	#
000105:    6251           54062                          TS       ERRSUB                        	#
000106:
(End of include-file ValidateXCH.agc, resuming Validation.agc)
000185:
000186:                                                                                         	#+++++++++++++++++++++++++++++++++++++++++++++++++++++++++
000187:                                                                                         	# Test 26:  check of AD
000188: $ValidateAD.agc
000001:                                                                                         	# Copyright 2004 Ronald S. Burkey <info@sandroid.org>
000002:                                                                                         	#
000003:                                                                                         	# This file is part of yaAGC.
000004:
000005:                                                                                         	# yaAGC is free software; you can redistribute it and/or modify
000006:                                                                                         	# it under the terms of the GNU General Public License as published by
000007:                                                                                         	# the Free Software Foundation; either version 2 of the License, or
000008:                                                                                         	# (at your option) any later version.
000009:
000010:                                                                                         	# yaAGC is distributed in the hope that it will be useful,
000011:                                                                                         	# but WITHOUT ANY WARRANTY; without even the implied warranty of
000012:                                                                                         	# MERCHANTABILITY or FITNESS FOR A PARTICULAR PURPOSE.  See the
000013:                                                                                         	# GNU General Public License for more details.
000014:
000015:                                                                                         	# You should have received a copy of the GNU General Public License
000016:                                                                                         	# along with yaAGC; if not, write to the Free Software
000017:                                                                                         	# Foundation, Inc., 59 Temple Place, Suite 330, Boston, MA  02111-1307  USA
000018:
000019:                                                                                         	# Filename:	ValidateAD.agc
000020:                                                                                         	# Purpose:	This is the part of the Validation program that validates
000021:                                                                                         	#		just the AD instruction.
000022:                                                                                         	# Mod history:	07/05/04 RSB.	Began.
000023:
000024:    6252           24061                          INCR     ERRNUM                        	#
000025:
000026:                                                                                         	# First, just add a bunch of stuff and compare.
000027:                                                                                         	# We start with -3*12345 (octal) and add 12345
000028:                                                                                         	# until we reach 3*12345.
000029:    6253           37476                          CA       SMALNUM                       	#
000030:    6254           54065                          TS       TEMPK                         	# TEMPK is the addend.
000031:    6255           37477                          CA       SMALRNUM                      	#
000032:    6256           40000                          COM                                    	#
000033:    6257           54064                          TS       TEMPJ                         	# TEMPJ is the running sum.
000034:    6260           37426                          CA       FIVE                          	#
000035:    6261           24062                          INCR     ERRSUB                        	#
000036:    6262           54063        ADLOOP            TS       TEMPI                         	# TEMPI is loop counter.
000037:    6263           30064                          CA       TEMPJ                         	#
000038:    6264           60065                          AD       TEMPK                         	#
000039:    6265           54000                          OVSK                                   	# Should be no overflow.
000040:    6266           16270                          TCF      AD1                           	#
000041:    6267           16355                          TCF      MADERROR                      	# ERRSUB==1
000042:    6270           54064        AD1               TS       TEMPJ                         	#
000043:    6271           10063                          CCS      TEMPI                         	#
000044:    6272           16262                          TCF      ADLOOP                        	#
000045:                                                                                         	# Check if correct.
000046:    6273           24062                          INCR     ERRSUB                        	#
000047:    6274           30064                          CA       TEMPJ                         	#
000048:    6275           40000                          COM                                    	#
000049:    6276           67477                          AD       SMALRNUM                      	#
000050:    6277           00006                          EXTEND                                 	#
000051:    6300           16302                          BZF      AD2                           	#
000052:    6301           16355                          TCF      MADERROR                      	# ERRSUB==2
000053:    6302                        AD2                                                      	#
000054:
000055:                                                                                         	# Now check +- overflow.
000056:    6302           24062                          INCR     ERRSUB                        	#
000057:    6303           37436                          CA       MAXP                          	#
000058:    6304           67423                          AD       ONE                           	#
000059:    6305           54000                          OVSK                                   	#
000060:    6306           16355                          TCF      MADERROR                      	# ERRSUB==3
000061:    6307           24062                          INCR     ERRSUB                        	#
000062:    6310           54001                          TS       L                             	#
000063:    6311           16312                          NOOP                                   	#
000064:    6312           30001                          CA       L                             	#
000065:    6313           54063                          TS       TEMPI                         	#
000066:    6314           16315                          NOOP                                   	#
000067:    6315           10001                          CCS      L                             	#
000068:    6316           16322                          TCF      +4                            	#
000069:    6317           16355                          TCF      MADERROR                      	# ERRSUB==4
000070:    6320           16355                          TCF      MADERROR                      	#
000071:    6321           16355                          TCF      MADERROR                      	#
000072:    6322           24062                          INCR     ERRSUB                        	#
000073:    6323           10063                          CCS      TEMPI                         	#
000074:    6324           16355                          TCF      MADERROR                      	# ERRSUB==5
000075:    6325           16330                          TCF      +3                            	#
000076:    6326           16355                          TCF      MADERROR                      	#
000077:    6327           16355                          TCF      MADERROR                      	#
000078:    6330           24062        AD3               INCR     ERRSUB                        	#
000079:    6331           37442                          CA       MAXN                          	#
000080:    6332           67417                          AD       NEGONE                        	#
000081:    6333           54000                          OVSK                                   	#
000082:    6334           16355                          TCF      MADERROR                      	# ERRSUB==6
000083:    6335           24062                          INCR     ERRSUB                        	#
000084:    6336           54001                          TS       L                             	#
000085:    6337           16340                          NOOP                                   	#
000086:    6340           30001                          CA       L                             	#
000087:    6341           54063                          TS       TEMPI                         	#
000088:    6342           16343                          NOOP                                   	#
000089:    6343           10001                          CCS      L                             	#
000090:    6344           16345                          NOOP                                   	#
000091:    6345           16355                          TCF      MADERROR                      	#
000092:    6346           16350                          TCF      +2                            	#
000093:    6347           16355                          TCF      MADERROR                      	# ERRSUB==7
000094:    6350           10063                          CCS      TEMPI                         	#
000095:    6351           16352                          NOOP                                   	#
000096:    6352           16353                          NOOP                                   	#
000097:    6353           16355                          TCF      MADERROR                      	# ERRSUB==7
000098:
000099:                                                                                         	# We don't need to check "AD A", as this is checked
000100:                                                                                         	# for the DOUBLE instruction.
000101:
000102:    6354           16356                          TCF      +2                            	#
000103:    6355           07240        MADERROR          TC       ERRORDSP                      	#
000104:    6356           30007                          CA       ZEROES                        	#
000105:    6357           54062                          TS       ERRSUB                        	#
000106:
(End of include-file ValidateAD.agc, resuming Validation.agc)
000189:
000190:                                                                                         	#+++++++++++++++++++++++++++++++++++++++++++++++++++++++++
000191:                                                                                         	# Test 27:  check of MASK
000192: $ValidateMASK.agc
000001:                                                                                         	# Copyright 2004 Ronald S. Burkey <info@sandroid.org>
000002:                                                                                         	#
000003:                                                                                         	# This file is part of yaAGC.
000004:
000005:                                                                                         	# yaAGC is free software; you can redistribute it and/or modify
000006:                                                                                         	# it under the terms of the GNU General Public License as published by
000007:                                                                                         	# the Free Software Foundation; either version 2 of the License, or
000008:                                                                                         	# (at your option) any later version.
000009:
000010:                                                                                         	# yaAGC is distributed in the hope that it will be useful,
000011:                                                                                         	# but WITHOUT ANY WARRANTY; without even the implied warranty of
000012:                                                                                         	# MERCHANTABILITY or FITNESS FOR A PARTICULAR PURPOSE.  See the
000013:                                                                                         	# GNU General Public License for more details.
000014:
000015:                                                                                         	# You should have received a copy of the GNU General Public License
000016:                                                                                         	# along with yaAGC; if not, write to the Free Software
000017:                                                                                         	# Foundation, Inc., 59 Temple Place, Suite 330, Boston, MA  02111-1307  USA
000018:
000019:                                                                                         	# Filename:	ValidateMASK.agc
000020:                                                                                         	# Purpose:	This is the part of the Validation program that validates
000021:                                                                                         	#		just the MASK instruction.
000022:                                                                                         	# Mod history:	07/05/04 RSB.	Began.
000023:
000024:    6360           24061                          INCR     ERRNUM                        	#
000025:
000026:                                                                                         	# Just check a few values.
000027:    6361           24062                          INCR     ERRSUB                        	# 1
000028:    6362           37500                          CA       MASKL1                        	#
000029:    6363           77502                          MASK     MASKL2                        	#
000030:    6364           40000                          COM                                    	#
000031:    6365           67504                          AD       ANDL1L2                       	#
000032:    6366           00006                          EXTEND                                 	#
000033:    6367           16371                          BZF      MASK1                         	#
000034:    6370           16422                          TCF      VMSERROR                      	#
000035:    6371                        MASK1                                                    	#
000036:
000037:    6371           24062                          INCR     ERRSUB                        	# 2
000038:    6372           37500                          CA       MASKL1                        	#
000039:    6373           77503                          MASK     MASKR2                        	#
000040:    6374           40000                          COM                                    	#
000041:    6375           67505                          AD       ANDL1R2                       	#
000042:    6376           00006                          EXTEND                                 	#
000043:    6377           16401                          BZF      MASK2                         	#
000044:    6400           16422                          TCF      VMSERROR                      	#
000045:    6401                        MASK2                                                    	#
000046:
000047:    6401           24062                          INCR     ERRSUB                        	# 3
000048:    6402           37501                          CA       MASKR1                        	#
000049:    6403           77502                          MASK     MASKL2                        	#
000050:    6404           40000                          COM                                    	#
000051:    6405           67506                          AD       ANDR1L2                       	#
000052:    6406           00006                          EXTEND                                 	#
000053:    6407           16411                          BZF      MASK3                         	#
000054:    6410           16422                          TCF      VMSERROR                      	#
000055:    6411                        MASK3                                                    	#
000056:
000057:    6411           24062                          INCR     ERRSUB                        	# 4
000058:    6412           37501                          CA       MASKR1                        	#
000059:    6413           77503                          MASK     MASKR2                        	#
000060:    6414           40000                          COM                                    	#
000061:    6415           67507                          AD       ANDR1R2                       	#
000062:    6416           00006                          EXTEND                                 	#
000063:    6417           16421                          BZF      MASK4                         	#
000064:    6420           16422                          TCF      VMSERROR                      	#
000065:    6421                        MASK4                                                    	#
000066:
000067:    6421           16423                          TCF      +2                            	#
000068:    6422           07240        VMSERROR          TC       ERRORDSP                      	#
000069:    6423           30007                          CA       ZEROES                        	#
000070:    6424           54062                          TS       ERRSUB                        	#
000071:
(End of include-file ValidateMASK.agc, resuming Validation.agc)
000193:
000194:                                                                                         	#+++++++++++++++++++++++++++++++++++++++++++++++++++++++++
000195:                                                                                         	# Test 30:  check of READ, WRITE, etc.
000196: $ValidateIO.agc
000001:                                                                                         	# Copyright 2004 Ronald S. Burkey <info@sandroid.org>
000002:                                                                                         	#
000003:                                                                                         	# This file is part of yaAGC.
000004:
000005:                                                                                         	# yaAGC is free software; you can redistribute it and/or modify
000006:                                                                                         	# it under the terms of the GNU General Public License as published by
000007:                                                                                         	# the Free Software Foundation; either version 2 of the License, or
000008:                                                                                         	# (at your option) any later version.
000009:
000010:                                                                                         	# yaAGC is distributed in the hope that it will be useful,
000011:                                                                                         	# but WITHOUT ANY WARRANTY; without even the implied warranty of
000012:                                                                                         	# MERCHANTABILITY or FITNESS FOR A PARTICULAR PURPOSE.  See the
000013:                                                                                         	# GNU General Public License for more details.
000014:
000015:                                                                                         	# You should have received a copy of the GNU General Public License
000016:                                                                                         	# along with yaAGC; if not, write to the Free Software
000017:                                                                                         	# Foundation, Inc., 59 Temple Place, Suite 330, Boston, MA  02111-1307  USA
000018:
000019:                                                                                         	# Filename:	ValidateIO.agc
000020:                                                                                         	# Purpose:	This is the part of the Validation program that validates
000021:                                                                                         	#		just the i/o instructions like READ, WRITE, etc.
000022:                                                                                         	# Mod history:	07/05/04 RSB.	Began.
000023:
000024:                                                                                         	# There is no good way to test the i/o channel functions solely within the
000025:                                                                                         	# CPU, as both peripheral devices and user interaction are really required.
000026:                                                                                         	# We compromise (knowing that the CPU is virtual), and use the i/o channels
000027:                                                                                         	# 20-27 (octal), which are not used either in Colossus or Luminary.
000028:
000029:    6425           24061                          INCR     ERRNUM                        	#
000030:
000031:                                                                                         	# First check that L is channel 1 and Q is channel 2.
000032:                                                                                         	# Also, perform normal READs and WRITEs on channel 27.
000033:    6426           24062                          INCR     ERRSUB                        	# 1
000034:    6427           37430                          CA       TEN                           	#
000035:    6430           00006                          EXTEND                                 	#
000036:    6431           01001                          WRITE    L                             	#
000037:    6432           37426                          CA       FIVE                          	#
000038:    6433           00006                          EXTEND                                 	#
000039:    6434           01002                          WRITE    Q                             	#
000040:    6435           37427                          CA       NINE                          	#
000041:    6436           00006                          EXTEND                                 	#
000042:    6437           01027                          WRITE    CH27                          	#
000043:    6440           30001                          CA       L                             	#
000044:    6441           40000                          COM                                    	#
000045:    6442           67430                          AD       TEN                           	#
000046:    6443           00006                          EXTEND                                 	#
000047:    6444           16446                          BZF      IO1                           	#
000048:    6445           17162                          TCF      IOERROR                       	#
000049:    6446           24062        IO1               INCR     ERRSUB                        	# 2
000050:    6447           30002                          CA       Q                             	#
000051:    6450           40000                          COM                                    	#
000052:    6451           67426                          AD       FIVE                          	#
000053:    6452           00006                          EXTEND                                 	#
000054:    6453           16455                          BZF      IO2                           	#
000055:    6454           17162                          TCF      IOERROR                       	#
000056:    6455           24062        IO2               INCR     ERRSUB                        	# 3
000057:    6456           00006                          EXTEND                                 	#
000058:    6457           00001                          READ     L                             	#
000059:    6460           40000                          COM                                    	#
000060:    6461           67430                          AD       TEN                           	#
000061:    6462           00006                          EXTEND                                 	#
000062:    6463           16465                          BZF      IO3                           	#
000063:    6464           17162                          TCF      IOERROR                       	#
000064:    6465           24062        IO3               INCR     ERRSUB                        	# 4
000065:    6466           00006                          EXTEND                                 	#
000066:    6467           00002                          READ     Q                             	#
000067:    6470           40000                          COM                                    	#
000068:    6471           67426                          AD       FIVE                          	#
000069:    6472           00006                          EXTEND                                 	#
000070:    6473           16475                          BZF      IO4                           	#
000071:    6474           17162                          TCF      IOERROR                       	#
000072:    6475           24062        IO4               INCR     ERRSUB                        	# 5
000073:    6476           00006                          EXTEND                                 	#
000074:    6477           00027                          READ     CH27                          	#
000075:    6500           40000                          COM                                    	#
000076:    6501           67427                          AD       NINE                          	#
000077:    6502           00006                          EXTEND                                 	#
000078:    6503           16505                          BZF      IO5                           	#
000079:    6504           17162                          TCF      IOERROR                       	#
000080:    6505                        IO5                                                      	#
000081:
000082:                                                                                         	# Test RAND.
000083:    6505           24062                          INCR     ERRSUB                        	# 6
000084:    6506           37500                          CA       MASKL1                        	#
000085:    6507           00006                          EXTEND                                 	#
000086:    6510           01001                          WRITE    L                             	#
000087:    6511           37500                          CA       MASKL1                        	#
000088:    6512           00006                          EXTEND                                 	#
000089:    6513           01002                          WRITE    Q                             	#
000090:    6514           37501                          CA       MASKR1                        	#
000091:    6515           00006                          EXTEND                                 	#
000092:    6516           01026                          WRITE    CH26                          	#
000093:    6517           37501                          CA       MASKR1                        	#
000094:    6520           00006                          EXTEND                                 	#
000095:    6521           01027                          WRITE    CH27                          	#
000096:    6522           37502                          CA       MASKL2                        	#
000097:    6523           00006                          EXTEND                                 	#
000098:    6524           02001                          RAND     L                             	#
000099:    6525           40000                          COM                                    	#
000100:    6526           67504                          AD       ANDL1L2                       	#
000101:    6527           00006                          EXTEND                                 	#
000102:    6530           16532                          BZF      IO6A                          	#
000103:    6531           17162                          TCF      IOERROR                       	#
000104:    6532           24062        IO6A              INCR     ERRSUB                        	# 7
000105:    6533           37503                          CA       MASKR2                        	#
000106:    6534           00006                          EXTEND                                 	#
000107:    6535           02002                          RAND     Q                             	#
000108:    6536           40000                          COM                                    	#
000109:    6537           67505                          AD       ANDL1R2                       	#
000110:    6540           00006                          EXTEND                                 	#
000111:    6541           16543                          BZF      IO7A                          	#
000112:    6542           17162                          TCF      IOERROR                       	#
000113:    6543           24062        IO7A              INCR     ERRSUB                        	# 10 octal
000114:    6544           37502                          CA       MASKL2                        	#
000115:    6545           00006                          EXTEND                                 	#
000116:    6546           02026                          RAND     CH26                          	#
000117:    6547           40000                          COM                                    	#
000118:    6550           67506                          AD       ANDR1L2                       	#
000119:    6551           00006                          EXTEND                                 	#
000120:    6552           16554                          BZF      IO8A                          	#
000121:    6553           17162                          TCF      IOERROR                       	#
000122:    6554           24062        IO8A              INCR     ERRSUB                        	# 11
000123:    6555           37503                          CA       MASKR2                        	#
000124:    6556           00006                          EXTEND                                 	#
000125:    6557           02027                          RAND     CH27                          	#
000126:    6560           40000                          COM                                    	#
000127:    6561           67507                          AD       ANDR1R2                       	#
000128:    6562           00006                          EXTEND                                 	#
000129:    6563           16565                          BZF      IO9A                          	#
000130:    6564           17162                          TCF      IOERROR                       	#
000131:    6565                        IO9A                                                     	#
000132:
000133:                                                                                         	# Test ROR.
000134:    6565           24062                          INCR     ERRSUB                        	# 12
000135:    6566           37500                          CA       MASKL1                        	#
000136:    6567           00006                          EXTEND                                 	#
000137:    6570           01001                          WRITE    L                             	#
000138:    6571           37500                          CA       MASKL1                        	#
000139:    6572           00006                          EXTEND                                 	#
000140:    6573           01002                          WRITE    Q                             	#
000141:    6574           37501                          CA       MASKR1                        	#
000142:    6575           00006                          EXTEND                                 	#
000143:    6576           01026                          WRITE    CH26                          	#
000144:    6577           37501                          CA       MASKR1                        	#
000145:    6600           00006                          EXTEND                                 	#
000146:    6601           01027                          WRITE    CH27                          	#
000147:    6602           37502                          CA       MASKL2                        	#
000148:    6603           00006                          EXTEND                                 	#
000149:    6604           04001                          ROR      L                             	#
000150:    6605           40000                          COM                                    	#
000151:    6606           67510                          AD       ORL1L2                        	#
000152:    6607           00006                          EXTEND                                 	#
000153:    6610           16612                          BZF      IO6O                          	#
000154:    6611           17162                          TCF      IOERROR                       	#
000155:    6612           24062        IO6O              INCR     ERRSUB                        	# 13
000156:    6613           37503                          CA       MASKR2                        	#
000157:    6614           00006                          EXTEND                                 	#
000158:    6615           04002                          ROR      Q                             	#
000159:    6616           40000                          COM                                    	#
000160:    6617           67511                          AD       ORL1R2                        	#
000161:    6620           00006                          EXTEND                                 	#
000162:    6621           16623                          BZF      IO7O                          	#
000163:    6622           17162                          TCF      IOERROR                       	#
000164:    6623           24062        IO7O              INCR     ERRSUB                        	# 14
000165:    6624           37502                          CA       MASKL2                        	#
000166:    6625           00006                          EXTEND                                 	#
000167:    6626           04026                          ROR      CH26                          	#
000168:    6627           40000                          COM                                    	#
000169:    6630           67512                          AD       ORR1L2                        	#
000170:    6631           00006                          EXTEND                                 	#
000171:    6632           16634                          BZF      IO8O                          	#
000172:    6633           17162                          TCF      IOERROR                       	#
000173:    6634           24062        IO8O              INCR     ERRSUB                        	# 15
000174:    6635           37503                          CA       MASKR2                        	#
000175:    6636           00006                          EXTEND                                 	#
000176:    6637           04027                          ROR      CH27                          	#
000177:    6640           40000                          COM                                    	#
000178:    6641           67513                          AD       ORR1R2                        	#
000179:    6642           00006                          EXTEND                                 	#
000180:    6643           16645                          BZF      IO9O                          	#
000181:    6644           17162                          TCF      IOERROR                       	#
000182:    6645                        IO9O                                                     	#
000183:
000184:                                                                                         	# Test RXOR.
000185:    6645           24062                          INCR     ERRSUB                        	# 16
000186:    6646           37500                          CA       MASKL1                        	#
000187:    6647           00006                          EXTEND                                 	#
000188:    6650           01001                          WRITE    L                             	#
000189:    6651           37500                          CA       MASKL1                        	#
000190:    6652           00006                          EXTEND                                 	#
000191:    6653           01002                          WRITE    Q                             	#
000192:    6654           37501                          CA       MASKR1                        	#
000193:    6655           00006                          EXTEND                                 	#
000194:    6656           01026                          WRITE    CH26                          	#
000195:    6657           37501                          CA       MASKR1                        	#
000196:    6660           00006                          EXTEND                                 	#
000197:    6661           01027                          WRITE    CH27                          	#
000198:    6662           37502                          CA       MASKL2                        	#
000199:    6663           00006                          EXTEND                                 	#
000200:    6664           06001                          RXOR     L                             	#
000201:    6665           40000                          COM                                    	#
000202:    6666           67514                          AD       XORL1L2                       	#
000203:    6667           00006                          EXTEND                                 	#
000204:    6670           16672                          BZF      IO6X                          	#
000205:    6671           17162                          TCF      IOERROR                       	#
000206:    6672           24062        IO6X              INCR     ERRSUB                        	# 17
000207:    6673           37503                          CA       MASKR2                        	#
000208:    6674           00006                          EXTEND                                 	#
000209:    6675           06002                          RXOR     Q                             	#
000210:    6676           40000                          COM                                    	#
000211:    6677           67515                          AD       XORL1R2                       	#
000212:    6700           00006                          EXTEND                                 	#
000213:    6701           16703                          BZF      IO7X                          	#
000214:    6702           17162                          TCF      IOERROR                       	#
000215:    6703           24062        IO7X              INCR     ERRSUB                        	# 20 octal
000216:    6704           37502                          CA       MASKL2                        	#
000217:    6705           00006                          EXTEND                                 	#
000218:    6706           06026                          RXOR     CH26                          	#
000219:    6707           40000                          COM                                    	#
000220:    6710           67516                          AD       XORR1L2                       	#
000221:    6711           00006                          EXTEND                                 	#
000222:    6712           16714                          BZF      IO8X                          	#
000223:    6713           17162                          TCF      IOERROR                       	#
000224:    6714           24062        IO8X              INCR     ERRSUB                        	# 21
000225:    6715           37503                          CA       MASKR2                        	#
000226:    6716           00006                          EXTEND                                 	#
000227:    6717           06027                          RXOR     CH27                          	#
000228:    6720           40000                          COM                                    	#
000229:    6721           67517                          AD       XORR1R2                       	#
000230:    6722           00006                          EXTEND                                 	#
000231:    6723           16725                          BZF      IO9X                          	#
000232:    6724           17162                          TCF      IOERROR                       	#
000233:    6725                        IO9X                                                     	#
000234:
000235:                                                                                         	# Test WAND.
000236:    6725           24062                          INCR     ERRSUB                        	# 22
000237:    6726           37500                          CA       MASKL1                        	#
000238:    6727           00006                          EXTEND                                 	#
000239:    6730           01001                          WRITE    L                             	#
000240:    6731           37500                          CA       MASKL1                        	#
000241:    6732           00006                          EXTEND                                 	#
000242:    6733           01002                          WRITE    Q                             	#
000243:    6734           37501                          CA       MASKR1                        	#
000244:    6735           00006                          EXTEND                                 	#
000245:    6736           01026                          WRITE    CH26                          	#
000246:    6737           37501                          CA       MASKR1                        	#
000247:    6740           00006                          EXTEND                                 	#
000248:    6741           01027                          WRITE    CH27                          	#
000249:    6742           37502                          CA       MASKL2                        	#
000250:    6743           00006                          EXTEND                                 	#
000251:    6744           03001                          WAND     L                             	#
000252:    6745           40000                          COM                                    	#
000253:    6746           60001                          AD       L                             	#
000254:    6747           00006                          EXTEND                                 	#
000255:    6750           16752                          BZF      IO10A                         	#
000256:    6751           17162                          TCF      IOERROR                       	#
000257:    6752           24062        IO10A             INCR     ERRSUB                        	# 23
000258:    6753           37504                          CA       ANDL1L2                       	#
000259:    6754           40000                          COM                                    	#
000260:    6755           60001                          AD       L                             	#
000261:    6756           00006                          EXTEND                                 	#
000262:    6757           16761                          BZF      IO11A                         	#
000263:    6760           17162                          TCF      IOERROR                       	#
000264:    6761           24062        IO11A             INCR     ERRSUB                        	# 24
000265:    6762           37503                          CA       MASKR2                        	#
000266:    6763           00006                          EXTEND                                 	#
000267:    6764           03002                          WAND     Q                             	#
000268:    6765           40000                          COM                                    	#
000269:    6766           60002                          AD       Q                             	#
000270:    6767           00006                          EXTEND                                 	#
000271:    6770           16772                          BZF      IO12A                         	#
000272:    6771           17162                          TCF      IOERROR                       	#
000273:    6772           24062        IO12A             INCR     ERRSUB                        	# 25
000274:    6773           37505                          CA       ANDL1R2                       	#
000275:    6774           40000                          COM                                    	#
000276:    6775           60002                          AD       Q                             	#
000277:    6776           00006                          EXTEND                                 	#
000278:    6777           17001                          BZF      IO13A                         	#
000279:    7000           17162                          TCF      IOERROR                       	#
000280:    7001           24062        IO13A             INCR     ERRSUB                        	# 26
000281:    7002           37502                          CA       MASKL2                        	#
000282:    7003           00006                          EXTEND                                 	#
000283:    7004           03026                          WAND     CH26                          	#
000284:    7005           40000                          COM                                    	#
000285:    7006           67506                          AD       ANDR1L2                       	#
000286:    7007           00006                          EXTEND                                 	#
000287:    7010           17012                          BZF      IO14A                         	#
000288:    7011           17162                          TCF      IOERROR                       	#
000289:    7012           24062        IO14A             INCR     ERRSUB                        	# 27
000290:    7013           00006                          EXTEND                                 	#
000291:    7014           00026                          READ     CH26                          	#
000292:    7015           40000                          COM                                    	#
000293:    7016           67506                          AD       ANDR1L2                       	#
000294:    7017           00006                          EXTEND                                 	#
000295:    7020           17022                          BZF      IO15A                         	#
000296:    7021           17162                          TCF      IOERROR                       	#
000297:    7022           24062        IO15A             INCR     ERRSUB                        	# 30 octal
000298:    7023           37503                          CA       MASKR2                        	#
000299:    7024           00006                          EXTEND                                 	#
000300:    7025           03027                          WAND     CH27                          	#
000301:    7026           40000                          COM                                    	#
000302:    7027           67507                          AD       ANDR1R2                       	#
000303:    7030           00006                          EXTEND                                 	#
000304:    7031           17033                          BZF      IO16A                         	#
000305:    7032           17162                          TCF      IOERROR                       	#
000306:    7033           24062        IO16A             INCR     ERRSUB                        	# 31
000307:    7034           00006                          EXTEND                                 	#
000308:    7035           00027                          READ     CH27                          	#
000309:    7036           40000                          COM                                    	#
000310:    7037           67507                          AD       ANDR1R2                       	#
000311:    7040           00006                          EXTEND                                 	#
000312:    7041           17043                          BZF      IO17A                         	#
000313:    7042           17162                          TCF      IOERROR                       	#
000314:    7043                        IO17A                                                    	#
000315:
000316:                                                                                         	# Test WOR.
000317:    7043           24062                          INCR     ERRSUB                        	# 32
000318:    7044           37500                          CA       MASKL1                        	#
000319:    7045           00006                          EXTEND                                 	#
000320:    7046           01001                          WRITE    L                             	#
000321:    7047           37500                          CA       MASKL1                        	#
000322:    7050           00006                          EXTEND                                 	#
000323:    7051           01002                          WRITE    Q                             	#
000324:    7052           37501                          CA       MASKR1                        	#
000325:    7053           00006                          EXTEND                                 	#
000326:    7054           01026                          WRITE    CH26                          	#
000327:    7055           37501                          CA       MASKR1                        	#
000328:    7056           00006                          EXTEND                                 	#
000329:    7057           01027                          WRITE    CH27                          	#
000330:    7060           37502                          CA       MASKL2                        	#
000331:    7061           00006                          EXTEND                                 	#
000332:    7062           05001                          WOR      L                             	#
000333:    7063           40000                          COM                                    	#
000334:    7064           60001                          AD       L                             	#
000335:    7065           00006                          EXTEND                                 	#
000336:    7066           17070                          BZF      IO10O                         	#
000337:    7067           17162                          TCF      IOERROR                       	#
000338:    7070           24062        IO10O             INCR     ERRSUB                        	# 33
000339:    7071           37510                          CA       ORL1L2                        	#
000340:    7072           40000                          COM                                    	#
000341:    7073           60001                          AD       L                             	#
000342:    7074           00006                          EXTEND                                 	#
000343:    7075           17077                          BZF      IO11O                         	#
000344:    7076           17162                          TCF      IOERROR                       	#
000345:    7077           24062        IO11O             INCR     ERRSUB                        	# 34
000346:    7100           37503                          CA       MASKR2                        	#
000347:    7101           00006                          EXTEND                                 	#
000348:    7102           05002                          WOR      Q                             	#
000349:    7103           40000                          COM                                    	#
000350:    7104           60002                          AD       Q                             	#
000351:    7105           00006                          EXTEND                                 	#
000352:    7106           17110                          BZF      IO12O                         	#
000353:    7107           17162                          TCF      IOERROR                       	#
000354:    7110           24062        IO12O             INCR     ERRSUB                        	# 35
000355:    7111           37511                          CA       ORL1R2                        	#
000356:    7112           40000                          COM                                    	#
000357:    7113           60002                          AD       Q                             	#
000358:    7114           00006                          EXTEND                                 	#
000359:    7115           17117                          BZF      IO13O                         	#
000360:    7116           17162                          TCF      IOERROR                       	#
000361:    7117           24062        IO13O             INCR     ERRSUB                        	# 36
000362:    7120           37502                          CA       MASKL2                        	#
000363:    7121           00006                          EXTEND                                 	#
000364:    7122           05026                          WOR      CH26                          	#
000365:    7123           40000                          COM                                    	#
000366:    7124           67512                          AD       ORR1L2                        	#
000367:    7125           00006                          EXTEND                                 	#
000368:    7126           17130                          BZF      IO14O                         	#
000369:    7127           17162                          TCF      IOERROR                       	#
000370:    7130           24062        IO14O             INCR     ERRSUB                        	# 37
000371:    7131           00006                          EXTEND                                 	#
000372:    7132           00026                          READ     CH26                          	#
000373:    7133           40000                          COM                                    	#
000374:    7134           67512                          AD       ORR1L2                        	#
000375:    7135           00006                          EXTEND                                 	#
000376:    7136           17140                          BZF      IO15O                         	#
000377:    7137           17162                          TCF      IOERROR                       	#
000378:    7140           24062        IO15O             INCR     ERRSUB                        	# 40 octal
000379:    7141           37503                          CA       MASKR2                        	#
000380:    7142           00006                          EXTEND                                 	#
000381:    7143           05027                          WOR      CH27                          	#
000382:    7144           40000                          COM                                    	#
000383:    7145           67513                          AD       ORR1R2                        	#
000384:    7146           00006                          EXTEND                                 	#
000385:    7147           17151                          BZF      IO16O                         	#
000386:    7150           17162                          TCF      IOERROR                       	#
000387:    7151           24062        IO16O             INCR     ERRSUB                        	# 41
000388:    7152           00006                          EXTEND                                 	#
000389:    7153           00027                          READ     CH27                          	#
000390:    7154           40000                          COM                                    	#
000391:    7155           67513                          AD       ORR1R2                        	#
000392:    7156           00006                          EXTEND                                 	#
000393:    7157           17161                          BZF      IO17O                         	#
000394:    7160           17162                          TCF      IOERROR                       	#
000395:    7161                        IO17O                                                    	#
000396:
000397:                                                                                         	# Test EDRUPT.  (I believe it ... sure ... why not?)
000398:                                                                                         	# ... later ...
000399:
000400:                                                                                         	# All done!
000401:    7161           17163                          TCF      IODONE                        	#
000402:    7162           07240        IOERROR           TC       ERRORDSP                      	#
000403:    7163           30007        IODONE            CA       ZEROES                        	#
000404:    7164           54062                          TS       ERRSUB                        	#
000405:
000406:
(End of include-file ValidateIO.agc, resuming Validation.agc)
000197:
000198:                                                                                         	#+++++++++++++++++++++++++++++++++++++++++++++++++++++++++
000199:                                                                                         	# Test 31:  check of DV
000200: $ValidateDV.agc
000001:                                                                                         	# Copyright 2004 Ronald S. Burkey <info@sandroid.org>
000002:                                                                                         	#
000003:                                                                                         	# This file is part of yaAGC.
000004:
000005:                                                                                         	# yaAGC is free software; you can redistribute it and/or modify
000006:                                                                                         	# it under the terms of the GNU General Public License as published by
000007:                                                                                         	# the Free Software Foundation; either version 2 of the License, or
000008:                                                                                         	# (at your option) any later version.
000009:
000010:                                                                                         	# yaAGC is distributed in the hope that it will be useful,
000011:                                                                                         	# but WITHOUT ANY WARRANTY; without even the implied warranty of
000012:                                                                                         	# MERCHANTABILITY or FITNESS FOR A PARTICULAR PURPOSE.  See the
000013:                                                                                         	# GNU General Public License for more details.
000014:
000015:                                                                                         	# You should have received a copy of the GNU General Public License
000016:                                                                                         	# along with yaAGC; if not, write to the Free Software
000017:                                                                                         	# Foundation, Inc., 59 Temple Place, Suite 330, Boston, MA  02111-1307  USA
000018:
000019:                                                                                         	# Filename:	ValidateDV.agc
000020:                                                                                         	# Purpose:	This is the part of the Validation program that validates
000021:                                                                                         	#		just the DV instruction.
000022:                                                                                         	# Mod history:	07/05/04 RSB.	Began.
000023:
000024:    7165           24061                          INCR     ERRNUM                        	#
000025:
(End of include-file ValidateDV.agc, resuming Validation.agc)
000201:
000202:                                                                                         	#+++++++++++++++++++++++++++++++++++++++++++++++++++++++++
000203:                                                                                         	# Test 32:  check of BZF
000204: $ValidateBZF.agc
000001:                                                                                         	# Copyright 2004 Ronald S. Burkey <info@sandroid.org>
000002:                                                                                         	#
000003:                                                                                         	# This file is part of yaAGC.
000004:
000005:                                                                                         	# yaAGC is free software; you can redistribute it and/or modify
000006:                                                                                         	# it under the terms of the GNU General Public License as published by
000007:                                                                                         	# the Free Software Foundation; either version 2 of the License, or
000008:                                                                                         	# (at your option) any later version.
000009:
000010:                                                                                         	# yaAGC is distributed in the hope that it will be useful,
000011:                                                                                         	# but WITHOUT ANY WARRANTY; without even the implied warranty of
000012:                                                                                         	# MERCHANTABILITY or FITNESS FOR A PARTICULAR PURPOSE.  See the
000013:                                                                                         	# GNU General Public License for more details.
000014:
000015:                                                                                         	# You should have received a copy of the GNU General Public License
000016:                                                                                         	# along with yaAGC; if not, write to the Free Software
000017:                                                                                         	# Foundation, Inc., 59 Temple Place, Suite 330, Boston, MA  02111-1307  USA
000018:
000019:                                                                                         	# Filename:	ValidateBZF.agc
000020:                                                                                         	# Purpose:	This is the part of the Validation program that validates
000021:                                                                                         	#		just the BZF instruction.
000022:                                                                                         	# Mod history:	07/05/04 RSB.	Began.
000023:
000024:    7166           24061                          INCR     ERRNUM                        	#
000025:
(End of include-file ValidateBZF.agc, resuming Validation.agc)
000205:
000206:                                                                                         	#+++++++++++++++++++++++++++++++++++++++++++++++++++++++++
000207:                                                                                         	# Test 33:  check of MSU
000208: $ValidateMSU.agc
000001:                                                                                         	# Copyright 2004 Ronald S. Burkey <info@sandroid.org>
000002:                                                                                         	#
000003:                                                                                         	# This file is part of yaAGC.
000004:
000005:                                                                                         	# yaAGC is free software; you can redistribute it and/or modify
000006:                                                                                         	# it under the terms of the GNU General Public License as published by
000007:                                                                                         	# the Free Software Foundation; either version 2 of the License, or
000008:                                                                                         	# (at your option) any later version.
000009:
000010:                                                                                         	# yaAGC is distributed in the hope that it will be useful,
000011:                                                                                         	# but WITHOUT ANY WARRANTY; without even the implied warranty of
000012:                                                                                         	# MERCHANTABILITY or FITNESS FOR A PARTICULAR PURPOSE.  See the
000013:                                                                                         	# GNU General Public License for more details.
000014:
000015:                                                                                         	# You should have received a copy of the GNU General Public License
000016:                                                                                         	# along with yaAGC; if not, write to the Free Software
000017:                                                                                         	# Foundation, Inc., 59 Temple Place, Suite 330, Boston, MA  02111-1307  USA
000018:
000019:                                                                                         	# Filename:	ValidateMSU.agc
000020:                                                                                         	# Purpose:	This is the part of the Validation program that validates
000021:                                                                                         	#		just the MSU instruction.
000022:                                                                                         	# Mod history:	07/05/04 RSB.	Began.
000023:
000024:    7167           24061                          INCR     ERRNUM                        	#
000025:
(End of include-file ValidateMSU.agc, resuming Validation.agc)
000209:
000210:                                                                                         	#+++++++++++++++++++++++++++++++++++++++++++++++++++++++++
000211:                                                                                         	# Test 34:  check of QXCH
000212: $ValidateQXCH.agc
000001:                                                                                         	# Copyright 2004 Ronald S. Burkey <info@sandroid.org>
000002:                                                                                         	#
000003:                                                                                         	# This file is part of yaAGC.
000004:
000005:                                                                                         	# yaAGC is free software; you can redistribute it and/or modify
000006:                                                                                         	# it under the terms of the GNU General Public License as published by
000007:                                                                                         	# the Free Software Foundation; either version 2 of the License, or
000008:                                                                                         	# (at your option) any later version.
000009:
000010:                                                                                         	# yaAGC is distributed in the hope that it will be useful,
000011:                                                                                         	# but WITHOUT ANY WARRANTY; without even the implied warranty of
000012:                                                                                         	# MERCHANTABILITY or FITNESS FOR A PARTICULAR PURPOSE.  See the
000013:                                                                                         	# GNU General Public License for more details.
000014:
000015:                                                                                         	# You should have received a copy of the GNU General Public License
000016:                                                                                         	# along with yaAGC; if not, write to the Free Software
000017:                                                                                         	# Foundation, Inc., 59 Temple Place, Suite 330, Boston, MA  02111-1307  USA
000018:
000019:                                                                                         	# Filename:	ValidateQXCH.agc
000020:                                                                                         	# Purpose:	This is the part of the Validation program that validates
000021:                                                                                         	#		just the QXCH instruction.
000022:                                                                                         	# Mod history:	07/05/04 RSB.	Began.
000023:
000024:    7170           24061                          INCR     ERRNUM                        	#
000025:
(End of include-file ValidateQXCH.agc, resuming Validation.agc)
000213:
000214:                                                                                         	#+++++++++++++++++++++++++++++++++++++++++++++++++++++++++
000215:                                                                                         	# Test 35:  check of AUG
000216: $ValidateAUG.agc
000001:                                                                                         	# Copyright 2004 Ronald S. Burkey <info@sandroid.org>
000002:                                                                                         	#
000003:                                                                                         	# This file is part of yaAGC.
000004:
000005:                                                                                         	# yaAGC is free software; you can redistribute it and/or modify
000006:                                                                                         	# it under the terms of the GNU General Public License as published by
000007:                                                                                         	# the Free Software Foundation; either version 2 of the License, or
000008:                                                                                         	# (at your option) any later version.
000009:
000010:                                                                                         	# yaAGC is distributed in the hope that it will be useful,
000011:                                                                                         	# but WITHOUT ANY WARRANTY; without even the implied warranty of
000012:                                                                                         	# MERCHANTABILITY or FITNESS FOR A PARTICULAR PURPOSE.  See the
000013:                                                                                         	# GNU General Public License for more details.
000014:
000015:                                                                                         	# You should have received a copy of the GNU General Public License
000016:                                                                                         	# along with yaAGC; if not, write to the Free Software
000017:                                                                                         	# Foundation, Inc., 59 Temple Place, Suite 330, Boston, MA  02111-1307  USA
000018:
000019:                                                                                         	# Filename:	ValidateAUG.agc
000020:                                                                                         	# Purpose:	This is the part of the Validation program that validates
000021:                                                                                         	#		just the AUG instruction.
000022:                                                                                         	# Mod history:	07/05/04 RSB.	Began.
000023:
000024:    7171           24061                          INCR     ERRNUM                        	#
000025:
(End of include-file ValidateAUG.agc, resuming Validation.agc)
000217:
000218:                                                                                         	#+++++++++++++++++++++++++++++++++++++++++++++++++++++++++
000219:                                                                                         	# Test 36:  check of DIM
000220: $ValidateDIM.agc
000001:                                                                                         	# Copyright 2004 Ronald S. Burkey <info@sandroid.org>
000002:                                                                                         	#
000003:                                                                                         	# This file is part of yaAGC.
000004:
000005:                                                                                         	# yaAGC is free software; you can redistribute it and/or modify
000006:                                                                                         	# it under the terms of the GNU General Public License as published by
000007:                                                                                         	# the Free Software Foundation; either version 2 of the License, or
000008:                                                                                         	# (at your option) any later version.
000009:
000010:                                                                                         	# yaAGC is distributed in the hope that it will be useful,
000011:                                                                                         	# but WITHOUT ANY WARRANTY; without even the implied warranty of
000012:                                                                                         	# MERCHANTABILITY or FITNESS FOR A PARTICULAR PURPOSE.  See the
000013:                                                                                         	# GNU General Public License for more details.
000014:
000015:                                                                                         	# You should have received a copy of the GNU General Public License
000016:                                                                                         	# along with yaAGC; if not, write to the Free Software
000017:                                                                                         	# Foundation, Inc., 59 Temple Place, Suite 330, Boston, MA  02111-1307  USA
000018:
000019:                                                                                         	# Filename:	ValidateDIM.agc
000020:                                                                                         	# Purpose:	This is the part of the Validation program that validates
000021:                                                                                         	#		just the DIM instruction.
000022:                                                                                         	# Mod history:	07/05/04 RSB.	Began.
000023:
000024:    7172           24061                          INCR     ERRNUM                        	#
000025:
(End of include-file ValidateDIM.agc, resuming Validation.agc)
000221:
000222:                                                                                         	#+++++++++++++++++++++++++++++++++++++++++++++++++++++++++
000223:                                                                                         	# Test 37:  check of DCA
000224: $ValidateDCA.agc
000001:                                                                                         	# Copyright 2004 Ronald S. Burkey <info@sandroid.org>
000002:                                                                                         	#
000003:                                                                                         	# This file is part of yaAGC.
000004:
000005:                                                                                         	# yaAGC is free software; you can redistribute it and/or modify
000006:                                                                                         	# it under the terms of the GNU General Public License as published by
000007:                                                                                         	# the Free Software Foundation; either version 2 of the License, or
000008:                                                                                         	# (at your option) any later version.
000009:
000010:                                                                                         	# yaAGC is distributed in the hope that it will be useful,
000011:                                                                                         	# but WITHOUT ANY WARRANTY; without even the implied warranty of
000012:                                                                                         	# MERCHANTABILITY or FITNESS FOR A PARTICULAR PURPOSE.  See the
000013:                                                                                         	# GNU General Public License for more details.
000014:
000015:                                                                                         	# You should have received a copy of the GNU General Public License
000016:                                                                                         	# along with yaAGC; if not, write to the Free Software
000017:                                                                                         	# Foundation, Inc., 59 Temple Place, Suite 330, Boston, MA  02111-1307  USA
000018:
000019:                                                                                         	# Filename:	ValidateDCA.agc
000020:                                                                                         	# Purpose:	This is the part of the Validation program that validates
000021:                                                                                         	#		just the DCA instruction.
000022:                                                                                         	# Mod history:	07/05/04 RSB.	Began.
000023:
000024:    7173           24061                          INCR     ERRNUM                        	#
000025:
(End of include-file ValidateDCA.agc, resuming Validation.agc)
000225:
000226:                                                                                         	#+++++++++++++++++++++++++++++++++++++++++++++++++++++++++
000227:                                                                                         	# Test 40:  check of DCS
000228: $ValidateDCS.agc
000001:                                                                                         	# Copyright 2004 Ronald S. Burkey <info@sandroid.org>
000002:                                                                                         	#
000003:                                                                                         	# This file is part of yaAGC.
000004:
000005:                                                                                         	# yaAGC is free software; you can redistribute it and/or modify
000006:                                                                                         	# it under the terms of the GNU General Public License as published by
000007:                                                                                         	# the Free Software Foundation; either version 2 of the License, or
000008:                                                                                         	# (at your option) any later version.
000009:
000010:                                                                                         	# yaAGC is distributed in the hope that it will be useful,
000011:                                                                                         	# but WITHOUT ANY WARRANTY; without even the implied warranty of
000012:                                                                                         	# MERCHANTABILITY or FITNESS FOR A PARTICULAR PURPOSE.  See the
000013:                                                                                         	# GNU General Public License for more details.
000014:
000015:                                                                                         	# You should have received a copy of the GNU General Public License
000016:                                                                                         	# along with yaAGC; if not, write to the Free Software
000017:                                                                                         	# Foundation, Inc., 59 Temple Place, Suite 330, Boston, MA  02111-1307  USA
000018:
000019:                                                                                         	# Filename:	ValidateDCS.agc
000020:                                                                                         	# Purpose:	This is the part of the Validation program that validates
000021:                                                                                         	#		just the DCS instruction.
000022:                                                                                         	# Mod history:	07/05/04 RSB.	Began.
000023:
000024:    7174           24061                          INCR     ERRNUM                        	#
000025:
(End of include-file ValidateDCS.agc, resuming Validation.agc)
000229:
000230:                                                                                         	#+++++++++++++++++++++++++++++++++++++++++++++++++++++++++
000231:                                                                                         	# Test 41:  check of SU
000232: $ValidateSU.agc
000001:                                                                                         	# Copyright 2004 Ronald S. Burkey <info@sandroid.org>
000002:                                                                                         	#
000003:                                                                                         	# This file is part of yaAGC.
000004:
000005:                                                                                         	# yaAGC is free software; you can redistribute it and/or modify
000006:                                                                                         	# it under the terms of the GNU General Public License as published by
000007:                                                                                         	# the Free Software Foundation; either version 2 of the License, or
000008:                                                                                         	# (at your option) any later version.
000009:
000010:                                                                                         	# yaAGC is distributed in the hope that it will be useful,
000011:                                                                                         	# but WITHOUT ANY WARRANTY; without even the implied warranty of
000012:                                                                                         	# MERCHANTABILITY or FITNESS FOR A PARTICULAR PURPOSE.  See the
000013:                                                                                         	# GNU General Public License for more details.
000014:
000015:                                                                                         	# You should have received a copy of the GNU General Public License
000016:                                                                                         	# along with yaAGC; if not, write to the Free Software
000017:                                                                                         	# Foundation, Inc., 59 Temple Place, Suite 330, Boston, MA  02111-1307  USA
000018:
000019:                                                                                         	# Filename:	ValidateSU.agc
000020:                                                                                         	# Purpose:	This is the part of the Validation program that validates
000021:                                                                                         	#		just the SU instruction.
000022:                                                                                         	# Mod history:	07/05/04 RSB.	Began.
000023:
000024:    7175           24061                          INCR     ERRNUM                        	#
000025:
(End of include-file ValidateSU.agc, resuming Validation.agc)
000233:
000234:                                                                                         	#+++++++++++++++++++++++++++++++++++++++++++++++++++++++++
000235:                                                                                         	# Test 42:  check of BZMF
000236: $ValidateBZMF.agc
000001:                                                                                         	# Copyright 2004 Ronald S. Burkey <info@sandroid.org>
000002:                                                                                         	#
000003:                                                                                         	# This file is part of yaAGC.
000004:
000005:                                                                                         	# yaAGC is free software; you can redistribute it and/or modify
000006:                                                                                         	# it under the terms of the GNU General Public License as published by
000007:                                                                                         	# the Free Software Foundation; either version 2 of the License, or
000008:                                                                                         	# (at your option) any later version.
000009:
000010:                                                                                         	# yaAGC is distributed in the hope that it will be useful,
000011:                                                                                         	# but WITHOUT ANY WARRANTY; without even the implied warranty of
000012:                                                                                         	# MERCHANTABILITY or FITNESS FOR A PARTICULAR PURPOSE.  See the
000013:                                                                                         	# GNU General Public License for more details.
000014:
000015:                                                                                         	# You should have received a copy of the GNU General Public License
000016:                                                                                         	# along with yaAGC; if not, write to the Free Software
000017:                                                                                         	# Foundation, Inc., 59 Temple Place, Suite 330, Boston, MA  02111-1307  USA
000018:
000019:                                                                                         	# Filename:	ValidateBZMF.agc
000020:                                                                                         	# Purpose:	This is the part of the Validation program that validates
000021:                                                                                         	#		just the BZMF instruction.
000022:                                                                                         	# Mod history:	07/05/04 RSB.	Began.
000023:
000024:    7176           24061                          INCR     ERRNUM                        	#
000025:
(End of include-file ValidateBZMF.agc, resuming Validation.agc)
000237:
000238:                                                                                         	#+++++++++++++++++++++++++++++++++++++++++++++++++++++++++
000239:                                                                                         	# Test 43:  check of MP
000240: $ValidateMP.agc
000001:                                                                                         	# Copyright 2004 Ronald S. Burkey <info@sandroid.org>
000002:                                                                                         	#
000003:                                                                                         	# This file is part of yaAGC.
000004:
000005:                                                                                         	# yaAGC is free software; you can redistribute it and/or modify
000006:                                                                                         	# it under the terms of the GNU General Public License as published by
000007:                                                                                         	# the Free Software Foundation; either version 2 of the License, or
000008:                                                                                         	# (at your option) any later version.
000009:
000010:                                                                                         	# yaAGC is distributed in the hope that it will be useful,
000011:                                                                                         	# but WITHOUT ANY WARRANTY; without even the implied warranty of
000012:                                                                                         	# MERCHANTABILITY or FITNESS FOR A PARTICULAR PURPOSE.  See the
000013:                                                                                         	# GNU General Public License for more details.
000014:
000015:                                                                                         	# You should have received a copy of the GNU General Public License
000016:                                                                                         	# along with yaAGC; if not, write to the Free Software
000017:                                                                                         	# Foundation, Inc., 59 Temple Place, Suite 330, Boston, MA  02111-1307  USA
000018:
000019:                                                                                         	# Filename:	ValidateMP.agc
000020:                                                                                         	# Purpose:	This is the part of the Validation program that validates
000021:                                                                                         	#		just the MP instruction.
000022:                                                                                         	# Mod history:	07/05/04 RSB.	Began.
000023:
000024:    7177           24061                          INCR     ERRNUM                        	#
000025:
(End of include-file ValidateMP.agc, resuming Validation.agc)
000241:
000242:                                                                                         	#+++++++++++++++++++++++++++++++++++++++++++++++++++++++++
000243:                                                                                         	# Test 44:  check of XXALQ, XLQ
000244: $ValidateX.agc
000001:                                                                                         	# Copyright 2004 Ronald S. Burkey <info@sandroid.org>
000002:                                                                                         	#
000003:                                                                                         	# This file is part of yaAGC.
000004:
000005:                                                                                         	# yaAGC is free software; you can redistribute it and/or modify
000006:                                                                                         	# it under the terms of the GNU General Public License as published by
000007:                                                                                         	# the Free Software Foundation; either version 2 of the License, or
000008:                                                                                         	# (at your option) any later version.
000009:
000010:                                                                                         	# yaAGC is distributed in the hope that it will be useful,
000011:                                                                                         	# but WITHOUT ANY WARRANTY; without even the implied warranty of
000012:                                                                                         	# MERCHANTABILITY or FITNESS FOR A PARTICULAR PURPOSE.  See the
000013:                                                                                         	# GNU General Public License for more details.
000014:
000015:                                                                                         	# You should have received a copy of the GNU General Public License
000016:                                                                                         	# along with yaAGC; if not, write to the Free Software
000017:                                                                                         	# Foundation, Inc., 59 Temple Place, Suite 330, Boston, MA  02111-1307  USA
000018:
000019:                                                                                         	# Filename:	ValidateX.agc
000020:                                                                                         	# Purpose:	This is the part of the Validation program that validates
000021:                                                                                         	#		just the XXALQ AND XLQ instructions.
000022:                                                                                         	# Mod history:	07/05/04 RSB.	Began.
000023:
000024:    7200           24061                          INCR     ERRNUM                        	#
000025:
(End of include-file ValidateX.agc, resuming Validation.agc)
000245:
000246:                                                                                         	#+++++++++++++++++++++++++++++++++++++++++++++++++++++++++
000247:                                                                                         	# Test 45:  check of RETURN
000248:    7201           24061                          INCR     ERRNUM                        	#
000249:                                                                                         	# ... later ...
000250:
000251:                                                                                         	#+++++++++++++++++++++++++++++++++++++++++++++++++++++++++
000252:                                                                                         	# Test 46:  check of NOOP
000253: $ValidateNOOP.agc
000001:                                                                                         	# Copyright 2004 Ronald S. Burkey <info@sandroid.org>
000002:                                                                                         	#
000003:                                                                                         	# This file is part of yaAGC.
000004:
000005:                                                                                         	# yaAGC is free software; you can redistribute it and/or modify
000006:                                                                                         	# it under the terms of the GNU General Public License as published by
000007:                                                                                         	# the Free Software Foundation; either version 2 of the License, or
000008:                                                                                         	# (at your option) any later version.
000009:
000010:                                                                                         	# yaAGC is distributed in the hope that it will be useful,
000011:                                                                                         	# but WITHOUT ANY WARRANTY; without even the implied warranty of
000012:                                                                                         	# MERCHANTABILITY or FITNESS FOR A PARTICULAR PURPOSE.  See the
000013:                                                                                         	# GNU General Public License for more details.
000014:
000015:                                                                                         	# You should have received a copy of the GNU General Public License
000016:                                                                                         	# along with yaAGC; if not, write to the Free Software
000017:                                                                                         	# Foundation, Inc., 59 Temple Place, Suite 330, Boston, MA  02111-1307  USA
000018:
000019:                                                                                         	# Filename:	ValidateNOOP.agc
000020:                                                                                         	# Purpose:	This is the part of the Validation program that validates
000021:                                                                                         	#		just the NOOP instruction.
000022:                                                                                         	# Mod history:	07/05/04 RSB.	Began.
000023:
000024:    7202           24061                          INCR     ERRNUM                        	#
000025:
(End of include-file ValidateNOOP.agc, resuming Validation.agc)
000254:
000255:                                                                                         	#+++++++++++++++++++++++++++++++++++++++++++++++++++++++++
000256:                                                                                         	# Test 47:  check of DDOUBL
000257: $ValidateDDOUBL.agc
000001:                                                                                         	# Copyright 2004 Ronald S. Burkey <info@sandroid.org>
000002:                                                                                         	#
000003:                                                                                         	# This file is part of yaAGC.
000004:
000005:                                                                                         	# yaAGC is free software; you can redistribute it and/or modify
000006:                                                                                         	# it under the terms of the GNU General Public License as published by
000007:                                                                                         	# the Free Software Foundation; either version 2 of the License, or
000008:                                                                                         	# (at your option) any later version.
000009:
000010:                                                                                         	# yaAGC is distributed in the hope that it will be useful,
000011:                                                                                         	# but WITHOUT ANY WARRANTY; without even the implied warranty of
000012:                                                                                         	# MERCHANTABILITY or FITNESS FOR A PARTICULAR PURPOSE.  See the
000013:                                                                                         	# GNU General Public License for more details.
000014:
000015:                                                                                         	# You should have received a copy of the GNU General Public License
000016:                                                                                         	# along with yaAGC; if not, write to the Free Software
000017:                                                                                         	# Foundation, Inc., 59 Temple Place, Suite 330, Boston, MA  02111-1307  USA
000018:
000019:                                                                                         	# Filename:	ValidateDDOUBL.agc
000020:                                                                                         	# Purpose:	This is the part of the Validation program that validates
000021:                                                                                         	#		just the DDOUBL instruction.
000022:                                                                                         	# Mod history:	07/05/04 RSB.	Began.
000023:
000024:    7203           24061                          INCR     ERRNUM                        	#
000025:
(End of include-file ValidateDDOUBL.agc, resuming Validation.agc)
000258:
000259:                                                                                         	#+++++++++++++++++++++++++++++++++++++++++++++++++++++++++
000260:                                                                                         	# Test 50:  check of ZL, ZQ
000261: $ValidateZX.agc
000001:                                                                                         	# Copyright 2004 Ronald S. Burkey <info@sandroid.org>
000002:                                                                                         	#
000003:                                                                                         	# This file is part of yaAGC.
000004:
000005:                                                                                         	# yaAGC is free software; you can redistribute it and/or modify
000006:                                                                                         	# it under the terms of the GNU General Public License as published by
000007:                                                                                         	# the Free Software Foundation; either version 2 of the License, or
000008:                                                                                         	# (at your option) any later version.
000009:
000010:                                                                                         	# yaAGC is distributed in the hope that it will be useful,
000011:                                                                                         	# but WITHOUT ANY WARRANTY; without even the implied warranty of
000012:                                                                                         	# MERCHANTABILITY or FITNESS FOR A PARTICULAR PURPOSE.  See the
000013:                                                                                         	# GNU General Public License for more details.
000014:
000015:                                                                                         	# You should have received a copy of the GNU General Public License
000016:                                                                                         	# along with yaAGC; if not, write to the Free Software
000017:                                                                                         	# Foundation, Inc., 59 Temple Place, Suite 330, Boston, MA  02111-1307  USA
000018:
000019:                                                                                         	# Filename:	ValidateZX.agc
000020:                                                                                         	# Purpose:	This is the part of the Validation program that validates
000021:                                                                                         	#		just the ZL and ZQ instructions.
000022:                                                                                         	# Mod history:	07/05/04 RSB.	Began.
000023:
000024:    7204           24061                          INCR     ERRNUM                        	#
000025:
(End of include-file ValidateZX.agc, resuming Validation.agc)
000262:
000263:                                                                                         	#+++++++++++++++++++++++++++++++++++++++++++++++++++++++++
000264:                                                                                         	# Test 51:  check of COM
000265: $ValidateCOM.agc
000001:                                                                                         	# Copyright 2004 Ronald S. Burkey <info@sandroid.org>
000002:                                                                                         	#
000003:                                                                                         	# This file is part of yaAGC.
000004:
000005:                                                                                         	# yaAGC is free software; you can redistribute it and/or modify
000006:                                                                                         	# it under the terms of the GNU General Public License as published by
000007:                                                                                         	# the Free Software Foundation; either version 2 of the License, or
000008:                                                                                         	# (at your option) any later version.
000009:
000010:                                                                                         	# yaAGC is distributed in the hope that it will be useful,
000011:                                                                                         	# but WITHOUT ANY WARRANTY; without even the implied warranty of
000012:                                                                                         	# MERCHANTABILITY or FITNESS FOR A PARTICULAR PURPOSE.  See the
000013:                                                                                         	# GNU General Public License for more details.
000014:
000015:                                                                                         	# You should have received a copy of the GNU General Public License
000016:                                                                                         	# along with yaAGC; if not, write to the Free Software
000017:                                                                                         	# Foundation, Inc., 59 Temple Place, Suite 330, Boston, MA  02111-1307  USA
000018:
000019:                                                                                         	# Filename:	ValidateCOM.agc
000020:                                                                                         	# Purpose:	This is the part of the Validation program that validates
000021:                                                                                         	#		just the COM instruction.
000022:                                                                                         	# Mod history:	07/05/04 RSB.	Began.
000023:
000024:    7205           24061                          INCR     ERRNUM                        	#
000025:
(End of include-file ValidateCOM.agc, resuming Validation.agc)
000266:
000267:                                                                                         	#+++++++++++++++++++++++++++++++++++++++++++++++++++++++++
000268:                                                                                         	# Test 52:  check of OVSK
000269: $ValidateOVSK.agc
000001:                                                                                         	# Copyright 2004 Ronald S. Burkey <info@sandroid.org>
000002:                                                                                         	#
000003:                                                                                         	# This file is part of yaAGC.
000004:
000005:                                                                                         	# yaAGC is free software; you can redistribute it and/or modify
000006:                                                                                         	# it under the terms of the GNU General Public License as published by
000007:                                                                                         	# the Free Software Foundation; either version 2 of the License, or
000008:                                                                                         	# (at your option) any later version.
000009:
000010:                                                                                         	# yaAGC is distributed in the hope that it will be useful,
000011:                                                                                         	# but WITHOUT ANY WARRANTY; without even the implied warranty of
000012:                                                                                         	# MERCHANTABILITY or FITNESS FOR A PARTICULAR PURPOSE.  See the
000013:                                                                                         	# GNU General Public License for more details.
000014:
000015:                                                                                         	# You should have received a copy of the GNU General Public License
000016:                                                                                         	# along with yaAGC; if not, write to the Free Software
000017:                                                                                         	# Foundation, Inc., 59 Temple Place, Suite 330, Boston, MA  02111-1307  USA
000018:
000019:                                                                                         	# Filename:	ValidateOVSK.agc
000020:                                                                                         	# Purpose:	This is the part of the Validation program that validates
000021:                                                                                         	#		just the OVSK instruction.
000022:                                                                                         	# Mod history:	07/05/04 RSB.	Began.
000023:
000024:    7206           24061                          INCR     ERRNUM                        	#
000025:
(End of include-file ValidateOVSK.agc, resuming Validation.agc)
000270:
000271:                                                                                         	#+++++++++++++++++++++++++++++++++++++++++++++++++++++++++
000272:                                                                                         	# Test 53:  check of TCAA
000273: $ValidateTCAA.agc
000001:                                                                                         	# Copyright 2004 Ronald S. Burkey <info@sandroid.org>
000002:                                                                                         	#
000003:                                                                                         	# This file is part of yaAGC.
000004:
000005:                                                                                         	# yaAGC is free software; you can redistribute it and/or modify
000006:                                                                                         	# it under the terms of the GNU General Public License as published by
000007:                                                                                         	# the Free Software Foundation; either version 2 of the License, or
000008:                                                                                         	# (at your option) any later version.
000009:
000010:                                                                                         	# yaAGC is distributed in the hope that it will be useful,
000011:                                                                                         	# but WITHOUT ANY WARRANTY; without even the implied warranty of
000012:                                                                                         	# MERCHANTABILITY or FITNESS FOR A PARTICULAR PURPOSE.  See the
000013:                                                                                         	# GNU General Public License for more details.
000014:
000015:                                                                                         	# You should have received a copy of the GNU General Public License
000016:                                                                                         	# along with yaAGC; if not, write to the Free Software
000017:                                                                                         	# Foundation, Inc., 59 Temple Place, Suite 330, Boston, MA  02111-1307  USA
000018:
000019:                                                                                         	# Filename:	ValidateTCAA.agc
000020:                                                                                         	# Purpose:	This is the part of the Validation program that validates
000021:                                                                                         	#		just the TCAA instruction.
000022:                                                                                         	# Mod history:	07/05/04 RSB.	Began.
000023:
000024:    7207           24061                          INCR     ERRNUM                        	#
000025:
(End of include-file ValidateTCAA.agc, resuming Validation.agc)
000274:
000275:                                                                                         	#+++++++++++++++++++++++++++++++++++++++++++++++++++++++++
000276:                                                                                         	# Test 54:  check of DOUBLE
000277: $ValidateDOUBLE.agc
000001:                                                                                         	# Copyright 2004 Ronald S. Burkey <info@sandroid.org>
000002:                                                                                         	#
000003:                                                                                         	# This file is part of yaAGC.
000004:
000005:                                                                                         	# yaAGC is free software; you can redistribute it and/or modify
000006:                                                                                         	# it under the terms of the GNU General Public License as published by
000007:                                                                                         	# the Free Software Foundation; either version 2 of the License, or
000008:                                                                                         	# (at your option) any later version.
000009:
000010:                                                                                         	# yaAGC is distributed in the hope that it will be useful,
000011:                                                                                         	# but WITHOUT ANY WARRANTY; without even the implied warranty of
000012:                                                                                         	# MERCHANTABILITY or FITNESS FOR A PARTICULAR PURPOSE.  See the
000013:                                                                                         	# GNU General Public License for more details.
000014:
000015:                                                                                         	# You should have received a copy of the GNU General Public License
000016:                                                                                         	# along with yaAGC; if not, write to the Free Software
000017:                                                                                         	# Foundation, Inc., 59 Temple Place, Suite 330, Boston, MA  02111-1307  USA
000018:
000019:                                                                                         	# Filename:	ValidateDOUBLE.agc
000020:                                                                                         	# Purpose:	This is the part of the Validation program that validates
000021:                                                                                         	#		just the DOUBLE instruction.
000022:                                                                                         	# Mod history:	07/05/04 RSB.	Began.
000023:
000024:    7210           24061                          INCR     ERRNUM                        	#
000025:
(End of include-file ValidateDOUBLE.agc, resuming Validation.agc)
000278:
000279:                                                                                         	#+++++++++++++++++++++++++++++++++++++++++++++++++++++++++
000280:                                                                                         	# Test 55:  check of DCOM
000281: $ValidateDCOM.agc
000001:                                                                                         	# Copyright 2004 Ronald S. Burkey <info@sandroid.org>
000002:                                                                                         	#
000003:                                                                                         	# This file is part of yaAGC.
000004:
000005:                                                                                         	# yaAGC is free software; you can redistribute it and/or modify
000006:                                                                                         	# it under the terms of the GNU General Public License as published by
000007:                                                                                         	# the Free Software Foundation; either version 2 of the License, or
000008:                                                                                         	# (at your option) any later version.
000009:
000010:                                                                                         	# yaAGC is distributed in the hope that it will be useful,
000011:                                                                                         	# but WITHOUT ANY WARRANTY; without even the implied warranty of
000012:                                                                                         	# MERCHANTABILITY or FITNESS FOR A PARTICULAR PURPOSE.  See the
000013:                                                                                         	# GNU General Public License for more details.
000014:
000015:                                                                                         	# You should have received a copy of the GNU General Public License
000016:                                                                                         	# along with yaAGC; if not, write to the Free Software
000017:                                                                                         	# Foundation, Inc., 59 Temple Place, Suite 330, Boston, MA  02111-1307  USA
000018:
000019:                                                                                         	# Filename:	ValidateDCOM.agc
000020:                                                                                         	# Purpose:	This is the part of the Validation program that validates
000021:                                                                                         	#		just the DCOM instruction.
000022:                                                                                         	# Mod history:	07/05/04 RSB.	Began.
000023:
000024:    7211           24061                          INCR     ERRNUM                        	#
000025:
(End of include-file ValidateDCOM.agc, resuming Validation.agc)
000282:
000283:                                                                                         	#+++++++++++++++++++++++++++++++++++++++++++++++++++++++++
000284:                                                                                         	# Test 56:  check of SQUARE
000285: $ValidateSQUARE.agc
000001:                                                                                         	# Copyright 2004 Ronald S. Burkey <info@sandroid.org>
000002:                                                                                         	#
000003:                                                                                         	# This file is part of yaAGC.
000004:
000005:                                                                                         	# yaAGC is free software; you can redistribute it and/or modify
000006:                                                                                         	# it under the terms of the GNU General Public License as published by
000007:                                                                                         	# the Free Software Foundation; either version 2 of the License, or
000008:                                                                                         	# (at your option) any later version.
000009:
000010:                                                                                         	# yaAGC is distributed in the hope that it will be useful,
000011:                                                                                         	# but WITHOUT ANY WARRANTY; without even the implied warranty of
000012:                                                                                         	# MERCHANTABILITY or FITNESS FOR A PARTICULAR PURPOSE.  See the
000013:                                                                                         	# GNU General Public License for more details.
000014:
000015:                                                                                         	# You should have received a copy of the GNU General Public License
000016:                                                                                         	# along with yaAGC; if not, write to the Free Software
000017:                                                                                         	# Foundation, Inc., 59 Temple Place, Suite 330, Boston, MA  02111-1307  USA
000018:
000019:                                                                                         	# Filename:	ValidateSQUARE.agc
000020:                                                                                         	# Purpose:	This is the part of the Validation program that validates
000021:                                                                                         	#		just the SQUARE instruction.
000022:                                                                                         	# Mod history:	07/05/04 RSB.	Began.
000023:
000024:    7212           24061                          INCR     ERRNUM                        	#
000025:
(End of include-file ValidateSQUARE.agc, resuming Validation.agc)
000286:
000287:                                                                                         	#+++++++++++++++++++++++++++++++++++++++++++++++++++++++++
000288:                                                                                         	# Test 57:  check of DTCB
000289: $ValidateDTCB.agc
000001:                                                                                         	# Copyright 2004 Ronald S. Burkey <info@sandroid.org>
000002:                                                                                         	#
000003:                                                                                         	# This file is part of yaAGC.
000004:
000005:                                                                                         	# yaAGC is free software; you can redistribute it and/or modify
000006:                                                                                         	# it under the terms of the GNU General Public License as published by
000007:                                                                                         	# the Free Software Foundation; either version 2 of the License, or
000008:                                                                                         	# (at your option) any later version.
000009:
000010:                                                                                         	# yaAGC is distributed in the hope that it will be useful,
000011:                                                                                         	# but WITHOUT ANY WARRANTY; without even the implied warranty of
000012:                                                                                         	# MERCHANTABILITY or FITNESS FOR A PARTICULAR PURPOSE.  See the
000013:                                                                                         	# GNU General Public License for more details.
000014:
000015:                                                                                         	# You should have received a copy of the GNU General Public License
000016:                                                                                         	# along with yaAGC; if not, write to the Free Software
000017:                                                                                         	# Foundation, Inc., 59 Temple Place, Suite 330, Boston, MA  02111-1307  USA
000018:
000019:                                                                                         	# Filename:	ValidateDTCB.agc
000020:                                                                                         	# Purpose:	This is the part of the Validation program that validates
000021:                                                                                         	#		just the DTCB instruction.
000022:                                                                                         	# Mod history:	07/05/04 RSB.	Began.
000023:
000024:    7213           24061                          INCR     ERRNUM                        	#
000025:
(End of include-file ValidateDTCB.agc, resuming Validation.agc)
000290:
000291:                                                                                         	#+++++++++++++++++++++++++++++++++++++++++++++++++++++++++
000292:                                                                                         	# Test 60:  check of DTCF
000293: $ValidateDTCF.agc
000001:                                                                                         	# Copyright 2004 Ronald S. Burkey <info@sandroid.org>
000002:                                                                                         	#
000003:                                                                                         	# This file is part of yaAGC.
000004:
000005:                                                                                         	# yaAGC is free software; you can redistribute it and/or modify
000006:                                                                                         	# it under the terms of the GNU General Public License as published by
000007:                                                                                         	# the Free Software Foundation; either version 2 of the License, or
000008:                                                                                         	# (at your option) any later version.
000009:
000010:                                                                                         	# yaAGC is distributed in the hope that it will be useful,
000011:                                                                                         	# but WITHOUT ANY WARRANTY; without even the implied warranty of
000012:                                                                                         	# MERCHANTABILITY or FITNESS FOR A PARTICULAR PURPOSE.  See the
000013:                                                                                         	# GNU General Public License for more details.
000014:
000015:                                                                                         	# You should have received a copy of the GNU General Public License
000016:                                                                                         	# along with yaAGC; if not, write to the Free Software
000017:                                                                                         	# Foundation, Inc., 59 Temple Place, Suite 330, Boston, MA  02111-1307  USA
000018:
000019:                                                                                         	# Filename:	ValidateDTCF.agc
000020:                                                                                         	# Purpose:	This is the part of the Validation program that validates
000021:                                                                                         	#		just the DTCF instruction.
000022:                                                                                         	# Mod history:	07/05/04 RSB.	Began.
000023:
000024:    7214           24061                          INCR     ERRNUM                        	#
000025:
(End of include-file ValidateDTCF.agc, resuming Validation.agc)
000294:
000295:                                                                                         	#+++++++++++++++++++++++++++++++++++++++++++++++++++++++++
000296:                                                                                         	# Test 61-65:  Test written from the flowcharts in the
000297:                                                                                         	# Appendix of E-2065 (Smally's "Block II AGC Self-Check
000298:                                                                                         	# and Show-Banksum).
000299: $ValidateSmally.agc
000001:                                                                                         	# Copyright 2004 Ronald S. Burkey <info@sandroid.org>
000002:                                                                                         	#
000003:                                                                                         	# This file is part of yaAGC.
000004:
000005:                                                                                         	# yaAGC is free software; you can redistribute it and/or modify
000006:                                                                                         	# it under the terms of the GNU General Public License as published by
000007:                                                                                         	# the Free Software Foundation; either version 2 of the License, or
000008:                                                                                         	# (at your option) any later version.
000009:
000010:                                                                                         	# yaAGC is distributed in the hope that it will be useful,
000011:                                                                                         	# but WITHOUT ANY WARRANTY; without even the implied warranty of
000012:                                                                                         	# MERCHANTABILITY or FITNESS FOR A PARTICULAR PURPOSE.  See the
000013:                                                                                         	# GNU General Public License for more details.
000014:
000015:                                                                                         	# You should have received a copy of the GNU General Public License
000016:                                                                                         	# along with yaAGC; if not, write to the Free Software
000017:                                                                                         	# Foundation, Inc., 59 Temple Place, Suite 330, Boston, MA  02111-1307  USA
000018:
000019:                                                                                         	# Filename:	ValidateSmally.agc
000020:                                                                                         	# Purpose:	This is the part of the Validation program, written to
000021:                                                                                         	#		correspond as best I can to the flowcharts in the Appendix
000022:                                                                                         	#		of E-2065, which is a document titled "Block II AGC
000023:                                                                                         	#		Self-Check and Show-Banksum", by Edwin D. Smally.
000024:                                                                                         	# Mod history:	07/07/04 RSB.	Began.
000025:
000026:                                                                                         	# Similar code was apparently originally in Luminary and/or Colossus,
000027:                                                                                         	# but much of it was removed over the course of time to make more room.
000028:                                                                                         	# I don't know what the original code was like, but the flowcharts still
000029:                                                                                         	# exist, so I've rewritten the code from the flowcharts.
000030:
000031:    7215           00006                          EXTEND                                 	#
000032:    7216           37221                          DCA      ASMGEN                        	#
000033:    7217           52005                          DTCF                                   	#
000034:    7220           10000 02000  ASMGEN            2FCADR   SMGEN                         	#
000035:    7222           12000 02000  ASMGEN2           2FCADR   SMGEN2                        	#
000036:    7224           14000 02000  ASMGEN3           2FCADR   SMGEN3                        	#
000037:    7226           16000 02000  ASMMP             2FCADR   SMMP                          	#
000038:    7230           20000 02000  ASMDV             2FCADR   SMDV                          	#
000039:    7232                        SMNEXT                                                   	#
000040:
000041: 04,2000                                          BANK     4                             	#
000042: 04,2000                        SMGEN                                                    	#
000043: 04,2000           24061                          INCR     ERRNUM                        	#
000044: 04,2001           30007                          CA       ZEROES                        	#
000045: 04,2002           54062                          TS       ERRSUB                        	#
000046:                                                                                         	# ERRNUM==61
000047: $SmallyTCTCF.agc		# ERRSUB==1
000001:                                                                                         	# Copyright 2004 Ronald S. Burkey <info@sandroid.org>
000002:                                                                                         	#
000003:                                                                                         	# This file is part of yaAGC.
000004:
000005:                                                                                         	# yaAGC is free software; you can redistribute it and/or modify
000006:                                                                                         	# it under the terms of the GNU General Public License as published by
000007:                                                                                         	# the Free Software Foundation; either version 2 of the License, or
000008:                                                                                         	# (at your option) any later version.
000009:
000010:                                                                                         	# yaAGC is distributed in the hope that it will be useful,
000011:                                                                                         	# but WITHOUT ANY WARRANTY; without even the implied warranty of
000012:                                                                                         	# MERCHANTABILITY or FITNESS FOR A PARTICULAR PURPOSE.  See the
000013:                                                                                         	# GNU General Public License for more details.
000014:
000015:                                                                                         	# You should have received a copy of the GNU General Public License
000016:                                                                                         	# along with yaAGC; if not, write to the Free Software
000017:                                                                                         	# Foundation, Inc., 59 Temple Place, Suite 330, Boston, MA  02111-1307  USA
000018:
000019:                                                                                         	# Filename:	SmallyTCTCF.agc
000020:                                                                                         	# Purpose:	This is code written from the flowchart on p. 32 of
000021:                                                                                         	#		E-2065, which is a document titled "Block II AGC
000022:                                                                                         	#		Self-Check and Show-Banksum", by Edwin D. Smally.
000023:                                                                                         	# Mod history:	07/07/04 RSB.	Began.
000024:
000025:                                                                                         	# Similar code was apparently originally in Luminary and/or Colossus,
000026:                                                                                         	# but much of it was removed over the course of time to make more room.
000027:                                                                                         	# I don't know what the original code was like, but the flowcharts still
000028:                                                                                         	# exist, so I've rewritten the code from the flowcharts.
000029:
000030:                                                                                         	# P. 32 of Smally.
000031:
000032: 04,2003           24062                          INCR     ERRSUB                        	# 1
000033: 04,2004           22007                          ZL                                     	#
000034: 04,2005           02007                          TC       +2                            	#
000035: 04,2006           12015                          TCF      TCTCFDON                      	#
000036: 04,2007           24001                          INCR     L                             	#
000037: 04,2010           12012                          TCF      +2                            	#
000038: 04,2011           12013                          TCF      TCTCFERR                      	#
000039: 04,2012           00002                          RETURN                                 	#
000040:
000041: 04,2013           07240        TCTCFERR          TC       ERRORDSP                      	#
000042: 04,2014           12020                          TCF      TCTCFDN2                      	#
000043: 04,2015           30001        TCTCFDON          CA       L                             	#
000044: 04,2016           00006                          EXTEND                                 	#
000045: 04,2017           12013                          BZF      TCTCFERR                      	#
000046: 04,2020                        TCTCFDN2                                                 	#
(End of include-file SmallyTCTCF.agc, resuming ValidateSmally.agc)
000048: $SmallyCCSCHK.agc		# 2-7
000001:                                                                                         	# Copyright 2004 Ronald S. Burkey <info@sandroid.org>
000002:                                                                                         	#
000003:                                                                                         	# This file is part of yaAGC.
000004:
000005:                                                                                         	# yaAGC is free software; you can redistribute it and/or modify
000006:                                                                                         	# it under the terms of the GNU General Public License as published by
000007:                                                                                         	# the Free Software Foundation; either version 2 of the License, or
000008:                                                                                         	# (at your option) any later version.
000009:
000010:                                                                                         	# yaAGC is distributed in the hope that it will be useful,
000011:                                                                                         	# but WITHOUT ANY WARRANTY; without even the implied warranty of
000012:                                                                                         	# MERCHANTABILITY or FITNESS FOR A PARTICULAR PURPOSE.  See the
000013:                                                                                         	# GNU General Public License for more details.
000014:
000015:                                                                                         	# You should have received a copy of the GNU General Public License
000016:                                                                                         	# along with yaAGC; if not, write to the Free Software
000017:                                                                                         	# Foundation, Inc., 59 Temple Place, Suite 330, Boston, MA  02111-1307  USA
000018:
000019:                                                                                         	# Filename:	SmallyCCSCHK.agc
000020:                                                                                         	# Purpose:	This is code written from the flowchart on p. 33 of
000021:                                                                                         	#		E-2065, which is a document titled "Block II AGC
000022:                                                                                         	#		Self-Check and Show-Banksum", by Edwin D. Smally.
000023:                                                                                         	# Mod history:	07/07/04 RSB.	Began.
000024:
000025:                                                                                         	# Similar code was apparently originally in Luminary and/or Colossus,
000026:                                                                                         	# but much of it was removed over the course of time to make more room.
000027:                                                                                         	# I don't know what the original code was like, but the flowcharts still
000028:                                                                                         	# exist, so I've rewritten the code from the flowcharts.
000029:
000030:                                                                                         	# P. 33 of Smally.
000031:
000032: 04,2020           24062                          INCR     ERRSUB                        	# 2
000033: 04,2021           37421                          CA       NEGTHREE                      	#
000034: 04,2022           10000                          CCS      A                             	#
000035: 04,2023           12067                          TCF      CCSERROR                      	#
000036: 04,2024           12067                          TCF      CCSERROR                      	#
000037: 04,2025           12027                          TCF      +2                            	#
000038: 04,2026           12067                          TCF      CCSERROR                      	#
000039:
000040: 04,2027           24062                          INCR     ERRSUB                        	# 3
000041: 04,2030           10000                          CCS      A                             	#
000042: 04,2031           12035                          TCF      +4                            	#
000043: 04,2032           12067                          TCF      CCSERROR                      	#
000044: 04,2033           12067                          TCF      CCSERROR                      	#
000045: 04,2034           12067                          TCF      CCSERROR                      	#
000046:
000047: 04,2035           24062                          INCR     ERRSUB                        	# 4
000048: 04,2036           54066                          TS       SKEEP1                        	#
000049: 04,2037           10066                          CCS      SKEEP1                        	#
000050: 04,2040           12044                          TCF      +4                            	#
000051: 04,2041           12067                          TCF      CCSERROR                      	#
000052: 04,2042           12067                          TCF      CCSERROR                      	#
000053: 04,2043           12067                          TCF      CCSERROR                      	#
000054:
000055: 04,2044           24062                          INCR     ERRSUB                        	# 5
000056: 04,2045           10000                          CCS      A                             	#
000057: 04,2046           12067                          TCF      CCSERROR                      	#
000058: 04,2047           12052                          TCF      +3                            	#
000059: 04,2050           12067                          TCF      CCSERROR                      	#
000060: 04,2051           12067                          TCF      CCSERROR                      	#
000061:
000062: 04,2052           24062                          INCR     ERRSUB                        	# 6
000063: 04,2053           40000                          CS       A                             	#
000064: 04,2054           10000                          CCS      A                             	#
000065: 04,2055           12067                          TCF      CCSERROR                      	#
000066: 04,2056           12067                          TCF      CCSERROR                      	#
000067: 04,2057           12067                          TCF      CCSERROR                      	#
000068:
000069: 04,2060           24062                          INCR     ERRSUB                        	# 7
000070: 04,2061           10000                          CCS      A                             	#
000071: 04,2062           12067                          TCF      CCSERROR                      	#
000072: 04,2063           12066                          TCF      +3                            	#
000073: 04,2064           12067                          TCF      CCSERROR                      	#
000074: 04,2065           12067                          TCF      CCSERROR                      	#
000075:
000076:                                                                                         	# The flowchart says here to
000077:                                                                                         	# "check read back into erasable
000078:                                                                                         	# memory feature of CS instruction,"
000079:                                                                                         	# whatever that may mean!
000080:
000081: 04,2066           12070                          TCF      CCSDONE                       	#
000082: 04,2067           07240        CCSERROR          TC       ERRORDSP                      	#
000083: 04,2070                        CCSDONE                                                  	#
000084:
000085:
000086:
(End of include-file SmallyCCSCHK.agc, resuming ValidateSmally.agc)
000049: $SmallyBZMFCHK.agc	# 10-14
000001:                                                                                         	# Copyright 2004 Ronald S. Burkey <info@sandroid.org>
000002:                                                                                         	#
000003:                                                                                         	# This file is part of yaAGC.
000004:
000005:                                                                                         	# yaAGC is free software; you can redistribute it and/or modify
000006:                                                                                         	# it under the terms of the GNU General Public License as published by
000007:                                                                                         	# the Free Software Foundation; either version 2 of the License, or
000008:                                                                                         	# (at your option) any later version.
000009:
000010:                                                                                         	# yaAGC is distributed in the hope that it will be useful,
000011:                                                                                         	# but WITHOUT ANY WARRANTY; without even the implied warranty of
000012:                                                                                         	# MERCHANTABILITY or FITNESS FOR A PARTICULAR PURPOSE.  See the
000013:                                                                                         	# GNU General Public License for more details.
000014:
000015:                                                                                         	# You should have received a copy of the GNU General Public License
000016:                                                                                         	# along with yaAGC; if not, write to the Free Software
000017:                                                                                         	# Foundation, Inc., 59 Temple Place, Suite 330, Boston, MA  02111-1307  USA
000018:
000019:                                                                                         	# Filename:	SmallyBZMFCHK.agc
000020:                                                                                         	# Purpose:	This is code written from the flowchart on p. 34 of
000021:                                                                                         	#		E-2065, which is a document titled "Block II AGC
000022:                                                                                         	#		Self-Check and Show-Banksum", by Edwin D. Smally.
000023:                                                                                         	# Mod history:	07/07/04 RSB.	Began.
000024:
000025:                                                                                         	# Similar code was apparently originally in Luminary and/or Colossus,
000026:                                                                                         	# but much of it was removed over the course of time to make more room.
000027:                                                                                         	# I don't know what the original code was like, but the flowcharts still
000028:                                                                                         	# exist, so I've rewritten the code from the flowcharts.
000029:
000030:                                                                                         	# P. 34 of Smally.
000031:
000032: 04,2070           24062                          INCR     ERRSUB                        	# 10 octal
000033: 04,2071           37424                          CA       TWO                           	#
000034: 04,2072           00006                          EXTEND                                 	#
000035: 04,2073           62121                          BZMF     BZMFERR                       	#
000036:
000037: 04,2074           24062                          INCR     ERRSUB                        	# 11
000038: 04,2075           37421                          CA       NEGTHREE                      	#
000039: 04,2076           00006                          EXTEND                                 	#
000040: 04,2077           62101                          BZMF     +2                            	#
000041: 04,2100           12121                          TCF      BZMFERR                       	#
000042:
000043: 04,2101           24062                          INCR     ERRSUB                        	# 12
000044: 04,2102           37436                          CA       MAXP                          	#
000045: 04,2103           24000                          INCR     A                             	#
000046: 04,2104           00006                          EXTEND                                 	#
000047: 04,2105           62121                          BZMF     BZMFERR                       	#
000048:
000049: 04,2106           24062                          INCR     ERRSUB                        	# 13
000050: 04,2107           30007                          CA       ZEROES                        	#
000051: 04,2110           00006                          EXTEND                                 	#
000052: 04,2111           62113                          BZMF     +2                            	#
000053: 04,2112           12121                          TCF      BZMFERR                       	#
000054:
000055: 04,2113           24062                          INCR     ERRSUB                        	# 14
000056: 04,2114           37416                          CA       NEGZERO                       	#
000057: 04,2115           00006                          EXTEND                                 	#
000058: 04,2116           62120                          BZMF     +2                            	#
000059: 04,2117           12121                          TCF      BZMFERR                       	#
000060:
000061: 04,2120           12122                          TCF      +2                            	#
000062: 04,2121           07240        BZMFERR           TC       ERRORDSP                      	#
000063:
(End of include-file SmallyBZMFCHK.agc, resuming ValidateSmally.agc)
000050: $SmallyRESTORE1.agc	# 15-16
000001:                                                                                         	# Copyright 2004 Ronald S. Burkey <info@sandroid.org>
000002:                                                                                         	#
000003:                                                                                         	# This file is part of yaAGC.
000004:
000005:                                                                                         	# yaAGC is free software; you can redistribute it and/or modify
000006:                                                                                         	# it under the terms of the GNU General Public License as published by
000007:                                                                                         	# the Free Software Foundation; either version 2 of the License, or
000008:                                                                                         	# (at your option) any later version.
000009:
000010:                                                                                         	# yaAGC is distributed in the hope that it will be useful,
000011:                                                                                         	# but WITHOUT ANY WARRANTY; without even the implied warranty of
000012:                                                                                         	# MERCHANTABILITY or FITNESS FOR A PARTICULAR PURPOSE.  See the
000013:                                                                                         	# GNU General Public License for more details.
000014:
000015:                                                                                         	# You should have received a copy of the GNU General Public License
000016:                                                                                         	# along with yaAGC; if not, write to the Free Software
000017:                                                                                         	# Foundation, Inc., 59 Temple Place, Suite 330, Boston, MA  02111-1307  USA
000018:
000019:                                                                                         	# Filename:	SmallyRESTORE1.agc
000020:                                                                                         	# Purpose:	This is code written from the flowchart on p. 35 of
000021:                                                                                         	#		E-2065, which is a document titled "Block II AGC
000022:                                                                                         	#		Self-Check and Show-Banksum", by Edwin D. Smally.
000023:                                                                                         	# Mod history:	07/07/04 RSB.	Began.
000024:                                                                                         	#		08/08/04 RSB.	Finished.
000025:
000026:                                                                                         	# Similar code was apparently originally in Luminary and/or Colossus,
000027:                                                                                         	# but much of it was removed over the course of time to make more room.
000028:                                                                                         	# I don't know what the original code was like, but the flowcharts still
000029:                                                                                         	# exist, so I've rewritten the code from the flowcharts.
000030:
000031:                                                                                         	# P. 35 of Smally
000032:
000033:                                                                                         	# Realize that to put 177 into SR with TS, we must actually
000034:                                                                                         	# use 377 since the value will be shifted.  (I'm unable to
000035:                                                                                         	# find a way to insert a value into an editing register
000036:                                                                                         	# without performing editing.)
000037: 04,2122           37375                          CA       O377                          	#
000038: 04,2123           54021                          TS       SR                            	#
000039:
000040: 04,2124           24062                          INCR     ERRSUB                        	# 15
000041:                                                                                         	# Smally's flowchart is a bit confusing about what happens
000042:                                                                                         	# at this step.  But it looks as though we execute a
000043:                                                                                         	# bunch of instructions (like CCS) that re-edit the
000044:                                                                                         	# registers, without bothering to use the results, and
000045:                                                                                         	# finally fetch the value with MASK, which does not.
000046: 04,2125           10021                          CCS      SR                            	#
000047: 04,2126           12127                          NOOP                                   	#
000048: 04,2127           12130                          NOOP                                   	#
000049: 04,2130           12131                          NOOP                                   	#
000050: 04,2131           12132                          NOOP                                   	#
000051: 04,2132           40021                          CS       SR                            	#
000052: 04,2133           60021                          AD       SR                            	#
000053: 04,2134           00006                          EXTEND                                 	#
000054: 04,2135           20021                          MSU      SR                            	#
000055: 04,2136           00006                          EXTEND                                 	#
000056: 04,2137           60021                          SU       SR                            	#
000057: 04,2140           30021                          CA       SR                            	#
000058: 04,2141           70021                          MASK     SR                            	#
000059: 04,2142           67417                          AD       NEGONE                        	#
000060: 04,2143           00006                          EXTEND                                 	#
000061: 04,2144           12146                          BZF      +2                            	#
000062: 04,2145           12161                          TCF      R1ERROR                       	#
000063:
000064: 04,2146           24062                          INCR     ERRSUB                        	# 16
000065: 04,2147           00006                          EXTEND                                 	#
000066: 04,2150           70021                          MP       SR                            	#
000067: 04,2151           00006                          EXTEND                                 	#
000068: 04,2152           10021                          DV       SR                            	#
000069: 04,2153           30021                          CA       SR                            	#
000070: 04,2154           67417                          AD       NEGONE                        	#
000071: 04,2155           00006                          EXTEND                                 	#
000072: 04,2156           12160                          BZF      +2                            	#
000073: 04,2157           12161                          TCF      R1ERROR                       	#
000074:
000075: 04,2160           12162                          TCF      +2                            	#
000076: 04,2161           07240        R1ERROR           TC       ERRORDSP                      	#
000077:
(End of include-file SmallyRESTORE1.agc, resuming ValidateSmally.agc)
000051: $SmallyRESTORE2.agc	# 17-20
000001:                                                                                         	# Copyright 2004 Ronald S. Burkey <info@sandroid.org>
000002:                                                                                         	#
000003:                                                                                         	# This file is part of yaAGC.
000004:
000005:                                                                                         	# yaAGC is free software; you can redistribute it and/or modify
000006:                                                                                         	# it under the terms of the GNU General Public License as published by
000007:                                                                                         	# the Free Software Foundation; either version 2 of the License, or
000008:                                                                                         	# (at your option) any later version.
000009:
000010:                                                                                         	# yaAGC is distributed in the hope that it will be useful,
000011:                                                                                         	# but WITHOUT ANY WARRANTY; without even the implied warranty of
000012:                                                                                         	# MERCHANTABILITY or FITNESS FOR A PARTICULAR PURPOSE.  See the
000013:                                                                                         	# GNU General Public License for more details.
000014:
000015:                                                                                         	# You should have received a copy of the GNU General Public License
000016:                                                                                         	# along with yaAGC; if not, write to the Free Software
000017:                                                                                         	# Foundation, Inc., 59 Temple Place, Suite 330, Boston, MA  02111-1307  USA
000018:
000019:                                                                                         	# Filename:	SmallyRESTORE2.agc
000020:                                                                                         	# Purpose:	This is code written from the flowchart on p. 36 of
000021:                                                                                         	#		E-2065, which is a document titled "Block II AGC
000022:                                                                                         	#		Self-Check and Show-Banksum", by Edwin D. Smally.
000023:                                                                                         	# Mod history:	07/08/04 RSB.	Began.
000024:
000025:                                                                                         	# Similar code was apparently originally in Luminary and/or Colossus,
000026:                                                                                         	# but much of it was removed over the course of time to make more room.
000027:                                                                                         	# I don't know what the original code was like, but the flowcharts still
000028:                                                                                         	# exist, so I've rewritten the code from the flowcharts.
000029:
000030:                                                                                         	# P. 36 of Smally
000031:
000032: 04,2162           37423                          CA       ONE                           	#
000033: 04,2163           54066                          TS       SKEEP1                        	#
000034: 04,2164           37417                          CA       NEGONE                        	#
000035: 04,2165           54067                          TS       SKEEP2                        	#
000036:
000037: 04,2166           00006                          EXTEND                                 	#
000038: 04,2167           30067                          DCA      SKEEP1                        	#
000039: 04,2170           00006                          EXTEND                                 	#
000040: 04,2171           40067                          DCS      SKEEP1                        	#
000041:
000042: 04,2172           24062                          INCR     ERRSUB                        	# 17
000043: 04,2173           67423                          AD       ONE                           	#
000044: 04,2174           00006                          EXTEND                                 	#
000045: 04,2175           12177                          BZF      +2                            	#
000046: 04,2176           12221                          TCF      R2ERROR                       	#
000047: 04,2177           30001                          CA       L                             	#
000048: 04,2200           67417                          AD       NEGONE                        	#
000049: 04,2201           00006                          EXTEND                                 	#
000050: 04,2202           12204                          BZF      +2                            	#
000051: 04,2203           12221                          TCF      R2ERROR                       	#
000052:
000053: 04,2204           24062                          INCR     ERRSUB                        	# 20 (octal)
000054: 04,2205           00006                          EXTEND                                 	#
000055: 04,2206           30067                          DCA      SKEEP1                        	#
000056: 04,2207           67417                          AD       NEGONE                        	#
000057: 04,2210           00006                          EXTEND                                 	#
000058: 04,2211           12213                          BZF      +2                            	#
000059: 04,2212           12221                          TCF      R2ERROR                       	#
000060: 04,2213           30001                          CA       L                             	#
000061: 04,2214           67423                          AD       ONE                           	#
000062: 04,2215           00006                          EXTEND                                 	#
000063: 04,2216           12220                          BZF      +2                            	#
000064: 04,2217           12221                          TCF      R2ERROR                       	#
000065:
000066: 04,2220           12222                          TCF      +2                            	#
000067: 04,2221           07240        R2ERROR           TC       ERRORDSP                      	#
000068:
(End of include-file SmallyRESTORE2.agc, resuming ValidateSmally.agc)
000052: $SmallyRESTORE3.agc	# 21-22
000001:                                                                                         	# Copyright 2004 Ronald S. Burkey <info@sandroid.org>
000002:                                                                                         	#
000003:                                                                                         	# This file is part of yaAGC.
000004:
000005:                                                                                         	# yaAGC is free software; you can redistribute it and/or modify
000006:                                                                                         	# it under the terms of the GNU General Public License as published by
000007:                                                                                         	# the Free Software Foundation; either version 2 of the License, or
000008:                                                                                         	# (at your option) any later version.
000009:
000010:                                                                                         	# yaAGC is distributed in the hope that it will be useful,
000011:                                                                                         	# but WITHOUT ANY WARRANTY; without even the implied warranty of
000012:                                                                                         	# MERCHANTABILITY or FITNESS FOR A PARTICULAR PURPOSE.  See the
000013:                                                                                         	# GNU General Public License for more details.
000014:
000015:                                                                                         	# You should have received a copy of the GNU General Public License
000016:                                                                                         	# along with yaAGC; if not, write to the Free Software
000017:                                                                                         	# Foundation, Inc., 59 Temple Place, Suite 330, Boston, MA  02111-1307  USA
000018:
000019:                                                                                         	# Filename:	SmallyRESTORE3.agc
000020:                                                                                         	# Purpose:	This is code written from the flowchart on p. 37 of
000021:                                                                                         	#		E-2065, which is a document titled "Block II AGC
000022:                                                                                         	#		Self-Check and Show-Banksum", by Edwin D. Smally.
000023:                                                                                         	# Mod history:	07/07/04 RSB.	Began.
000024:
000025:                                                                                         	# Similar code was apparently originally in Luminary and/or Colossus,
000026:                                                                                         	# but much of it was removed over the course of time to make more room.
000027:                                                                                         	# I don't know what the original code was like, but the flowcharts still
000028:                                                                                         	# exist, so I've rewritten the code from the flowcharts.
000029:
000030:                                                                                         	# P. 37 of Smally.  It APPEARS to me that various
000031:                                                                                         	# statements about the contents of A are wrong here,
000032:                                                                                         	# probably because of the OCR'ing which has been done
000033:                                                                                         	# on Smally's doc before posting to the internet.
000034:
000035: 04,2222           12225                          TCF      +3                            	#
000036: 04,2223           40000        4SKEEP1           CS       A                             	#
000037: 04,2224           00002        4SKEEP2           TC       Q                             	#
000038: 04,2225           32223                          CA       4SKEEP1                       	#
000039: 04,2226           54066                          TS       SKEEP1                        	#
000040: 04,2227           32224                          CA       4SKEEP2                       	#
000041: 04,2230           54067                          TS       SKEEP2                        	#
000042:
000043: 04,2231           37423                          CA       ONE                           	#
000044: 04,2232           00066                          TC       SKEEP1                        	# Should be -1 on return.
000045:
000046: 04,2233           24062                          INCR     ERRSUB                        	# 21
000047: 04,2234           67423                          AD       ONE                           	#
000048: 04,2235           00006                          EXTEND                                 	#
000049: 04,2236           12240                          BZF      +2                            	#
000050: 04,2237           12250                          TCF      R3ERROR                       	#
000051:
000052: 04,2240           30007                          CA       ZEROES                        	#
000053: 04,2241           00066                          TC       SKEEP1                        	# Should be -0 on return.
000054:
000055: 04,2242           24062                          INCR     ERRSUB                        	# 22
000056: 04,2243           10000                          CCS      A                             	#
000057: 04,2244           12250                          TCF      R3ERROR                       	#
000058: 04,2245           12250                          TCF      R3ERROR                       	#
000059: 04,2246           12250                          TCF      R3ERROR                       	#
000060:
000061: 04,2247           12251                          TCF      +2                            	#
000062: 04,2250           07240        R3ERROR           TC       ERRORDSP                      	#
000063:
000064:
(End of include-file SmallyRESTORE3.agc, resuming ValidateSmally.agc)
000053: $SmallyBZFCHK.agc		# 23-30
000001:                                                                                         	# Copyright 2004 Ronald S. Burkey <info@sandroid.org>
000002:                                                                                         	#
000003:                                                                                         	# This file is part of yaAGC.
000004:
000005:                                                                                         	# yaAGC is free software; you can redistribute it and/or modify
000006:                                                                                         	# it under the terms of the GNU General Public License as published by
000007:                                                                                         	# the Free Software Foundation; either version 2 of the License, or
000008:                                                                                         	# (at your option) any later version.
000009:
000010:                                                                                         	# yaAGC is distributed in the hope that it will be useful,
000011:                                                                                         	# but WITHOUT ANY WARRANTY; without even the implied warranty of
000012:                                                                                         	# MERCHANTABILITY or FITNESS FOR A PARTICULAR PURPOSE.  See the
000013:                                                                                         	# GNU General Public License for more details.
000014:
000015:                                                                                         	# You should have received a copy of the GNU General Public License
000016:                                                                                         	# along with yaAGC; if not, write to the Free Software
000017:                                                                                         	# Foundation, Inc., 59 Temple Place, Suite 330, Boston, MA  02111-1307  USA
000018:
000019:                                                                                         	# Filename:	SmallyBZFCHK.agc
000020:                                                                                         	# Purpose:	This is code written from the flowchart on p. 38 of
000021:                                                                                         	#		E-2065, which is a document titled "Block II AGC
000022:                                                                                         	#		Self-Check and Show-Banksum", by Edwin D. Smally.
000023:                                                                                         	# Mod history:	07/07/04 RSB.	Began.
000024:                                                                                         	#		07/08/04 RSB.	Finished.
000025:
000026:                                                                                         	# Similar code was apparently originally in Luminary and/or Colossus,
000027:                                                                                         	# but much of it was removed over the course of time to make more room.
000028:                                                                                         	# I don't know what the original code was like, but the flowcharts still
000029:                                                                                         	# exist, so I've rewritten the code from the flowcharts.
000030:
000031:                                                                                         	# P. 38 of Smally.
000032:
000033: 04,2251           24062                          INCR     ERRSUB                        	# 23
000034: 04,2252           37424                          CA       TWO                           	#
000035: 04,2253           00006                          EXTEND                                 	#
000036: 04,2254           12306                          BZF      BZFERROR                      	#
000037:
000038: 04,2255           24062                          INCR     ERRSUB                        	# 24
000039: 04,2256           37421                          CA       NEGTHREE                      	#
000040: 04,2257           00006                          EXTEND                                 	#
000041: 04,2260           12306                          BZF      BZFERROR                      	#
000042:
000043: 04,2261           24062                          INCR     ERRSUB                        	# 25
000044: 04,2262           37436                          CA       MAXP                          	#
000045: 04,2263           24000                          INCR     A                             	#
000046: 04,2264           00006                          EXTEND                                 	#
000047: 04,2265           12306                          BZF      BZFERROR                      	#
000048:
000049: 04,2266           24062                          INCR     ERRSUB                        	# 26
000050: 04,2267           37442                          CA       MAXN                          	#
000051: 04,2270           67417                          AD       NEGONE                        	#
000052: 04,2271           00006                          EXTEND                                 	#
000053: 04,2272           12306                          BZF      BZFERROR                      	#
000054:
000055: 04,2273           24062                          INCR     ERRSUB                        	# 27
000056: 04,2274           30007                          CA       ZEROES                        	#
000057: 04,2275           00006                          EXTEND                                 	#
000058: 04,2276           12300                          BZF      +2                            	#
000059: 04,2277           12306                          TCF      BZFERROR                      	#
000060:
000061: 04,2300           24062                          INCR     ERRSUB                        	# 30 octal
000062: 04,2301           37416                          CA       NEGZERO                       	#
000063: 04,2302           00006                          EXTEND                                 	#
000064: 04,2303           12305                          BZF      +2                            	#
000065: 04,2304           12306                          TCF      BZFERROR                      	#
000066:
000067: 04,2305           12307                          TCF      +2                            	#
000068: 04,2306           07240        BZFERROR          TC       ERRORDSP                      	#
000069:
(End of include-file SmallyBZFCHK.agc, resuming ValidateSmally.agc)
000054: $SmallyDXCHDIM.agc	# 31-35
000001:                                                                                         	# Copyright 2004 Ronald S. Burkey <info@sandroid.org>
000002:                                                                                         	#
000003:                                                                                         	# This file is part of yaAGC.
000004:
000005:                                                                                         	# yaAGC is free software; you can redistribute it and/or modify
000006:                                                                                         	# it under the terms of the GNU General Public License as published by
000007:                                                                                         	# the Free Software Foundation; either version 2 of the License, or
000008:                                                                                         	# (at your option) any later version.
000009:
000010:                                                                                         	# yaAGC is distributed in the hope that it will be useful,
000011:                                                                                         	# but WITHOUT ANY WARRANTY; without even the implied warranty of
000012:                                                                                         	# MERCHANTABILITY or FITNESS FOR A PARTICULAR PURPOSE.  See the
000013:                                                                                         	# GNU General Public License for more details.
000014:
000015:                                                                                         	# You should have received a copy of the GNU General Public License
000016:                                                                                         	# along with yaAGC; if not, write to the Free Software
000017:                                                                                         	# Foundation, Inc., 59 Temple Place, Suite 330, Boston, MA  02111-1307  USA
000018:
000019:                                                                                         	# Filename:	SmallyDXCHDIM.agc
000020:                                                                                         	# Purpose:	This is code written from the flowchart on p. 39 of
000021:                                                                                         	#		E-2065, which is a document titled "Block II AGC
000022:                                                                                         	#		Self-Check and Show-Banksum", by Edwin D. Smally.
000023:                                                                                         	# Mod history:	07/07/04 RSB.	Began.
000024:
000025:                                                                                         	# Similar code was apparently originally in Luminary and/or Colossus,
000026:                                                                                         	# but much of it was removed over the course of time to make more room.
000027:                                                                                         	# I don't know what the original code was like, but the flowcharts still
000028:                                                                                         	# exist, so I've rewritten the code from the flowcharts.
000029:
000030:                                                                                         	# P. 39 of Smally
000031:
000032: 04,2307           37436                          CA       MAXP                          	# 37777
000033: 04,2310           67424                          AD       TWO                           	#
000034:
000035: 04,2311           24062                          INCR     ERRSUB                        	# ERRSUB = 31
000036: 04,2312           54066                          TS       SKEEP1                        	# Smally says SKEEP2, but must be SKEEP1.
000037: 04,2313           12422                          TCF      DDERROR                       	#
000038:
000039: 04,2314           37417                          CA       NEGONE                        	#
000040: 04,2315           54067                          TS       SKEEP2                        	#
000041: 04,2316           37442                          CA       MAXN                          	# 40000
000042: 04,2317           54001                          TS       L                             	#
000043: 04,2320           37436                          CA       MAXP                          	# 37777
000044:
000045: 04,2321           24062                          INCR     ERRSUB                        	# ERRSUB = 32
000046: 04,2322           52067                          DXCH     SKEEP1                        	#
000047: 04,2323           67417                          AD       NEGONE                        	#
000048: 04,2324           00006                          EXTEND                                 	#
000049: 04,2325           12327                          BZF      +2                            	#
000050: 04,2326           12422                          TCF      DDERROR                       	#
000051: 04,2327           30001                          CA       L                             	#
000052: 04,2330           67423                          AD       ONE                           	#
000053: 04,2331           00006                          EXTEND                                 	#
000054: 04,2332           12334                          BZF      +2                            	#
000055: 04,2333           12422                          TCF      DDERROR                       	#
000056:
000057: 04,2334           00006                          EXTEND                                 	#
000058: 04,2335           26066                          DIM      SKEEP1                        	#
000059: 04,2336           00006                          EXTEND                                 	#
000060: 04,2337           26067                          DIM      SKEEP2                        	#
000061:
000062: 04,2340           24062                          INCR     ERRSUB                        	# ERRSUB = 33
000063: 04,2341           37437                          CA       MAXP-1                        	# 37776
000064: 04,2342           40000                          COM                                    	#
000065: 04,2343           60066                          AD       SKEEP1                        	#
000066: 04,2344           00006                          EXTEND                                 	#
000067: 04,2345           12347                          BZF      +2                            	#
000068: 04,2346           12422                          TCF      DDERROR                       	#
000069: 04,2347           37443                          CA       MAXN-1                        	# 40001
000070: 04,2350           40000                          COM                                    	#
000071: 04,2351           60067                          AD       SKEEP2                        	#
000072: 04,2352           00006                          EXTEND                                 	#
000073: 04,2353           12355                          BZF      +2                            	#
000074: 04,2354           12422                          TCF      DDERROR                       	#
000075:
000076: 04,2355           24062                          INCR     ERRSUB                        	# ERRSUB = 34
000077: 04,2356           37423                          CA       ONE                           	#
000078: 04,2357           00006                          EXTEND                                 	#
000079: 04,2360           26000                          DIM      A                             	#
000080: 04,2361           00006                          EXTEND                                 	#
000081: 04,2362           26000                          DIM      A                             	#
000082:                                                                                         	# Note:  The reason we're looking for -0 here instead of +0 is
000083:                                                                                         	# that 1 - 1 = -0.
000084: 04,2363           10000                          CCS      A                             	#
000085: 04,2364           12422                          TCF      DDERROR                       	#
000086: 04,2365           12422                          TCF      DDERROR                       	#
000087: 04,2366           12422                          TCF      DDERROR                       	#
000088:
000089: 04,2367           24062                          INCR     ERRSUB                        	# ERRSUB = 35
000090: 04,2370           30007                          CA       ZEROES                        	#
000091: 04,2371           00006                          EXTEND                                 	#
000092: 04,2372           26000                          DIM      A                             	#
000093: 04,2373           10000                          CCS      A                             	#
000094: 04,2374           12422                          TCF      DDERROR                       	#
000095: 04,2375           12400                          TCF      +3                            	#
000096: 04,2376           12422                          TCF      DDERROR                       	#
000097: 04,2377           12422                          TCF      DDERROR                       	#
000098: 04,2400           22007                          ZL                                     	#
000099: 04,2401           00006                          EXTEND                                 	#
000100: 04,2402           26001                          DIM      L                             	#
000101: 04,2403           10001                          CCS      L                             	#
000102: 04,2404           12422                          TCF      DDERROR                       	#
000103: 04,2405           12410                          TCF      +3                            	#
000104: 04,2406           12422                          TCF      DDERROR                       	#
000105: 04,2407           12422                          TCF      DDERROR                       	#
000106: 04,2410           00006                          EXTEND                                 	#
000107: 04,2411           22007                          ZQ                                     	#
000108: 04,2412           00006                          EXTEND                                 	#
000109: 04,2413           26002                          DIM      Q                             	#
000110: 04,2414           10002                          CCS      Q                             	#
000111: 04,2415           12422                          TCF      DDERROR                       	#
000112: 04,2416           12421                          TCF      +3                            	#
000113: 04,2417           12422                          TCF      DDERROR                       	#
000114: 04,2420           12422                          TCF      DDERROR                       	#
000115:
000116: 04,2421           12423                          TCF      +2                            	#
000117: 04,2422           07240        DDERROR           TC       ERRORDSP                      	#
000118: 04,2423           37425                          CA       THREE                         	# Some downstream tests will expect Q==3.
000119: 04,2424           54002                          TS       Q                             	#
000120:
(End of include-file SmallyDXCHDIM.agc, resuming ValidateSmally.agc)
000055: $SmallyDASINCR.agc	# 36-42
000001:                                                                                         	# Copyright 2004 Ronald S. Burkey <info@sandroid.org>
000002:                                                                                         	#
000003:                                                                                         	# This file is part of yaAGC.
000004:
000005:                                                                                         	# yaAGC is free software; you can redistribute it and/or modify
000006:                                                                                         	# it under the terms of the GNU General Public License as published by
000007:                                                                                         	# the Free Software Foundation; either version 2 of the License, or
000008:                                                                                         	# (at your option) any later version.
000009:
000010:                                                                                         	# yaAGC is distributed in the hope that it will be useful,
000011:                                                                                         	# but WITHOUT ANY WARRANTY; without even the implied warranty of
000012:                                                                                         	# MERCHANTABILITY or FITNESS FOR A PARTICULAR PURPOSE.  See the
000013:                                                                                         	# GNU General Public License for more details.
000014:
000015:                                                                                         	# You should have received a copy of the GNU General Public License
000016:                                                                                         	# along with yaAGC; if not, write to the Free Software
000017:                                                                                         	# Foundation, Inc., 59 Temple Place, Suite 330, Boston, MA  02111-1307  USA
000018:
000019:                                                                                         	# Filename:	SmallyDASINCR.agc
000020:                                                                                         	# Purpose:	This is code written from the flowchart on p. 41 of
000021:                                                                                         	#		E-2065, which is a document titled "Block II AGC
000022:                                                                                         	#		Self-Check and Show-Banksum", by Edwin D. Smally.
000023:                                                                                         	# Mod history:	07/07/04 RSB.	Began.
000024:                                                                                         	#		07/09/04 RSB.	Finished.
000025:
000026:                                                                                         	# Similar code was apparently originally in Luminary and/or Colossus,
000027:                                                                                         	# but much of it was removed over the course of time to make more room.
000028:                                                                                         	# I don't know what the original code was like, but the flowcharts still
000029:                                                                                         	# exist, so I've rewritten the code from the flowcharts.
000030:
000031:                                                                                         	# P. 41 of Smally
000032:
000033: 04,2425           37417                          CA       NEGONE                        	#
000034: 04,2426           54001                          TS       L                             	#
000035: 04,2427           37424                          CA       TWO                           	#
000036:
000037: 04,2430           24062                          INCR     ERRSUB                        	# 36
000038: 04,2431           20001                          DDOUBL                                 	#
000039: 04,2432           67422                          AD       NEGFOUR                       	#
000040: 04,2433           00006                          EXTEND                                 	#
000041: 04,2434           12436                          BZF      +2                            	#
000042: 04,2435           12553                          TCF      DIERROR                       	#
000043: 04,2436           30001                          CA       L                             	#
000044: 04,2437           67424                          AD       TWO                           	#
000045: 04,2440           00006                          EXTEND                                 	#
000046: 04,2441           12443                          BZF      +2                            	#
000047: 04,2442           12553                          TCF      DIERROR                       	#
000048:
000049: 04,2443           37436                          CA       MAXP                          	# 37777.  Smally incorrectly says 3777.
000050: 04,2444           54070                          TS       SKEEP3                        	#
000051: 04,2445           37442                          CA       MAXN                          	# 40000
000052: 04,2446           54071                          TS       SKEEP4                        	#
000053: 04,2447           37420                          CA       NEGTWO                        	#
000054: 04,2450           54001                          TS       L                             	#
000055: 04,2451           37425                          CA       THREE                         	#
000056:
000057: 04,2452           24062                          INCR     ERRSUB                        	# 37
000058:                                                                                         	# Smally incorrectly says here that c(A)==+0 and c(L)==+1.
000059:                                                                                         	# This is actually reversed.
000060: 04,2453           20071                          DAS      SKEEP3                        	#
000061: 04,2454           67417                          AD       NEGONE                        	#
000062: 04,2455           00006                          EXTEND                                 	#
000063: 04,2456           12460                          BZF      +2                            	#
000064: 04,2457           12553                          TCF      DIERROR                       	#
000065: 04,2460           10001                          CCS      L                             	#
000066: 04,2461           12553                          TCF      DIERROR                       	#
000067: 04,2462           12465                          TCF      +3                            	#
000068: 04,2463           12553                          TCF      DIERROR                       	#
000069: 04,2464           12553                          TCF      DIERROR                       	#
000070: 04,2465           30070                          CA       SKEEP3                        	#
000071: 04,2466           67417                          AD       NEGONE                        	#
000072: 04,2467           00006                          EXTEND                                 	#
000073: 04,2470           12472                          BZF      +2                            	#
000074: 04,2471           12553                          TCF      DIERROR                       	#
000075: 04,2472           30071                          CA       SKEEP4                        	#
000076: 04,2473           67423                          AD       ONE                           	#
000077: 04,2474           00006                          EXTEND                                 	#
000078: 04,2475           12477                          BZF      +2                            	#
000079: 04,2476           12553                          TCF      DIERROR                       	#
000080:
000081: 04,2477           24062                          INCR     ERRSUB                        	# 40 octal
000082: 04,2500           24071                          INCR     SKEEP4                        	#
000083: 04,2501           10071                          CCS      SKEEP4                        	#
000084: 04,2502           12553                          TCF      DIERROR                       	#
000085: 04,2503           12553                          TCF      DIERROR                       	#
000086: 04,2504           12553                          TCF      DIERROR                       	#
000087:
000088: 04,2505           24062                          INCR     ERRSUB                        	# 41
000089: 04,2506           30007                          CA       ZEROES                        	#
000090: 04,2507           54001                          TS       L                             	#
000091: 04,2510           24001                          INCR     L                             	#
000092: 04,2511           24000                          INCR     A                             	#
000093: 04,2512           67417                          AD       NEGONE                        	#
000094: 04,2513           00006                          EXTEND                                 	#
000095: 04,2514           12516                          BZF      +2                            	#
000096: 04,2515           12553                          TCF      DIERROR                       	#
000097: 04,2516           30001                          CA       L                             	#
000098: 04,2517           67417                          AD       NEGONE                        	#
000099: 04,2520           00006                          EXTEND                                 	#
000100: 04,2521           12523                          BZF      +2                            	#
000101: 04,2522           12553                          TCF      DIERROR                       	#
000102:
000103: 04,2523           37442                          CA       MAXN                          	# 40000
000104: 04,2524           54066                          TS       SKEEP1                        	#
000105: 04,2525           37436                          CA       MAXP                          	# 37777
000106: 04,2526           54067                          TS       SKEEP2                        	#
000107: 04,2527           37425                          CA       THREE                         	#
000108: 04,2530           54001                          TS       L                             	#
000109: 04,2531           37421                          CA       NEGTHREE                      	#
000110:
000111: 04,2532           24062                          INCR     ERRSUB                        	# 42
000112:                                                                                         	# Here Smally says that c(SKEEP1)==+1 and c(SKEEP2)==-2
000113:                                                                                         	# after the addition.  I think both signs are the opposite of
000114:                                                                                         	# what they should be.
000115: 04,2533           20067                          DAS      SKEEP1                        	#
000116: 04,2534           67423                          AD       ONE                           	#
000117: 04,2535           00006                          EXTEND                                 	#
000118: 04,2536           12540                          BZF      +2                            	#
000119: 04,2537           12553                          TCF      DIERROR                       	#
000120: 04,2540           30066                          CA       SKEEP1                        	#
000121: 04,2541           67423                          AD       ONE                           	#
000122: 04,2542           00006                          EXTEND                                 	#
000123: 04,2543           12545                          BZF      +2                            	#
000124: 04,2544           12553                          TCF      DIERROR                       	#
000125: 04,2545           30067                          CA       SKEEP2                        	#
000126: 04,2546           67420                          AD       NEGTWO                        	#
000127: 04,2547           00006                          EXTEND                                 	#
000128: 04,2550           12552                          BZF      +2                            	#
000129: 04,2551           12553                          TCF      DIERROR                       	#
000130:
000131: 04,2552           12554                          TCF      +2                            	#
000132: 04,2553           07240        DIERROR           TC       ERRORDSP                      	#
000133:
(End of include-file SmallyDASINCR.agc, resuming ValidateSmally.agc)
000056: $SmallyMPCHK.agc		# 43-50
000001:                                                                                         	# Copyright 2004 Ronald S. Burkey <info@sandroid.org>
000002:                                                                                         	#
000003:                                                                                         	# This file is part of yaAGC.
000004:
000005:                                                                                         	# yaAGC is free software; you can redistribute it and/or modify
000006:                                                                                         	# it under the terms of the GNU General Public License as published by
000007:                                                                                         	# the Free Software Foundation; either version 2 of the License, or
000008:                                                                                         	# (at your option) any later version.
000009:
000010:                                                                                         	# yaAGC is distributed in the hope that it will be useful,
000011:                                                                                         	# but WITHOUT ANY WARRANTY; without even the implied warranty of
000012:                                                                                         	# MERCHANTABILITY or FITNESS FOR A PARTICULAR PURPOSE.  See the
000013:                                                                                         	# GNU General Public License for more details.
000014:
000015:                                                                                         	# You should have received a copy of the GNU General Public License
000016:                                                                                         	# along with yaAGC; if not, write to the Free Software
000017:                                                                                         	# Foundation, Inc., 59 Temple Place, Suite 330, Boston, MA  02111-1307  USA
000018:
000019:                                                                                         	# Filename:	SmallyMPCHK.agc
000020:                                                                                         	# Purpose:	This is code written from the flowchart on p. 42 of
000021:                                                                                         	#		E-2065, which is a document titled "Block II AGC
000022:                                                                                         	#		Self-Check and Show-Banksum", by Edwin D. Smally.
000023:                                                                                         	# Mod history:	07/07/04 RSB.	Began.
000024:
000025:                                                                                         	# Similar code was apparently originally in Luminary and/or Colossus,
000026:                                                                                         	# but much of it was removed over the course of time to make more room.
000027:                                                                                         	# I don't know what the original code was like, but the flowcharts still
000028:                                                                                         	# exist, so I've rewritten the code from the flowcharts.
000029:
000030:                                                                                         	# P. 42 of Smally
000031:
000032: 04,2554           24062                          INCR     ERRSUB                        	# 43
000033: 04,2555           37423                          CA       ONE                           	#
000034: 04,2556           00006                          EXTEND                                 	#
000035: 04,2557           24000                          AUG      A                             	# A == +2
000036: 04,2560           67420                          AD       NEGTWO                        	#
000037: 04,2561           00006                          EXTEND                                 	#
000038: 04,2562           12564                          BZF      +2                            	#
000039: 04,2563           12653                          TCF      MPCERROR                      	#
000040:
000041: 04,2564           37424                          CA       TWO                           	#
000042: 04,2565           00006                          EXTEND                                 	#
000043: 04,2566           77436                          MP       MAXP                          	#
000044:
000045: 04,2567           24062                          INCR     ERRSUB                        	# 44
000046: 04,2570           60001                          AD       L                             	# A == 37777
000047: 04,2571           67442                          AD       MAXN                          	# -37777
000048: 04,2572           00006                          EXTEND                                 	#
000049: 04,2573           12575                          BZF      +2                            	#
000050: 04,2574           12653                          TCF      MPCERROR                      	#
000051: 04,2575           37436                          CA       MAXP                          	# 37777
000052: 04,2576           00006                          EXTEND                                 	#
000053: 04,2577           77420                          MP       NEGTWO                        	#
000054:
000055: 04,2600           24062                          INCR     ERRSUB                        	# 45
000056: 04,2601           26001                          ADS      L                             	# A == -37777
000057: 04,2602           67436                          AD       MAXP                          	# 37777
000058: 04,2603           00006                          EXTEND                                 	#
000059: 04,2604           12606                          BZF      +2                            	#
000060: 04,2605           12653                          TCF      MPCERROR                      	#
000061: 04,2606           37442                          CA       MAXN                          	# -37777
000062:
000063: 04,2607           24062                          INCR     ERRSUB                        	# 46
000064: 04,2610           00006                          EXTEND                                 	#
000065: 04,2611           77424                          MP       TWO                           	#
000066: 04,2612           54073                          TS       SKEEP6                        	# -1
000067: 04,2613           67423                          AD       ONE                           	#
000068: 04,2614           00006                          EXTEND                                 	#
000069: 04,2615           12617                          BZF      +2                            	#
000070: 04,2616           12653                          TCF      MPCERROR                      	#
000071: 04,2617           00006                          EXTEND                                 	#
000072: 04,2620           24073                          AUG      SKEEP6                        	# SKEEP6==-2
000073:
000074: 04,2621           24062                          INCR     ERRSUB                        	# 47
000075: 04,2622           37442                          CA       MAXN                          	# 40000
000076: 04,2623           00006                          EXTEND                                 	#
000077: 04,2624           70073                          MP       SKEEP6                        	#
000078: 04,2625           67417                          AD       NEGONE                        	#
000079: 04,2626           00006                          EXTEND                                 	#
000080: 04,2627           12631                          BZF      +2                            	#
000081: 04,2630           12653                          TCF      MPCERROR                      	#
000082: 04,2631           30001                          CA       L                             	#
000083: 04,2632           67443                          AD       MAXN-1                        	# -37776
000084: 04,2633           00006                          EXTEND                                 	#
000085: 04,2634           12636                          BZF      +2                            	#
000086: 04,2635           12653                          TCF      MPCERROR                      	#
000087:
000088: 04,2636           24062                          INCR     ERRSUB                        	# 50 octal
000089: 04,2637           37423                          CA       ONE                           	# Smally says -1.
000090: 04,2640           26073                          ADS      SKEEP6                        	#
000091: 04,2641           67423                          AD       ONE                           	#
000092: 04,2642           00006                          EXTEND                                 	#
000093: 04,2643           12645                          BZF      +2                            	#
000094: 04,2644           12653                          TCF      MPCERROR                      	#
000095: 04,2645           30073                          CA       SKEEP6                        	#
000096: 04,2646           67423                          AD       ONE                           	#
000097: 04,2647           00006                          EXTEND                                 	#
000098: 04,2650           12652                          BZF      +2                            	#
000099: 04,2651           12653                          TCF      MPCERROR                      	#
000100:
000101: 04,2652           12654                          TCF      +2                            	#
000102: 04,2653           07240        MPCERROR          TC       ERRORDSP                      	#
000103:
(End of include-file SmallyMPCHK.agc, resuming ValidateSmally.agc)
000057: $SmallyDVCHK.agc		# 51-57
000001:                                                                                         	# Copyright 2004 Ronald S. Burkey <info@sandroid.org>
000002:                                                                                         	#
000003:                                                                                         	# This file is part of yaAGC.
000004:
000005:                                                                                         	# yaAGC is free software; you can redistribute it and/or modify
000006:                                                                                         	# it under the terms of the GNU General Public License as published by
000007:                                                                                         	# the Free Software Foundation; either version 2 of the License, or
000008:                                                                                         	# (at your option) any later version.
000009:
000010:                                                                                         	# yaAGC is distributed in the hope that it will be useful,
000011:                                                                                         	# but WITHOUT ANY WARRANTY; without even the implied warranty of
000012:                                                                                         	# MERCHANTABILITY or FITNESS FOR A PARTICULAR PURPOSE.  See the
000013:                                                                                         	# GNU General Public License for more details.
000014:
000015:                                                                                         	# You should have received a copy of the GNU General Public License
000016:                                                                                         	# along with yaAGC; if not, write to the Free Software
000017:                                                                                         	# Foundation, Inc., 59 Temple Place, Suite 330, Boston, MA  02111-1307  USA
000018:
000019:                                                                                         	# Filename:	SmallyDVCHK.agc
000020:                                                                                         	# Purpose:	This is code written from the flowchart on p. 43 of
000021:                                                                                         	#		E-2065, which is a document titled "Block II AGC
000022:                                                                                         	#		Self-Check and Show-Banksum", by Edwin D. Smally.
000023:                                                                                         	# Mod history:	07/07/04 RSB.	Began.
000024:
000025:                                                                                         	# Similar code was apparently originally in Luminary and/or Colossus,
000026:                                                                                         	# but much of it was removed over the course of time to make more room.
000027:                                                                                         	# I don't know what the original code was like, but the flowcharts still
000028:                                                                                         	# exist, so I've rewritten the code from the flowcharts.
000029:
000030:                                                                                         	# P. 43 of Smally
000031:
000032: 04,2654           37436                          CA       MAXP                          	#
000033: 04,2655           24000                          INCR     A                             	#
000034: 04,2656           54001                          TS       L                             	#
000035: 04,2657           13025                          TCF      DVCERROR                      	#
000036:
000037: 04,2660           24062                          INCR     ERRSUB                        	# 51
000038: 04,2661           37442                          CA       MAXN                          	#
000039: 04,2662           67417                          AD       NEGONE                        	#
000040: 04,2663           54067                          TS       SKEEP2                        	#
000041: 04,2664           13025                          TCF      DVCERROR                      	#
000042:
000043: 04,2665           24062                          INCR     ERRSUB                        	# 52
000044: 04,2666           37423                          CA       ONE                           	#
000045: 04,2667           54063                          TS       TEMPI                         	#
000046: 04,2670           37400                          CA       O20000                        	#
000047: 04,2671           54001                          TS       L                             	#
000048: 04,2672           37416                          CA       NEGZERO                       	#
000049: 04,2673           00006                          EXTEND                                 	#
000050: 04,2674           10063                          DV       TEMPI                         	#
000051: 04,2675           10001                          CCS      L                             	#
000052: 04,2676           13025                          TCF      DVCERROR                      	#
000053: 04,2677           12702                          TCF      +3                            	#
000054: 04,2700           13025                          TCF      DVCERROR                      	#
000055: 04,2701           13025                          TCF      DVCERROR                      	#
000056:
000057: 04,2702           24062                          INCR     ERRSUB                        	# 53
000058: 04,2703           37417                          CA       NEGONE                        	#
000059: 04,2704           54063                          TS       TEMPI                         	#
000060: 04,2705           37413                          CA       O-20000                       	#
000061: 04,2706           54001                          TS       L                             	#
000062: 04,2707           30007                          CA       ZEROES                        	#
000063: 04,2710           00006                          EXTEND                                 	#
000064: 04,2711           10063                          DV       TEMPI                         	#
000065: 04,2712           67413                          AD       O-20000                       	#
000066: 04,2713           00006                          EXTEND                                 	#
000067: 04,2714           12716                          BZF      +2                            	#
000068: 04,2715           13025                          TCF      DVCERROR                      	#
000069: 04,2716           10001                          CCS      L                             	#
000070: 04,2717           13025                          TCF      DVCERROR                      	#
000071: 04,2720           13025                          TCF      DVCERROR                      	#
000072: 04,2721           13025                          TCF      DVCERROR                      	#
000073:
000074:                                                                                         	# Smally says in the following to divide +17777+37777 by -20000.
000075:                                                                                         	# This is inconsistent with the sign of the remainder he seems
000076:                                                                                         	# to imply.  I assume he means -17777-37777 / +20000.
000077: 04,2722           37413                          CA       O-20000                       	#
000078: 04,2723           54063                          TS       TEMPI                         	#
000079: 04,2724           37400                          CA       O20000                        	#
000080: 04,2725           54064                          TS       TEMPJ                         	#
000081: 04,2726           37442                          CA       MAXN                          	#
000082: 04,2727           54001                          TS       L                             	#
000083: 04,2730           37412                          CA       O-17777                       	#
000084: 04,2731           00006                          EXTEND                                 	#
000085: 04,2732           10064                          DV       TEMPJ                         	#
000086:
000087: 04,2733           24062                          INCR     ERRSUB                        	# 54
000088: 04,2734           56001                          XCH      L                             	#
000089: 04,2735           00006                          EXTEND                                 	#
000090: 04,2736           10064                          DV       TEMPJ                         	#
000091: 04,2737           67436                          AD       MAXP                          	#
000092: 04,2740           00006                          EXTEND                                 	#
000093: 04,2741           12743                          BZF      +2                            	#
000094: 04,2742           13025                          TCF      DVCERROR                      	#
000095: 04,2743           30001                          CA       L                             	#
000096: 04,2744           67377                          AD       O17777                        	#
000097: 04,2745           00006                          EXTEND                                 	#
000098: 04,2746           12750                          BZF      +2                            	#
000099: 04,2747           13025                          TCF      DVCERROR                      	#
000100:
000101: 04,2750           24062                          INCR     ERRSUB                        	# 55
000102: 04,2751           37436                          CA       MAXP                          	#
000103: 04,2752           54001                          TS       L                             	#
000104: 04,2753           37412                          CA       O-17777                       	#
000105: 04,2754           00006                          EXTEND                                 	#
000106: 04,2755           10064                          DV       TEMPJ                         	#
000107: 04,2756           67441                          AD       MAXP-3                        	#
000108: 04,2757           00006                          EXTEND                                 	#
000109: 04,2760           12762                          BZF      +2                            	#
000110: 04,2761           13025                          TCF      DVCERROR                      	#
000111: 04,2762           30001                          CA       L                             	#
000112: 04,2763           67423                          AD       ONE                           	#
000113: 04,2764           00006                          EXTEND                                 	#
000114: 04,2765           12767                          BZF      +2                            	#
000115: 04,2766           13025                          TCF      DVCERROR                      	#
000116:
000117:                                                                                         	# Note that Q still contains +3 from prior tests, and that SKEEP1
000118:                                                                                         	# should still contain -1 (Smally says +1).
000119: 04,2767           37443                          CA       MAXN-1                        	#
000120: 04,2770           54065                          TS       TEMPK                         	#
000121: 04,2771           22007                          ZL                                     	#
000122: 04,2772           37437                          CA       MAXP-1                        	#
000123: 04,2773           00006                          EXTEND                                 	#
000124: 04,2774           10065                          DV       TEMPK                         	#
000125:                                                                                         	#QXCH	L
000126:
000127: 04,2775           24062                          INCR     ERRSUB                        	# 56
000128: 04,2776           67436                          AD       MAXP                          	#
000129: 04,2777           00006                          EXTEND                                 	#
000130: 04,3000           13002                          BZF      +2                            	#
000131: 04,3001           13025                          TCF      DVCERROR                      	#
000132: 04,3002           30001                          CA       L                             	#
000133: 04,3003           67437                          AD       MAXP-1                        	#
000134: 04,3004           00006                          EXTEND                                 	#
000135: 04,3005           13007                          BZF      +2                            	#
000136: 04,3006           13025                          TCF      DVCERROR                      	#
000137:
000138: 04,3007           24062                          INCR     ERRSUB                        	# ERRSUB = 57
000139: 04,3010           00006                          EXTEND                                 	#
000140: 04,3011           22066                          QXCH     SKEEP1                        	#
000141: 04,3012           30002                          CA       Q                             	#
000142: 04,3013           67423                          AD       ONE                           	#
000143: 04,3014           00006                          EXTEND                                 	#
000144: 04,3015           13017                          BZF      +2                            	#
000145: 04,3016           13025                          TCF      DVCERROR                      	#
000146: 04,3017           30066                          CA       SKEEP1                        	#
000147: 04,3020           67421                          AD       NEGTHREE                      	#
000148: 04,3021           00006                          EXTEND                                 	#
000149: 04,3022           13024                          BZF      +2                            	#
000150: 04,3023           13025                          TCF      DVCERROR                      	#
000151:
000152: 04,3024           13026                          TCF      +2                            	#
000153: 04,3025           07240        DVCERROR          TC       ERRORDSP                      	#
000154:
(End of include-file SmallyDVCHK.agc, resuming ValidateSmally.agc)
000058: $SmallyMSUCHK.agc		# 60-62
000001:                                                                                         	# Copyright 2004 Ronald S. Burkey <info@sandroid.org>
000002:                                                                                         	#
000003:                                                                                         	# This file is part of yaAGC.
000004:
000005:                                                                                         	# yaAGC is free software; you can redistribute it and/or modify
000006:                                                                                         	# it under the terms of the GNU General Public License as published by
000007:                                                                                         	# the Free Software Foundation; either version 2 of the License, or
000008:                                                                                         	# (at your option) any later version.
000009:
000010:                                                                                         	# yaAGC is distributed in the hope that it will be useful,
000011:                                                                                         	# but WITHOUT ANY WARRANTY; without even the implied warranty of
000012:                                                                                         	# MERCHANTABILITY or FITNESS FOR A PARTICULAR PURPOSE.  See the
000013:                                                                                         	# GNU General Public License for more details.
000014:
000015:                                                                                         	# You should have received a copy of the GNU General Public License
000016:                                                                                         	# along with yaAGC; if not, write to the Free Software
000017:                                                                                         	# Foundation, Inc., 59 Temple Place, Suite 330, Boston, MA  02111-1307  USA
000018:
000019:                                                                                         	# Filename:	SmallyMSUCHK.agc
000020:                                                                                         	# Purpose:	This is code written from the flowchart on p. 44 of
000021:                                                                                         	#		E-2065, which is a document titled "Block II AGC
000022:                                                                                         	#		Self-Check and Show-Banksum", by Edwin D. Smally.
000023:                                                                                         	# Mod history:	07/10/04 RSB.	Began.
000024:
000025:                                                                                         	# Similar code was apparently originally in Luminary and/or Colossus,
000026:                                                                                         	# but much of it was removed over the course of time to make more room.
000027:                                                                                         	# I don't know what the original code was like, but the flowcharts still
000028:                                                                                         	# exist, so I've rewritten the code from the flowcharts.
000029:
000030:                                                                                         	# P. 44 of Smally
000031:
000032: 04,3026           24062                          INCR     ERRSUB                        	# 60
000033: 04,3027           37416                          CA       NEGZERO                       	#
000034: 04,3030           54001                          TS       L                             	#
000035: 04,3031           00006                          EXTEND                                 	#
000036: 04,3032           20001                          MSU      L                             	#
000037: 04,3033           10000                          CCS      A                             	#
000038: 04,3034           13063                          TCF      MSCERROR                      	#
000039: 04,3035           13040                          TCF      +3                            	#
000040: 04,3036           13063                          TCF      MSCERROR                      	#
000041: 04,3037           13063                          TCF      MSCERROR                      	#
000042:
000043: 04,3040           24062                          INCR     ERRSUB                        	# 61
000044: 04,3041           00006                          EXTEND                                 	#
000045: 04,3042           20001                          MSU      L                             	#
000046: 04,3043           10000                          CCS      A                             	#
000047: 04,3044           13063                          TCF      MSCERROR                      	#
000048: 04,3045           13050                          TCF      +3                            	#
000049: 04,3046           13063                          TCF      MSCERROR                      	#
000050: 04,3047           13063                          TCF      MSCERROR                      	#
000051:
000052: 04,3050           24062                          INCR     ERRSUB                        	# 62
000053: 04,3051           37442                          CA       MAXN                          	#
000054: 04,3052           54001                          TS       L                             	#
000055: 04,3053           37436                          CA       MAXP                          	#
000056: 04,3054           00006                          EXTEND                                 	#
000057: 04,3055           20001                          MSU      L                             	#
000058: 04,3056           67423                          AD       ONE                           	#
000059: 04,3057           00006                          EXTEND                                 	#
000060: 04,3060           13062                          BZF      +2                            	#
000061: 04,3061           13063                          TCF      MSCERROR                      	#
000062:
000063: 04,3062           13064                          TCF      +2                            	#
000064: 04,3063           07240        MSCERROR          TC       ERRORDSP                      	#
000065:
(End of include-file SmallyMSUCHK.agc, resuming ValidateSmally.agc)
000059: $SmallyMASKCHK.agc	# 63-66
000001:                                                                                         	# Copyright 2004 Ronald S. Burkey <info@sandroid.org>
000002:                                                                                         	#
000003:                                                                                         	# This file is part of yaAGC.
000004:
000005:                                                                                         	# yaAGC is free software; you can redistribute it and/or modify
000006:                                                                                         	# it under the terms of the GNU General Public License as published by
000007:                                                                                         	# the Free Software Foundation; either version 2 of the License, or
000008:                                                                                         	# (at your option) any later version.
000009:
000010:                                                                                         	# yaAGC is distributed in the hope that it will be useful,
000011:                                                                                         	# but WITHOUT ANY WARRANTY; without even the implied warranty of
000012:                                                                                         	# MERCHANTABILITY or FITNESS FOR A PARTICULAR PURPOSE.  See the
000013:                                                                                         	# GNU General Public License for more details.
000014:
000015:                                                                                         	# You should have received a copy of the GNU General Public License
000016:                                                                                         	# along with yaAGC; if not, write to the Free Software
000017:                                                                                         	# Foundation, Inc., 59 Temple Place, Suite 330, Boston, MA  02111-1307  USA
000018:
000019:                                                                                         	# Filename:	SmallyMASKCHK.agc
000020:                                                                                         	# Purpose:	This is code written from the flowchart on p. 45 of
000021:                                                                                         	#		E-2065, which is a document titled "Block II AGC
000022:                                                                                         	#		Self-Check and Show-Banksum", by Edwin D. Smally.
000023:                                                                                         	# Mod history:	07/10/04 RSB.	Began.
000024:
000025:                                                                                         	# Similar code was apparently originally in Luminary and/or Colossus,
000026:                                                                                         	# but much of it was removed over the course of time to make more room.
000027:                                                                                         	# I don't know what the original code was like, but the flowcharts still
000028:                                                                                         	# exist, so I've rewritten the code from the flowcharts.
000029:
000030:                                                                                         	# P. 45 of Smally
000031:
000032: 04,3064           24062                          INCR     ERRSUB                        	# 63
000033: 04,3065           37407                          CA       O77770                        	#
000034: 04,3066           77431                          MASK     SEVEN                         	#
000035: 04,3067           00006                          EXTEND                                 	#
000036: 04,3070           13072                          BZF      +2                            	#
000037: 04,3071           13126                          TCF      MSKERROR                      	#
000038:
000039: 04,3072           24062                          INCR     ERRSUB                        	# 64
000040: 04,3073           37431                          CA       SEVEN                         	#
000041: 04,3074           77423                          MASK     ONE                           	#
000042: 04,3075           67417                          AD       NEGONE                        	#
000043: 04,3076           00006                          EXTEND                                 	#
000044: 04,3077           13101                          BZF      +2                            	#
000045: 04,3100           13126                          TCF      MSKERROR                      	#
000046:
000047: 04,3101           37423                          CA       ONE                           	#
000048: 04,3102           54001                          TS       L                             	#
000049: 04,3103           54066                          TS       SKEEP1                        	#
000050:
000051: 04,3104           50000                          INDEX    A                             	#
000052: 04,3105           60000                          AD       SZERO                         	#
000053:
000054: 04,3106           24062                          INCR     ERRSUB                        	# 65
000055: 04,3107           00006                          EXTEND                                 	#
000056: 04,3110           60001                          SU       L                             	#
000057: 04,3111           67417                          AD       NEGONE                        	#
000058: 04,3112           00006                          EXTEND                                 	#
000059: 04,3113           13115                          BZF      +2                            	#
000060: 04,3114           13126                          TCF      MSKERROR                      	#
000061:
000062: 04,3115           00006                          EXTEND                                 	#
000063: 04,3116           50001                          INDEX    L                             	#
000064: 04,3117           60000                          SU       SZERO                         	#
000065:
000066: 04,3120           24062                          INCR     ERRSUB                        	# 66
000067: 04,3121           67423                          AD       ONE                           	#
000068: 04,3122           00006                          EXTEND                                 	#
000069: 04,3123           13125                          BZF      +2                            	#
000070: 04,3124           13126                          TCF      MSKERROR                      	#
000071:
000072: 04,3125           13127                          TCF      +2                            	#
000073: 04,3126           07240        MSKERROR          TC       ERRORDSP                      	#
000074:
(End of include-file SmallyMASKCHK.agc, resuming ValidateSmally.agc)
000060: $SmallyD--SC.agc		# 67-71
000001:                                                                                         	# Copyright 2004 Ronald S. Burkey <info@sandroid.org>
000002:                                                                                         	#
000003:                                                                                         	# This file is part of yaAGC.
000004:
000005:                                                                                         	# yaAGC is free software; you can redistribute it and/or modify
000006:                                                                                         	# it under the terms of the GNU General Public License as published by
000007:                                                                                         	# the Free Software Foundation; either version 2 of the License, or
000008:                                                                                         	# (at your option) any later version.
000009:
000010:                                                                                         	# yaAGC is distributed in the hope that it will be useful,
000011:                                                                                         	# but WITHOUT ANY WARRANTY; without even the implied warranty of
000012:                                                                                         	# MERCHANTABILITY or FITNESS FOR A PARTICULAR PURPOSE.  See the
000013:                                                                                         	# GNU General Public License for more details.
000014:
000015:                                                                                         	# You should have received a copy of the GNU General Public License
000016:                                                                                         	# along with yaAGC; if not, write to the Free Software
000017:                                                                                         	# Foundation, Inc., 59 Temple Place, Suite 330, Boston, MA  02111-1307  USA
000018:
000019:                                                                                         	# Filename:	SmallyD--SC.agc
000020:                                                                                         	# Purpose:	This is code written from the flowchart on p. 46 of
000021:                                                                                         	#		E-2065, which is a document titled "Block II AGC
000022:                                                                                         	#		Self-Check and Show-Banksum", by Edwin D. Smally.
000023:                                                                                         	# Mod history:	07/07/04 RSB.	Began.
000024:
000025:                                                                                         	# Similar code was apparently originally in Luminary and/or Colossus,
000026:                                                                                         	# but much of it was removed over the course of time to make more room.
000027:                                                                                         	# I don't know what the original code was like, but the flowcharts still
000028:                                                                                         	# exist, so I've rewritten the code from the flowcharts.
000029:
000030:                                                                                         	# P. 46 of Smally.
000031:
000032: 04,3127           37417                          CA       NEGONE                        	# Smally says +2, but I think this is right.
000033: 04,3130           54001                          TS       L                             	#
000034: 04,3131           37423                          CA       ONE                           	#
000035:
000036: 04,3132           24062                          INCR     ERRSUB                        	# 67
000037: 04,3133           00006                          EXTEND                                 	#
000038: 04,3134           40001                          DCS      A                             	#
000039: 04,3135           67423                          AD       ONE                           	#
000040: 04,3136           00006                          EXTEND                                 	#
000041: 04,3137           13141                          BZF      +2                            	#
000042: 04,3140           03212                          TC       DSCERROR                      	#
000043: 04,3141           30007                          CA       ZEROES                        	#
000044:
000045:                                                                                         	# The following assumes that c(Q)==3 from previous RETURNs.  In
000046:                                                                                         	# fact, it contains -1 from previous tests, as there have been
000047:                                                                                         	# no intervening returns.  So we'll fix that:
000048: 04,3142           13144                          TCF      +2                            	#
000049: 04,3143           00002                          RETURN                                 	#
000050: 04,3144           03143                          TC       -1                            	#
000051: 04,3145           24062                          INCR     ERRSUB                        	# 70 octal
000052: 04,3146           52002                          DXCH     L                             	#
000053: 04,3147           67421                          AD       NEGTHREE                      	#
000054: 04,3150           00006                          EXTEND                                 	#
000055: 04,3151           13153                          BZF      +2                            	#
000056: 04,3152           13212                          TCF      DSCERROR                      	#
000057: 04,3153           10001                          CCS      L                             	#
000058: 04,3154           13212                          TCF      DSCERROR                      	#
000059: 04,3155           13160                          TCF      +3                            	#
000060: 04,3156           13212                          TCF      DSCERROR                      	#
000061: 04,3157           13212                          TCF      DSCERROR                      	#
000062: 04,3160           30002                          CA       Q                             	#
000063: 04,3161           67417                          AD       NEGONE                        	#
000064: 04,3162           00006                          EXTEND                                 	#
000065: 04,3163           13165                          BZF      +2                            	#
000066: 04,3164           13212                          TCF      DSCERROR                      	#
000067:
000068: 04,3165           37417                          CA       NEGONE                        	#
000069: 04,3166           54002                          TS       Q                             	#
000070: 04,3167           37423                          CA       ONE                           	#
000071:
000072: 04,3170           24062                          INCR     ERRSUB                        	# 71
000073: 04,3171           00006                          EXTEND                                 	#
000074: 04,3172           30002                          DCA      L                             	#
000075: 04,3173           67423                          AD       ONE                           	#
000076: 04,3174           00006                          EXTEND                                 	#
000077: 04,3175           13177                          BZF      +2                            	#
000078: 04,3176           13212                          TCF      DSCERROR                      	#
000079: 04,3177           30001                          CA       L                             	#
000080: 04,3200           67423                          AD       ONE                           	#
000081: 04,3201           00006                          EXTEND                                 	#
000082: 04,3202           13204                          BZF      +2                            	#
000083: 04,3203           13212                          TCF      DSCERROR                      	#
000084: 04,3204           30002                          CA       Q                             	#
000085: 04,3205           67423                          AD       ONE                           	#
000086: 04,3206           00006                          EXTEND                                 	#
000087: 04,3207           13211                          BZF      +2                            	#
000088: 04,3210           13212                          TCF      DSCERROR                      	#
000089:
000090: 04,3211           13213                          TCF      +2                            	#
000091: 04,3212           07240        DSCERROR          TC       ERRORDSP                      	#
000092:
(End of include-file SmallyD--SC.agc, resuming ValidateSmally.agc)
000061: $SmallyD--LCHK.agc	# 72-76
000001:                                                                                         	# Copyright 2004 Ronald S. Burkey <info@sandroid.org>
000002:                                                                                         	#
000003:                                                                                         	# This file is part of yaAGC.
000004:
000005:                                                                                         	# yaAGC is free software; you can redistribute it and/or modify
000006:                                                                                         	# it under the terms of the GNU General Public License as published by
000007:                                                                                         	# the Free Software Foundation; either version 2 of the License, or
000008:                                                                                         	# (at your option) any later version.
000009:
000010:                                                                                         	# yaAGC is distributed in the hope that it will be useful,
000011:                                                                                         	# but WITHOUT ANY WARRANTY; without even the implied warranty of
000012:                                                                                         	# MERCHANTABILITY or FITNESS FOR A PARTICULAR PURPOSE.  See the
000013:                                                                                         	# GNU General Public License for more details.
000014:
000015:                                                                                         	# You should have received a copy of the GNU General Public License
000016:                                                                                         	# along with yaAGC; if not, write to the Free Software
000017:                                                                                         	# Foundation, Inc., 59 Temple Place, Suite 330, Boston, MA  02111-1307  USA
000018:
000019:                                                                                         	# Filename:	SmallyD--LCHK.agc
000020:                                                                                         	# Purpose:	This is code written from the flowchart on p. 47 of
000021:                                                                                         	#		E-2065, which is a document titled "Block II AGC
000022:                                                                                         	#		Self-Check and Show-Banksum", by Edwin D. Smally.
000023:                                                                                         	# Mod history:	07/07/04 RSB.	Began.
000024:
000025:                                                                                         	# Similar code was apparently originally in Luminary and/or Colossus,
000026:                                                                                         	# but much of it was removed over the course of time to make more room.
000027:                                                                                         	# I don't know what the original code was like, but the flowcharts still
000028:                                                                                         	# exist, so I've rewritten the code from the flowcharts.
000029:
000030:                                                                                         	# P. 47 of Smally.
000031:
000032: 04,3213           37442                          CA       MAXN                          	#
000033: 04,3214           54002                          TS       Q                             	#
000034: 04,3215           37417                          CA       NEGONE                        	#
000035: 04,3216           26002                          ADS      Q                             	#
000036:
000037: 04,3217           24062                          INCR     ERRSUB                        	# 72
000038: 04,3220           40002                          CS       Q                             	#
000039: 04,3221           54000                          OVSK                                   	#
000040: 04,3222           13254                          TCF      DLCERROR                      	#
000041:
000042: 04,3223           24062                          INCR     ERRSUB                        	# 73
000043: 04,3224           00006                          EXTEND                                 	#
000044: 04,3225           30002                          DCA      L                             	#
000045: 04,3226           54000                          OVSK                                   	#
000046: 04,3227           13231                          TCF      +2                            	#
000047: 04,3230           13254                          TCF      DLCERROR                      	#
000048:
000049: 04,3231           24062                          INCR     ERRSUB                        	# 74
000050: 04,3232           10000                          CCS      A                             	#
000051: 04,3233           13254                          TCF      DLCERROR                      	#
000052: 04,3234           13254                          TCF      DLCERROR                      	#
000053: 04,3235           13254                          TCF      DLCERROR                      	#
000054:
000055: 04,3236           37400                          CA       O20000                        	#
000056: 04,3237           54002                          TS       Q                             	#
000057:
000058: 04,3240           24062                          INCR     ERRSUB                        	# 75
000059: 04,3241           26002                          ADS      Q                             	#
000060: 04,3242           26002                          ADS      Q                             	#
000061: 04,3243           54000                          OVSK                                   	#
000062: 04,3244           13254                          TCF      DLCERROR                      	#
000063:
000064: 04,3245           24062                          INCR     ERRSUB                        	# 76
000065: 04,3246           26002                          ADS      Q                             	#
000066: 04,3247           67417                          AD       NEGONE                        	#
000067: 04,3250           00006                          EXTEND                                 	#
000068: 04,3251           13253                          BZF      +2                            	#
000069: 04,3252           13254                          TCF      DLCERROR                      	#
000070:
000071: 04,3253           13255                          TCF      +2                            	#
000072: 04,3254           07240        DLCERROR          TC       ERRORDSP                      	#
000073:
(End of include-file SmallyD--LCHK.agc, resuming ValidateSmally.agc)
000062: $SmallyRUPTCHK.agc	# 77
000001:                                                                                         	# Copyright 2004 Ronald S. Burkey <info@sandroid.org>
000002:                                                                                         	#
000003:                                                                                         	# This file is part of yaAGC.
000004:
000005:                                                                                         	# yaAGC is free software; you can redistribute it and/or modify
000006:                                                                                         	# it under the terms of the GNU General Public License as published by
000007:                                                                                         	# the Free Software Foundation; either version 2 of the License, or
000008:                                                                                         	# (at your option) any later version.
000009:
000010:                                                                                         	# yaAGC is distributed in the hope that it will be useful,
000011:                                                                                         	# but WITHOUT ANY WARRANTY; without even the implied warranty of
000012:                                                                                         	# MERCHANTABILITY or FITNESS FOR A PARTICULAR PURPOSE.  See the
000013:                                                                                         	# GNU General Public License for more details.
000014:
000015:                                                                                         	# You should have received a copy of the GNU General Public License
000016:                                                                                         	# along with yaAGC; if not, write to the Free Software
000017:                                                                                         	# Foundation, Inc., 59 Temple Place, Suite 330, Boston, MA  02111-1307  USA
000018:
000019:                                                                                         	# Filename:	SmallyRUPTCHK.agc
000020:                                                                                         	# Purpose:	This is code written from the flowchart on p. 48 of
000021:                                                                                         	#		E-2065, which is a document titled "Block II AGC
000022:                                                                                         	#		Self-Check and Show-Banksum", by Edwin D. Smally.
000023:                                                                                         	# Mod history:	07/07/04 RSB.	Began.
000024:
000025:                                                                                         	# Similar code was apparently originally in Luminary and/or Colossus,
000026:                                                                                         	# but much of it was removed over the course of time to make more room.
000027:                                                                                         	# I don't know what the original code was like, but the flowcharts still
000028:                                                                                         	# exist, so I've rewritten the code from the flowcharts.
000029:
000030:                                                                                         	# P. 48 of Smally
000031:
000032: 04,3255           24062                          INCR     ERRSUB                        	# 77
000033:
(End of include-file SmallyRUPTCHK.agc, resuming ValidateSmally.agc)
000063: 04,3256           00006                          EXTEND                                 	#
000064: 04,3257           37223                          DCA      ASMGEN2                       	#
000065: 04,3260           52005                          DTCF                                   	#
000066:
000067: 05,2000                                          BANK     5                             	#
000068: 05,2000                        SMGEN2                                                   	#
000069: 05,2000           24061                          INCR     ERRNUM                        	#
000070: 05,2001           30007                          CA       ZEROES                        	#
000071: 05,2002           54062                          TS       ERRSUB                        	#
000072:                                                                                         	# ERRNUM==62
000073: $SmallyIN-OUT1.agc	# ERRSUB==1-3
000001:                                                                                         	# Copyright 2004 Ronald S. Burkey <info@sandroid.org>
000002:                                                                                         	#
000003:                                                                                         	# This file is part of yaAGC.
000004:
000005:                                                                                         	# yaAGC is free software; you can redistribute it and/or modify
000006:                                                                                         	# it under the terms of the GNU General Public License as published by
000007:                                                                                         	# the Free Software Foundation; either version 2 of the License, or
000008:                                                                                         	# (at your option) any later version.
000009:
000010:                                                                                         	# yaAGC is distributed in the hope that it will be useful,
000011:                                                                                         	# but WITHOUT ANY WARRANTY; without even the implied warranty of
000012:                                                                                         	# MERCHANTABILITY or FITNESS FOR A PARTICULAR PURPOSE.  See the
000013:                                                                                         	# GNU General Public License for more details.
000014:
000015:                                                                                         	# You should have received a copy of the GNU General Public License
000016:                                                                                         	# along with yaAGC; if not, write to the Free Software
000017:                                                                                         	# Foundation, Inc., 59 Temple Place, Suite 330, Boston, MA  02111-1307  USA
000018:
000019:                                                                                         	# Filename:	SmallyIN-OUT1.agc
000020:                                                                                         	# Purpose:	This is code written from the flowchart on p. 49 of
000021:                                                                                         	#		E-2065, which is a document titled "Block II AGC
000022:                                                                                         	#		Self-Check and Show-Banksum", by Edwin D. Smally.
000023:                                                                                         	# Mod history:	07/07/04 RSB.	Began.
000024:
000025:                                                                                         	# Similar code was apparently originally in Luminary and/or Colossus,
000026:                                                                                         	# but much of it was removed over the course of time to make more room.
000027:                                                                                         	# I don't know what the original code was like, but the flowcharts still
000028:                                                                                         	# exist, so I've rewritten the code from the flowcharts.
000029:
000030:                                                                                         	# P. 49 of Smally
000031:
000032: 05,2003           24062                          INCR     ERRSUB                        	#
000033: 05,2004           37417                          CA       NEGONE                        	#
000034: 05,2005           00006                          EXTEND                                 	#
000035: 05,2006           01002                          WRITE    Q                             	#
000036: 05,2007           67423                          AD       ONE                           	#
000037: 05,2010           00006                          EXTEND                                 	#
000038: 05,2011           12013                          BZF      +2                            	#
000039: 05,2012           12032                          TCF      IO1ERROR                      	#
000040:
000041: 05,2013           24062                          INCR     ERRSUB                        	#
000042: 05,2014           22002                          LXCH     Q                             	#
000043: 05,2015           00006                          EXTEND                                 	#
000044: 05,2016           00001                          READ     L                             	#
000045: 05,2017           67423                          AD       ONE                           	#
000046: 05,2020           00006                          EXTEND                                 	#
000047: 05,2021           12023                          BZF      +2                            	#
000048: 05,2022           12032                          TCF      IO1ERROR                      	#
000049:
000050: 05,2023           24062                          INCR     ERRSUB                        	#
000051: 05,2024           30001                          CA       L                             	#
000052: 05,2025           67423                          AD       ONE                           	#
000053: 05,2026           00006                          EXTEND                                 	#
000054: 05,2027           12031                          BZF      +2                            	#
000055: 05,2030           12032                          TCF      IO1ERROR                      	#
000056:
000057: 05,2031           12033                          TCF      +2                            	#
000058: 05,2032           07240        IO1ERROR          TC       ERRORDSP                      	#
000059:
(End of include-file SmallyIN-OUT1.agc, resuming ValidateSmally.agc)
000074: $SmallyIN-OUT2.agc	# 4-5
000001:                                                                                         	# Copyright 2004 Ronald S. Burkey <info@sandroid.org>
000002:                                                                                         	#
000003:                                                                                         	# This file is part of yaAGC.
000004:
000005:                                                                                         	# yaAGC is free software; you can redistribute it and/or modify
000006:                                                                                         	# it under the terms of the GNU General Public License as published by
000007:                                                                                         	# the Free Software Foundation; either version 2 of the License, or
000008:                                                                                         	# (at your option) any later version.
000009:
000010:                                                                                         	# yaAGC is distributed in the hope that it will be useful,
000011:                                                                                         	# but WITHOUT ANY WARRANTY; without even the implied warranty of
000012:                                                                                         	# MERCHANTABILITY or FITNESS FOR A PARTICULAR PURPOSE.  See the
000013:                                                                                         	# GNU General Public License for more details.
000014:
000015:                                                                                         	# You should have received a copy of the GNU General Public License
000016:                                                                                         	# along with yaAGC; if not, write to the Free Software
000017:                                                                                         	# Foundation, Inc., 59 Temple Place, Suite 330, Boston, MA  02111-1307  USA
000018:
000019:                                                                                         	# Filename:	SmallyIN-OUT2.agc
000020:                                                                                         	# Purpose:	This is code written from the flowchart on p. 50 of
000021:                                                                                         	#		E-2065, which is a document titled "Block II AGC
000022:                                                                                         	#		Self-Check and Show-Banksum", by Edwin D. Smally.
000023:                                                                                         	# Mod history:	07/07/04 RSB.	Began.
000024:
000025:                                                                                         	# Similar code was apparently originally in Luminary and/or Colossus,
000026:                                                                                         	# but much of it was removed over the course of time to make more room.
000027:                                                                                         	# I don't know what the original code was like, but the flowcharts still
000028:                                                                                         	# exist, so I've rewritten the code from the flowcharts.
000029:
000030:                                                                                         	# P. 50 of Smally
000031:
000032: 05,2033           37421                          CA       NEGTHREE                      	#
000033: 05,2034           54001                          TS       L                             	#
000034: 05,2035           37437                          CA       MAXP-1                        	#
000035:
000036: 05,2036           24062                          INCR     ERRSUB                        	#
000037: 05,2037           00006                          EXTEND                                 	#
000038: 05,2040           04001                          ROR      L                             	#
000039: 05,2041           67423                          AD       ONE                           	#
000040: 05,2042           00006                          EXTEND                                 	#
000041: 05,2043           12045                          BZF      +2                            	#
000042: 05,2044           12063                          TCF      IO2ERROR                      	#
000043:
000044: 05,2045           37437                          CA       MAXP-1                        	#
000045:
000046: 05,2046           24062                          INCR     ERRSUB                        	#
000047: 05,2047           00006                          EXTEND                                 	#
000048: 05,2050           05001                          WOR      L                             	#
000049: 05,2051           67423                          AD       ONE                           	#
000050: 05,2052           00006                          EXTEND                                 	#
000051: 05,2053           12055                          BZF      +2                            	#
000052: 05,2054           12063                          TCF      IO2ERROR                      	#
000053: 05,2055           30001                          CA       L                             	#
000054: 05,2056           67423                          AD       ONE                           	#
000055: 05,2057           00006                          EXTEND                                 	#
000056: 05,2060           12062                          BZF      +2                            	#
000057: 05,2061           12063                          TCF      IO2ERROR                      	#
000058:
000059: 05,2062           12064                          TCF      +2                            	#
000060: 05,2063           07240        IO2ERROR          TC       ERRORDSP                      	#
000061:
(End of include-file SmallyIN-OUT2.agc, resuming ValidateSmally.agc)
000075: $SmallyIN-OUT3.agc	# 6-10
000001:                                                                                         	# Copyright 2004 Ronald S. Burkey <info@sandroid.org>
000002:                                                                                         	#
000003:                                                                                         	# This file is part of yaAGC.
000004:
000005:                                                                                         	# yaAGC is free software; you can redistribute it and/or modify
000006:                                                                                         	# it under the terms of the GNU General Public License as published by
000007:                                                                                         	# the Free Software Foundation; either version 2 of the License, or
000008:                                                                                         	# (at your option) any later version.
000009:
000010:                                                                                         	# yaAGC is distributed in the hope that it will be useful,
000011:                                                                                         	# but WITHOUT ANY WARRANTY; without even the implied warranty of
000012:                                                                                         	# MERCHANTABILITY or FITNESS FOR A PARTICULAR PURPOSE.  See the
000013:                                                                                         	# GNU General Public License for more details.
000014:
000015:                                                                                         	# You should have received a copy of the GNU General Public License
000016:                                                                                         	# along with yaAGC; if not, write to the Free Software
000017:                                                                                         	# Foundation, Inc., 59 Temple Place, Suite 330, Boston, MA  02111-1307  USA
000018:
000019:                                                                                         	# Filename:	SmallyIN-OUT3.agc
000020:                                                                                         	# Purpose:	This is code written from the flowchart on p. 51 of
000021:                                                                                         	#		E-2065, which is a document titled "Block II AGC
000022:                                                                                         	#		Self-Check and Show-Banksum", by Edwin D. Smally.
000023:                                                                                         	# Mod history:	07/07/04 RSB.	Began.
000024:
000025:                                                                                         	# Similar code was apparently originally in Luminary and/or Colossus,
000026:                                                                                         	# but much of it was removed over the course of time to make more room.
000027:                                                                                         	# I don't know what the original code was like, but the flowcharts still
000028:                                                                                         	# exist, so I've rewritten the code from the flowcharts.
000029:
000030:                                                                                         	# P. 51 of Smally.
000031:
000032: 05,2064           37443                          CA       MAXN-1                        	#
000033: 05,2065           54001                          TS       L                             	#
000034: 05,2066           37377                          CA       O17777                        	#
000035:
000036: 05,2067           24062                          INCR     ERRSUB                        	#
000037: 05,2070           00006                          EXTEND                                 	#
000038: 05,2071           02001                          RAND     L                             	#
000039: 05,2072           67417                          AD       NEGONE                        	#
000040: 05,2073           00006                          EXTEND                                 	#
000041: 05,2074           12076                          BZF      +2                            	#
000042: 05,2075           12135                          TCF      IO3ERROR                      	#
000043:
000044: 05,2076           37377                          CA       O17777                        	#
000045:
000046: 05,2077           24062                          INCR     ERRSUB                        	#
000047: 05,2100           00006                          EXTEND                                 	#
000048: 05,2101           03001                          WAND     L                             	#
000049: 05,2102           67417                          AD       NEGONE                        	#
000050: 05,2103           00006                          EXTEND                                 	#
000051: 05,2104           12106                          BZF      +2                            	#
000052: 05,2105           12135                          TCF      IO3ERROR                      	#
000053: 05,2106           30001                          CA       L                             	#
000054: 05,2107           67417                          AD       NEGONE                        	#
000055: 05,2110           00006                          EXTEND                                 	#
000056: 05,2111           12113                          BZF      +2                            	#
000057: 05,2112           12135                          TCF      IO3ERROR                      	#
000058:
000059: 05,2113           37426                          CA       FIVE                          	#
000060: 05,2114           40000                          COM                                    	#
000061: 05,2115           54001                          TS       L                             	#
000062: 05,2116           37426                          CA       FIVE                          	#
000063: 05,2117           24000                          INCR     A                             	#
000064:
000065: 05,2120           24062                          INCR     ERRSUB                        	#
000066: 05,2121           00006                          EXTEND                                 	#
000067: 05,2122           06001                          RXOR     L                             	#
000068: 05,2123           67425                          AD       THREE                         	#
000069: 05,2124           00006                          EXTEND                                 	#
000070: 05,2125           12127                          BZF      +2                            	#
000071: 05,2126           12135                          TCF      IO3ERROR                      	#
000072: 05,2127           30001                          CA       L                             	#
000073: 05,2130           67426                          AD       FIVE                          	#
000074: 05,2131           00006                          EXTEND                                 	#
000075: 05,2132           12134                          BZF      +2                            	#
000076: 05,2133           12135                          TCF      IO3ERROR                      	#
000077:
000078: 05,2134           12136                          TCF      +2                            	#
000079: 05,2135           07240        IO3ERROR          TC       ERRORDSP                      	#
000080:
(End of include-file SmallyIN-OUT3.agc, resuming ValidateSmally.agc)
000076: $SmallyCOUNTCHK.agc	# 11
000001:                                                                                         	# Copyright 2004 Ronald S. Burkey <info@sandroid.org>
000002:                                                                                         	#
000003:                                                                                         	# This file is part of yaAGC.
000004:
000005:                                                                                         	# yaAGC is free software; you can redistribute it and/or modify
000006:                                                                                         	# it under the terms of the GNU General Public License as published by
000007:                                                                                         	# the Free Software Foundation; either version 2 of the License, or
000008:                                                                                         	# (at your option) any later version.
000009:
000010:                                                                                         	# yaAGC is distributed in the hope that it will be useful,
000011:                                                                                         	# but WITHOUT ANY WARRANTY; without even the implied warranty of
000012:                                                                                         	# MERCHANTABILITY or FITNESS FOR A PARTICULAR PURPOSE.  See the
000013:                                                                                         	# GNU General Public License for more details.
000014:
000015:                                                                                         	# You should have received a copy of the GNU General Public License
000016:                                                                                         	# along with yaAGC; if not, write to the Free Software
000017:                                                                                         	# Foundation, Inc., 59 Temple Place, Suite 330, Boston, MA  02111-1307  USA
000018:
000019:                                                                                         	# Filename:	SmallyCOUNTCHK.agc
000020:                                                                                         	# Purpose:	This is code written from the flowchart on p. 52 of
000021:                                                                                         	#		E-2065, which is a document titled "Block II AGC
000022:                                                                                         	#		Self-Check and Show-Banksum", by Edwin D. Smally.
000023:                                                                                         	# Mod history:	07/07/04 RSB.	Began.
000024:
000025:                                                                                         	# Similar code was apparently originally in Luminary and/or Colossus,
000026:                                                                                         	# but much of it was removed over the course of time to make more room.
000027:                                                                                         	# I don't know what the original code was like, but the flowcharts still
000028:                                                                                         	# exist, so I've rewritten the code from the flowcharts.
000029:
000030: 05,2136           24062                          INCR     ERRSUB                        	#
000031:
000032:                                                                                         	# P. 52 of Smally
000033:
000034: 05,2137           37436                          CA       MAXP                          	#
000035: 05,2140           54073                          TS       SKEEP6                        	#
000036: 05,2141           37442                          CA       MAXN                          	#
000037: 05,2142           54074                          TS       SKEEP7                        	#
000038:
000039: 05,2143           30073        CCKLOOP1          CA       SKEEP6                        	#
000040: 05,2144           54002                          TS       Q                             	#
000041:
000042: 05,2145           30002        CCKLOOP2          CA       Q                             	#
000043: 05,2146           54001                          TS       L                             	#
000044:
000045: 05,2147           10000                          CCS      A                             	#
000046: 05,2150           12154                          TCF      +4                            	#
000047: 05,2151           12176                          TCF      CCK+0                         	#
000048: 05,2152           12166                          TCF      CCKNEG                        	#
000049: 05,2153           12205                          TCF      CCKERROR                      	# Don't know where this is supposed to go
000050:
000051: 05,2154           00006                          EXTEND                                 	# Smally says AD L, but that makes no sense.
000052: 05,2155           60001                          SU       L                             	#
000053: 05,2156           67423                          AD       ONE                           	#
000054: 05,2157           00006                          EXTEND                                 	#
000055: 05,2160           12162                          BZF      +2                            	#
000056: 05,2161           12205                          TCF      CCKERROR                      	#
000057:
000058: 05,2162           30073                          CA       SKEEP6                        	#
000059: 05,2163           40000                          COM                                    	#
000060: 05,2164           54002                          TS       Q                             	#
000061: 05,2165           12145                          TCF      CCKLOOP2                      	#
000062:
000063: 05,2166           54073        CCKNEG            TS       SKEEP6                        	#
000064:
000065: 05,2167           60074                          AD       SKEEP7                        	#
000066: 05,2170           67423                          AD       ONE                           	#
000067: 05,2171           00006                          EXTEND                                 	#
000068: 05,2172           12174                          BZF      +2                            	#
000069: 05,2173           12205                          TCF      CCKERROR                      	#
000070:
000071: 05,2174           24074                          INCR     SKEEP7                        	#
000072: 05,2175           12143                          TCF      CCKLOOP1                      	#
000073:
000074: 05,2176           30073        CCK+0             CA       SKEEP6                        	#
000075: 05,2177           60074                          AD       SKEEP7                        	#
000076: 05,2200           10000                          CCS      A                             	#
000077: 05,2201           12205                          TCF      CCKERROR                      	#
000078: 05,2202           12205                          TCF      CCKERROR                      	#
000079: 05,2203           12205                          TCF      CCKERROR                      	#
000080:
000081: 05,2204           12206                          TCF      +2                            	#
000082: 05,2205           07240        CCKERROR          TC       ERRORDSP                      	#
000083:
000084:
(End of include-file SmallyCOUNTCHK.agc, resuming ValidateSmally.agc)
000077: $SmallyO-UFLOW.agc	# 12
000001:                                                                                         	# Copyright 2004 Ronald S. Burkey <info@sandroid.org>
000002:                                                                                         	#
000003:                                                                                         	# This file is part of yaAGC.
000004:
000005:                                                                                         	# yaAGC is free software; you can redistribute it and/or modify
000006:                                                                                         	# it under the terms of the GNU General Public License as published by
000007:                                                                                         	# the Free Software Foundation; either version 2 of the License, or
000008:                                                                                         	# (at your option) any later version.
000009:
000010:                                                                                         	# yaAGC is distributed in the hope that it will be useful,
000011:                                                                                         	# but WITHOUT ANY WARRANTY; without even the implied warranty of
000012:                                                                                         	# MERCHANTABILITY or FITNESS FOR A PARTICULAR PURPOSE.  See the
000013:                                                                                         	# GNU General Public License for more details.
000014:
000015:                                                                                         	# You should have received a copy of the GNU General Public License
000016:                                                                                         	# along with yaAGC; if not, write to the Free Software
000017:                                                                                         	# Foundation, Inc., 59 Temple Place, Suite 330, Boston, MA  02111-1307  USA
000018:
000019:                                                                                         	# Filename:	SmallyO-UFLOW.agc
000020:                                                                                         	# Purpose:	This is code written from the flowchart on p. 53 of
000021:                                                                                         	#		E-2065, which is a document titled "Block II AGC
000022:                                                                                         	#		Self-Check and Show-Banksum", by Edwin D. Smally.
000023:                                                                                         	# Mod history:	07/07/04 RSB.	Began.
000024:
000025:                                                                                         	# Similar code was apparently originally in Luminary and/or Colossus,
000026:                                                                                         	# but much of it was removed over the course of time to make more room.
000027:                                                                                         	# I don't know what the original code was like, but the flowcharts still
000028:                                                                                         	# exist, so I've rewritten the code from the flowcharts.
000029:
000030:                                                                                         	# P. 53 of Smally
000031:
000032: 05,2206           24062                          INCR     ERRSUB                        	#
000033:
000034: 05,2207           37442                          CA       MAXN                          	#
000035: 05,2210           54072                          TS       SKEEP5                        	#
000036: 05,2211           37436                          CA       MAXP                          	#
000037:
000038: 05,2212           00004        OUFLOOP1          INHINT                                 	#
000039:
000040: 05,2213           67436                          AD       MAXP                          	#
000041: 05,2214           67423                          AD       ONE                           	#
000042: 05,2215           54002                          TS       Q                             	#
000043: 05,2216           12217                          NOOP                                   	#
000044:
000045: 05,2217           10002        OUFLOOP2          CCS      Q                             	#
000046: 05,2220           12224                          TCF      +4                            	#
000047: 05,2221           12272                          TCF      OUFERROR                      	#
000048: 05,2222           12242                          TCF      OUFNZERO                      	#
000049: 05,2223           12272                          TCF      OUFERROR                      	#
000050:
000051: 05,2224           54071                          TS       SKEEP4                        	#
000052: 05,2225           12257                          TCF      OUFDONE                       	#
000053:
000054: 05,2226           30071                          CA       SKEEP4                        	#
000055: 05,2227           60072                          AD       SKEEP5                        	#
000056: 05,2230           67423                          AD       ONE                           	#
000057: 05,2231           00006                          EXTEND                                 	#
000058: 05,2232           12234                          BZF      +2                            	#
000059: 05,2233           12272                          TCF      OUFERROR                      	#
000060:
000061: 05,2234           30072                          CA       SKEEP5                        	#
000062: 05,2235           67442                          AD       MAXN                          	#
000063: 05,2236           67417                          AD       NEGONE                        	#
000064: 05,2237           54002                          TS       Q                             	#
000065: 05,2240           12241                          NOOP                                   	#
000066: 05,2241           12217                          TCF      OUFLOOP2                      	#
000067:
000068: 05,2242           54070        OUFNZERO          TS       SKEEP3                        	#
000069: 05,2243           12272                          TCF      OUFERROR                      	#
000070:
000071: 05,2244           30070                          CA       SKEEP3                        	#
000072: 05,2245           60072                          AD       SKEEP5                        	#
000073: 05,2246           67423                          AD       ONE                           	#
000074: 05,2247           00006                          EXTEND                                 	#
000075: 05,2250           12252                          BZF      +2                            	#
000076: 05,2251           12272                          TCF      OUFERROR                      	#
000077:
000078: 05,2252           00003                          RELINT                                 	#
000079:
000080: 05,2253           30071                          CA       SKEEP4                        	#
000081: 05,2254           00006                          EXTEND                                 	#
000082: 05,2255           26072                          DIM      SKEEP5                        	#
000083: 05,2256           12212                          TCF      OUFLOOP1                      	#
000084:
000085: 05,2257           10072        OUFDONE           CCS      SKEEP5                        	# Smally says that SKEEP5 is +1
000086: 05,2260           12272                          TCF      OUFERROR                      	# here, but that has to be wrong
000087: 05,2261           12272                          TCF      OUFERROR                      	# since SKEEP5 is always negative.
000088: 05,2262           12272                          TCF      OUFERROR                      	# Must be -1.
000089:
000090: 05,2263           30071                          CA       SKEEP4                        	#
000091: 05,2264           67442                          AD       MAXN                          	#
000092: 05,2265           00006                          EXTEND                                 	#
000093: 05,2266           12270                          BZF      +2                            	#
000094: 05,2267           12272                          TCF      OUFERROR                      	#
000095:
000096: 05,2270           00003                          RELINT                                 	#
000097:
000098: 05,2271           12273                          TCF      +2                            	#
000099: 05,2272           07240        OUFERROR          TC       ERRORDSP                      	#
000100:
(End of include-file SmallyO-UFLOW.agc, resuming ValidateSmally.agc)
000078: 05,2273           00006                          EXTEND                                 	#
000079: 05,2274           37225                          DCA      ASMGEN3                       	#
000080: 05,2275           52005                          DTCF                                   	#
000081:
000082: 06,2000                                          BANK     6                             	#
000083: 06,2000                        SMGEN3                                                   	#
000084: 06,2000           24061                          INCR     ERRNUM                        	#
000085: 06,2001           30007                          CA       ZEROES                        	#
000086: 06,2002           54062                          TS       ERRSUB                        	#
000087:                                                                                         	# ERRNUM==63
000088: $SmallyCNTRCHK.agc	# ERRSUB==1
000001:                                                                                         	# Copyright 2004 Ronald S. Burkey <info@sandroid.org>
000002:                                                                                         	#
000003:                                                                                         	# This file is part of yaAGC.
000004:
000005:                                                                                         	# yaAGC is free software; you can redistribute it and/or modify
000006:                                                                                         	# it under the terms of the GNU General Public License as published by
000007:                                                                                         	# the Free Software Foundation; either version 2 of the License, or
000008:                                                                                         	# (at your option) any later version.
000009:
000010:                                                                                         	# yaAGC is distributed in the hope that it will be useful,
000011:                                                                                         	# but WITHOUT ANY WARRANTY; without even the implied warranty of
000012:                                                                                         	# MERCHANTABILITY or FITNESS FOR A PARTICULAR PURPOSE.  See the
000013:                                                                                         	# GNU General Public License for more details.
000014:
000015:                                                                                         	# You should have received a copy of the GNU General Public License
000016:                                                                                         	# along with yaAGC; if not, write to the Free Software
000017:                                                                                         	# Foundation, Inc., 59 Temple Place, Suite 330, Boston, MA  02111-1307  USA
000018:
000019:                                                                                         	# Filename:	SmallyCNTRCHK.agc
000020:                                                                                         	# Purpose:	This is code written from the flowchart on p. 55 of
000021:                                                                                         	#		E-2065, which is a document titled "Block II AGC
000022:                                                                                         	#		Self-Check and Show-Banksum", by Edwin D. Smally.
000023:                                                                                         	# Mod history:	07/07/04 RSB.	Began.
000024:
000025:                                                                                         	# Similar code was apparently originally in Luminary and/or Colossus,
000026:                                                                                         	# but much of it was removed over the course of time to make more room.
000027:                                                                                         	# I don't know what the original code was like, but the flowcharts still
000028:                                                                                         	# exist, so I've rewritten the code from the flowcharts.
000029:
000030:                                                                                         	# P. 55 of Smally
000031:
000032: 06,2003           24062                          INCR     ERRSUB                        	#
000033:
(End of include-file SmallyCNTRCHK.agc, resuming ValidateSmally.agc)
000089: $SmallyCYCLSHFT.agc	# 2-3
000001:                                                                                         	# Copyright 2004 Ronald S. Burkey <info@sandroid.org>
000002:                                                                                         	#
000003:                                                                                         	# This file is part of yaAGC.
000004:
000005:                                                                                         	# yaAGC is free software; you can redistribute it and/or modify
000006:                                                                                         	# it under the terms of the GNU General Public License as published by
000007:                                                                                         	# the Free Software Foundation; either version 2 of the License, or
000008:                                                                                         	# (at your option) any later version.
000009:
000010:                                                                                         	# yaAGC is distributed in the hope that it will be useful,
000011:                                                                                         	# but WITHOUT ANY WARRANTY; without even the implied warranty of
000012:                                                                                         	# MERCHANTABILITY or FITNESS FOR A PARTICULAR PURPOSE.  See the
000013:                                                                                         	# GNU General Public License for more details.
000014:
000015:                                                                                         	# You should have received a copy of the GNU General Public License
000016:                                                                                         	# along with yaAGC; if not, write to the Free Software
000017:                                                                                         	# Foundation, Inc., 59 Temple Place, Suite 330, Boston, MA  02111-1307  USA
000018:
000019:                                                                                         	# Filename:	SmallyCYCLSHFT.agc
000020:                                                                                         	# Purpose:	This is code written from the flowchart on p. 56 of
000021:                                                                                         	#		E-2065, which is a document titled "Block II AGC
000022:                                                                                         	#		Self-Check and Show-Banksum", by Edwin D. Smally.
000023:                                                                                         	# Mod history:	07/07/04 RSB.	Began.
000024:
000025:                                                                                         	# Similar code was apparently originally in Luminary and/or Colossus,
000026:                                                                                         	# but much of it was removed over the course of time to make more room.
000027:                                                                                         	# I don't know what the original code was like, but the flowcharts still
000028:                                                                                         	# exist, so I've rewritten the code from the flowcharts.
000029:
000030:                                                                                         	# P. 56 of Smally
000031:
000032: 06,2004           24062                          INCR     ERRSUB                        	#
000033: 06,2005           24062                          INCR     ERRSUB                        	#
000034:
(End of include-file SmallyCYCLSHFT.agc, resuming ValidateSmally.agc)
000090: 06,2006           00006                          EXTEND                                 	#
000091: 06,2007           37227                          DCA      ASMMP                         	#
000092: 06,2010           52005                          DTCF                                   	#
000093:
000094: 07,2000                                          BANK     7                             	#
000095: 07,2000                        SMMP                                                     	#
000096: 07,2000           24061                          INCR     ERRNUM                        	#
000097: 07,2001           30007                          CA       ZEROES                        	#
000098: 07,2002           54062                          TS       ERRSUB                        	#
000099:                                                                                         	# ERRNUM==64
000100: $SmallyMPNMBRS.agc	# ERRSUB=1-4
000001:                                                                                         	# Copyright 2004 Ronald S. Burkey <info@sandroid.org>
000002:                                                                                         	#
000003:                                                                                         	# This file is part of yaAGC.
000004:
000005:                                                                                         	# yaAGC is free software; you can redistribute it and/or modify
000006:                                                                                         	# it under the terms of the GNU General Public License as published by
000007:                                                                                         	# the Free Software Foundation; either version 2 of the License, or
000008:                                                                                         	# (at your option) any later version.
000009:
000010:                                                                                         	# yaAGC is distributed in the hope that it will be useful,
000011:                                                                                         	# but WITHOUT ANY WARRANTY; without even the implied warranty of
000012:                                                                                         	# MERCHANTABILITY or FITNESS FOR A PARTICULAR PURPOSE.  See the
000013:                                                                                         	# GNU General Public License for more details.
000014:
000015:                                                                                         	# You should have received a copy of the GNU General Public License
000016:                                                                                         	# along with yaAGC; if not, write to the Free Software
000017:                                                                                         	# Foundation, Inc., 59 Temple Place, Suite 330, Boston, MA  02111-1307  USA
000018:
000019:                                                                                         	# Filename:	SmallyMPNMBRS.agc
000020:                                                                                         	# Purpose:	This is code written from the flowchart on p. 58-61 of
000021:                                                                                         	#		E-2065, which is a document titled "Block II AGC
000022:                                                                                         	#		Self-Check and Show-Banksum", by Edwin D. Smally.
000023:                                                                                         	# Mod history:	07/07/04 RSB.	Began.
000024:
000025:                                                                                         	# Similar code was apparently originally in Luminary and/or Colossus,
000026:                                                                                         	# but much of it was removed over the course of time to make more room.
000027:                                                                                         	# I don't know what the original code was like, but the flowcharts still
000028:                                                                                         	# exist, so I've rewritten the code from the flowcharts.
000029:
000030:                                                                                         	# P. 58 of Smally.
000031: 07,2003           24062                          INCR     ERRSUB                        	#
000032: 07,2004           37436                          CA       MAXP                          	# 37777
000033: 07,2005           54067        MPLOOP1           TS       SKEEP2                        	#
000034: 07,2006           37436                          CA       MAXP                          	# 37777
000035: 07,2007           00006                          EXTEND                                 	#
000036: 07,2010           70067                          MP       SKEEP2                        	#
000037: 07,2011           60001                          AD       L                             	#
000038: 07,2012           67442                          AD       MAXN                          	# 40000
000039: 07,2013           10000                          CCS      A                             	#
000040: 07,2014           12015                          NOOP                                   	#
000041: 07,2015           12016                          NOOP                                   	#
000042: 07,2016           12120                          TCF      MPERROR                       	#
000043: 07,2017           30067                          CA       SKEEP2                        	#
000044: 07,2020           67417                          AD       NEGONE                        	#
000045: 07,2021           00006                          EXTEND                                 	#
000046: 07,2022           12024                          BZF      +2                            	#
000047: 07,2023           02005                          TC       MPLOOP1                       	#
000048:
000049: 07,2024           24062                          INCR     ERRSUB                        	#
000050:                                                                                         	# P. 59 of Smally.
000051: 07,2025           37436                          CA       MAXP                          	# 37777
000052: 07,2026           54067        MPLOOP2           TS       SKEEP2                        	#
000053: 07,2027           37417                          CA       NEGONE                        	# 37777
000054: 07,2030           00006                          EXTEND                                 	#
000055: 07,2031           70067                          MP       SKEEP2                        	#
000056: 07,2032           10000                          CCS      A                             	#
000057: 07,2033           12034                          NOOP                                   	#
000058: 07,2034           12035                          NOOP                                   	#
000059: 07,2035           12120                          TCF      MPERROR                       	#
000060: 07,2036           30001                          CA       L                             	#
000061: 07,2037           60067                          AD       SKEEP2                        	#
000062: 07,2040           10000                          CCS      A                             	#
000063: 07,2041           12042                          NOOP                                   	#
000064: 07,2042           12043                          NOOP                                   	#
000065: 07,2043           12120                          TCF      MPERROR                       	#
000066: 07,2044           30067                          CA       SKEEP2                        	#
000067: 07,2045           67417                          AD       NEGONE                        	#
000068: 07,2046           00006                          EXTEND                                 	#
000069: 07,2047           12051                          BZF      +2                            	#
000070: 07,2050           02026                          TC       MPLOOP2                       	#
000071:
000072: 07,2051           24062                          INCR     ERRSUB                        	#
000073:                                                                                         	# P. 60 of Smally
000074: 07,2052           37436                          CA       MAXP                          	# 37777
000075: 07,2053           54066        MPLOOP3           TS       SKEEP1                        	#
000076: 07,2054           30066                          CA       SKEEP1                        	#
000077: 07,2055           00006                          EXTEND                                 	#
000078: 07,2056           77436                          MP       MAXP                          	# 37777
000079: 07,2057           60001                          AD       L                             	#
000080: 07,2060           67442                          AD       MAXN                          	# 40000
000081: 07,2061           10000                          CCS      A                             	#
000082: 07,2062           12063                          NOOP                                   	#
000083: 07,2063           12064                          NOOP                                   	#
000084: 07,2064           12120                          TCF      MPERROR                       	#
000085: 07,2065           30066                          CA       SKEEP1                        	#
000086: 07,2066           67417                          AD       NEGONE                        	#
000087: 07,2067           00006                          EXTEND                                 	#
000088: 07,2070           12072                          BZF      +2                            	#
000089: 07,2071           02053                          TC       MPLOOP3                       	#
000090:
000091: 07,2072           24062                          INCR     ERRSUB                        	#
000092:                                                                                         	# P. 61 of Smally
000093: 07,2073           37436                          CA       MAXP                          	# 37777
000094: 07,2074           54066        MPLOOP4           TS       SKEEP1                        	#
000095: 07,2075           30066                          CA       SKEEP1                        	#
000096: 07,2076           00006                          EXTEND                                 	#
000097: 07,2077           77417                          MP       NEGONE                        	#
000098: 07,2100           10000                          CCS      A                             	#
000099: 07,2101           12102                          NOOP                                   	#
000100: 07,2102           12103                          NOOP                                   	#
000101: 07,2103           12120                          TCF      MPERROR                       	#
000102: 07,2104           30001                          CA       L                             	#
000103: 07,2105           60066                          AD       SKEEP1                        	#
000104: 07,2106           10000                          CCS      A                             	#
000105: 07,2107           12110                          NOOP                                   	#
000106: 07,2110           12111                          NOOP                                   	#
000107: 07,2111           12120                          TCF      MPERROR                       	#
000108: 07,2112           30066                          CA       SKEEP1                        	#
000109: 07,2113           67417                          AD       NEGONE                        	#
000110: 07,2114           00006                          EXTEND                                 	#
000111: 07,2115           12117                          BZF      +2                            	#
000112: 07,2116           02074                          TC       MPLOOP4                       	#
000113:
000114:                                                                                         	# All done.
000115: 07,2117           12121                          TCF      MPDONE                        	#
000116: 07,2120           07240        MPERROR           TC       ERRORDSP                      	#
000117: 07,2121                        MPDONE                                                   	#
000118:
(End of include-file SmallyMPNMBRS.agc, resuming ValidateSmally.agc)
000101: 07,2121           00006                          EXTEND                                 	#
000102: 07,2122           37231                          DCA      ASMDV                         	#
000103: 07,2123           52005                          DTCF                                   	#
000104:
000105: 10,2000                                          BANK     10                            	#
000106: 10,2000                        SMDV                                                     	#
000107: 10,2000           24061                          INCR     ERRNUM                        	#
000108: 10,2001           30007                          CA       ZEROES                        	#
000109: 10,2002           54062                          TS       ERRSUB                        	#
000110:                                                                                         	# ERRNUM==65
000111: $SmallyDVCHECK.agc	# ERRSUB=1-11
000001:                                                                                         	# Copyright 2004 Ronald S. Burkey <info@sandroid.org>
000002:                                                                                         	#
000003:                                                                                         	# This file is part of yaAGC.
000004:
000005:                                                                                         	# yaAGC is free software; you can redistribute it and/or modify
000006:                                                                                         	# it under the terms of the GNU General Public License as published by
000007:                                                                                         	# the Free Software Foundation; either version 2 of the License, or
000008:                                                                                         	# (at your option) any later version.
000009:
000010:                                                                                         	# yaAGC is distributed in the hope that it will be useful,
000011:                                                                                         	# but WITHOUT ANY WARRANTY; without even the implied warranty of
000012:                                                                                         	# MERCHANTABILITY or FITNESS FOR A PARTICULAR PURPOSE.  See the
000013:                                                                                         	# GNU General Public License for more details.
000014:
000015:                                                                                         	# You should have received a copy of the GNU General Public License
000016:                                                                                         	# along with yaAGC; if not, write to the Free Software
000017:                                                                                         	# Foundation, Inc., 59 Temple Place, Suite 330, Boston, MA  02111-1307  USA
000018:
000019:                                                                                         	# Filename:	SmallyDVCHECK.agc
000020:                                                                                         	# Purpose:	This is code written from the flowchart on p. 62-64 of
000021:                                                                                         	#		E-2065, which is a document titled "Block II AGC
000022:                                                                                         	#		Self-Check and Show-Banksum", by Edwin D. Smally.
000023:                                                                                         	# Mod history:	07/07/04 RSB.	Began.
000024:
000025:                                                                                         	# Similar code was apparently originally in Luminary and/or Colossus,
000026:                                                                                         	# but much of it was removed over the course of time to make more room.
000027:                                                                                         	# I don't know what the original code was like, but the flowcharts still
000028:                                                                                         	# exist, so I've rewritten the code from the flowcharts.
000029:
000030:                                                                                         	# P. 62 of Smally.
000031: 10,2003           37410                          CA       O-3777                        	#
000032: 10,2004           54071                          TS       SKEEP4                        	#
000033: 10,2005           24071                          INCR     SKEEP4                        	#
000034: 10,2006           37400                          CA       O20000                        	#
000035: 10,2007           54066                          TS       SKEEP1                        	#
000036: 10,2010           37413                          CA       O-20000                       	#
000037: 10,2011           54067                          TS       SKEEP2                        	#
000038: 10,2012           37442                          CA       MAXN                          	# -37777
000039: 10,2013           54001                          TS       L                             	#
000040: 10,2014           37377                          CA       O17777                        	#
000041:
000042: 10,2015           24062                          INCR     ERRSUB                        	#
000043: 10,2016           37400                          CA       O20000                        	#
000044: 10,2017           54063                          TS       TEMPI                         	#
000045: 10,2020           37442                          CA       MAXN                          	# -37777
000046: 10,2021           54001                          TS       L                             	#
000047: 10,2022           37377                          CA       O17777                        	#
000048: 10,2023           00006                          EXTEND                                 	#
000049: 10,2024           10063                          DV       TEMPI                         	#
000050: 10,2025           54074                          TS       SKEEP7                        	#
000051: 10,2026           30001                          CA       L                             	#
000052: 10,2027           67417                          AD       NEGONE                        	#
000053: 10,2030           00006                          EXTEND                                 	#
000054: 10,2031           12033                          BZF      +2                            	#
000055: 10,2032           12270                          TCF      DVERROR                       	#
000056:
000057: 10,2033           24062                          INCR     ERRSUB                        	#
000058: 10,2034           37413                          CA       O-20000                       	#
000059: 10,2035           54063                          TS       TEMPI                         	#
000060: 10,2036           37442                          CA       MAXN                          	#
000061: 10,2037           54001                          TS       L                             	#
000062: 10,2040           37377                          CA       O17777                        	#
000063: 10,2041           00006                          EXTEND                                 	#
000064: 10,2042           10063                          DV       TEMPI                         	#
000065: 10,2043           60074                          AD       SKEEP7                        	#
000066: 10,2044           10000                          CCS      A                             	#
000067: 10,2045           12046                          NOOP                                   	#
000068: 10,2046           12047                          NOOP                                   	#
000069: 10,2047           12270                          TCF      DVERROR                       	#
000070: 10,2050           30001                          CA       L                             	#
000071: 10,2051           67417                          AD       NEGONE                        	#
000072: 10,2052           00006                          EXTEND                                 	#
000073: 10,2053           12055                          BZF      +2                            	#
000074: 10,2054           12270                          TCF      DVERROR                       	#
000075:
000076: 10,2055           24062                          INCR     ERRSUB                        	#
000077: 10,2056           37400                          CA       O20000                        	#
000078: 10,2057           54063                          TS       TEMPI                         	#
000079: 10,2060           37436                          CA       MAXP                          	#
000080: 10,2061           54001                          TS       L                             	#
000081: 10,2062           37412                          CA       O-17777                       	#
000082: 10,2063           00006                          EXTEND                                 	#
000083: 10,2064           10063                          DV       TEMPI                         	#
000084: 10,2065           54073                          TS       SKEEP6                        	#
000085: 10,2066           60074                          AD       SKEEP7                        	#
000086: 10,2067           10000                          CCS      A                             	#
000087: 10,2070           12071                          NOOP                                   	#
000088: 10,2071           12072                          NOOP                                   	#
000089: 10,2072           12270                          TCF      DVERROR                       	#
000090: 10,2073           30001                          CA       L                             	#
000091: 10,2074           67423                          AD       ONE                           	#
000092: 10,2075           00006                          EXTEND                                 	#
000093: 10,2076           12100                          BZF      +2                            	#
000094: 10,2077           12270                          TCF      DVERROR                       	#
000095:
000096: 10,2100           24062                          INCR     ERRSUB                        	#
000097: 10,2101           37413                          CA       O-20000                       	#
000098: 10,2102           54063                          TS       TEMPI                         	#
000099: 10,2103           37436                          CA       MAXP                          	#
000100: 10,2104           54001                          TS       L                             	#
000101: 10,2105           37412                          CA       O-17777                       	#
000102: 10,2106           00006                          EXTEND                                 	#
000103: 10,2107           10063                          DV       TEMPI                         	#
000104: 10,2110           60073                          AD       SKEEP6                        	#
000105: 10,2111           10000                          CCS      A                             	#
000106: 10,2112           12113                          NOOP                                   	#
000107: 10,2113           12114                          NOOP                                   	#
000108: 10,2114           12270                          TCF      DVERROR                       	#
000109: 10,2115           30001                          CA       L                             	#
000110: 10,2116           67423                          AD       ONE                           	#
000111: 10,2117           00006                          EXTEND                                 	#
000112: 10,2120           12122                          BZF      +2                            	#
000113: 10,2121           12270                          TCF      DVERROR                       	#
000114: 10,2122           37401                          CA       O37774                        	#
000115: 10,2123           60073                          AD       SKEEP6                        	#
000116: 10,2124           00006                          EXTEND                                 	#
000117: 10,2125           12127                          BZF      +2                            	#
000118: 10,2126           12270                          TCF      DVERROR                       	#
000119:
000120: 10,2127           24062                          INCR     ERRSUB                        	#
000121:                                                                                         	# P. 63 of Smally.
000122: 10,2130           37400                          CA       O20000                        	#
000123: 10,2131           54063                          TS       TEMPI                         	#
000124: 10,2132           37436                          CA       MAXP                          	# 37777
000125: 10,2133           54001                          TS       L                             	#
000126: 10,2134           37377                          CA       O17777                        	#
000127: 10,2135           00006                          EXTEND                                 	#
000128: 10,2136           10063                          DV       TEMPI                         	#
000129: 10,2137           67442                          AD       MAXN                          	# -37777
000130: 10,2140           00006                          EXTEND                                 	#
000131: 10,2141           12143                          BZF      +2                            	#
000132: 10,2142           12270                          TCF      DVERROR                       	#
000133:
000134: 10,2143           24062                          INCR     ERRSUB                        	#
000135: 10,2144           37402                          CA       O37776                        	#
000136: 10,2145           54063                          TS       TEMPI                         	#
000137: 10,2146           22007                          ZL                                     	#
000138: 10,2147           37402                          CA       O37776                        	#
000139: 10,2150           00006                          EXTEND                                 	#
000140: 10,2151           10063                          DV       TEMPI                         	#
000141: 10,2152           67442                          AD       MAXN                          	# -37777
000142: 10,2153           00006                          EXTEND                                 	#
000143: 10,2154           12156                          BZF      +2                            	#
000144: 10,2155           12270                          TCF      DVERROR                       	#
000145: 10,2156           30001                          CA       L                             	#
000146: 10,2157           67415                          AD       O-37776                       	#
000147: 10,2160           00006                          EXTEND                                 	#
000148: 10,2161           12163                          BZF      +2                            	#
000149: 10,2162           12270                          TCF      DVERROR                       	#
000150:
000151:                                                                                         	# P. 64 of Smally
000152: 10,2163           30007                          CA       ZEROES                        	#
000153: 10,2164           54066                          TS       SKEEP1                        	#
000154: 10,2165           37416                          CA       NEGZERO                       	#
000155: 10,2166           54067                          TS       SKEEP2                        	#
000156:
000157: 10,2167           24062                          INCR     ERRSUB                        	#
000158: 10,2170           30007                          CA       ZEROES                        	#
000159: 10,2171           54063                          TS       TEMPI                         	#
000160: 10,2172           54001                          TS       L                             	#
000161: 10,2173           00006                          EXTEND                                 	#
000162: 10,2174           10063                          DV       TEMPI                         	#
000163: 10,2175           54074                          TS       SKEEP7                        	#
000164: 10,2176           10001                          CCS      L                             	#
000165: 10,2177           12270                          TCF      DVERROR                       	#
000166: 10,2200           12203                          TCF      +3                            	#
000167: 10,2201           12202                          NOOP                                   	#
000168: 10,2202           12270                          TCF      DVERROR                       	#
000169:
000170: 10,2203           24062                          INCR     ERRSUB                        	#
000171: 10,2204           37416                          CA       NEGZERO                       	#
000172: 10,2205           54063                          TS       TEMPI                         	#
000173: 10,2206           22007                          ZL                                     	#
000174: 10,2207           00006                          EXTEND                                 	#
000175: 10,2210           10063                          DV       TEMPI                         	#
000176: 10,2211           54073                          TS       SKEEP6                        	#
000177: 10,2212           60074                          AD       SKEEP7                        	#
000178: 10,2213           10000                          CCS      A                             	#
000179: 10,2214           12215                          NOOP                                   	#
000180: 10,2215           12216                          NOOP                                   	#
000181: 10,2216           12270                          TCF      DVERROR                       	#
000182: 10,2217           30001                          CA       L                             	#
000183:
000184: 10,2220           24062                          INCR     ERRSUB                        	#
000185: 10,2221           30007                          CA       ZEROES                        	#
000186: 10,2222           54063                          TS       TEMPI                         	#
000187: 10,2223           37416                          CA       NEGZERO                       	#
000188: 10,2224           54001                          TS       L                             	#
000189: 10,2225           30007                          CA       ZEROES                        	#
000190: 10,2226           00006                          EXTEND                                 	#
000191: 10,2227           10063                          DV       TEMPI                         	#
000192: 10,2230           60074                          AD       SKEEP7                        	#
000193: 10,2231           10000                          CCS      A                             	#
000194: 10,2232           12233                          NOOP                                   	#
000195: 10,2233           12234                          NOOP                                   	#
000196: 10,2234           12270                          TCF      DVERROR                       	#
000197: 10,2235           10001                          CCS      L                             	# Smally says -0, but I think +0.
000198: 10,2236           12270                          TCF      DVERROR                       	#
000199: 10,2237           12242                          TCF      +3                            	#
000200: 10,2240           12270                          TCF      DVERROR                       	#
000201: 10,2241           12270                          TCF      DVERROR                       	#
000202:
000203: 10,2242           24062                          INCR     ERRSUB                        	#
000204: 10,2243           37416                          CA       NEGZERO                       	#
000205: 10,2244           54063                          TS       TEMPI                         	#
000206: 10,2245           54001                          TS       L                             	#
000207: 10,2246           30007                          CA       ZEROES                        	#
000208: 10,2247           00006                          EXTEND                                 	#
000209: 10,2250           10063                          DV       TEMPI                         	#
000210: 10,2251           60073                          AD       SKEEP6                        	#
000211: 10,2252           10000                          CCS      A                             	#
000212: 10,2253           12254                          NOOP                                   	#
000213: 10,2254           12255                          NOOP                                   	#
000214: 10,2255           12270                          TCF      DVERROR                       	#
000215: 10,2256           10001                          CCS      L                             	#
000216: 10,2257           12260                          NOOP                                   	#
000217: 10,2260           12261                          NOOP                                   	#
000218: 10,2261           12270                          TCF      DVERROR                       	#
000219: 10,2262           37436                          CA       MAXP                          	# 37777
000220: 10,2263           60073                          AD       SKEEP6                        	#
000221: 10,2264           00006                          EXTEND                                 	#
000222: 10,2265           12267                          BZF      +2                            	#
000223: 10,2266           12270                          TCF      DVERROR                       	#
000224:
000225:                                                                                         	# All done.
000226: 10,2267           12271                          TCF      DVDONE                        	#
000227: 10,2270           07240        DVERROR           TC       ERRORDSP                      	#
000228: 10,2271                        DVDONE                                                   	#
000229:
(End of include-file SmallyDVCHECK.agc, resuming ValidateSmally.agc)
000112: 10,2271           17232                          TCF      SMNEXT                        	#
000113:
000114:
000115:    7232                                          SETLOC   SMNEXT                        	#
000116:
(End of include-file ValidateSmally.agc, resuming Validation.agc)
000300:
000301:                                                                                         	#+++++++++++++++++++++++++++++++++++++++++++++++++++++++++
000302:                                                                                         	# Tests are all done.  We display 77 on the DSKY
000303:                                                                                         	# to indicate this.
000304:    7232           37446                          CA       MAXERR                        	#
000305:    7233           54061                          TS       ERRNUM                        	#
000306:    7234           30007                          CA       ZEROES                        	#
000307:    7235           54062                          TS       ERRSUB                        	#
000308:    7236           07240                          TC       ERRORDSP                      	#
000309:    7237           17237        DONE              TCF      DONE                          	#
000310:
000311:                                                                                         	#-------------------------------------------------------------------------
000312:                                                                                         	# Various useful things like utility functions and variable allocations.
000313:
000314: $Errordsp.agc
000001:                                                                                         	# Copyright 2004 Ronald S. Burkey <info@sandroid.org>
000002:
000003:                                                                                         	# This file is part of yaAGC.
000004:
000005:                                                                                         	# yaAGC is free software; you can redistribute it and/or modify
000006:                                                                                         	# it under the terms of the GNU General Public License as published by
000007:                                                                                         	# the Free Software Foundation; either version 2 of the License, or
000008:                                                                                         	# (at your option) any later version.
000009:
000010:                                                                                         	# yaAGC is distributed in the hope that it will be useful,
000011:                                                                                         	# but WITHOUT ANY WARRANTY; without even the implied warranty of
000012:                                                                                         	# MERCHANTABILITY or FITNESS FOR A PARTICULAR PURPOSE.  See the
000013:                                                                                         	# GNU General Public License for more details.
000014:
000015:                                                                                         	# You should have received a copy of the GNU General Public License
000016:                                                                                         	# along with yaAGC; if not, write to the Free Software
000017:                                                                                         	# Foundation, Inc., 59 Temple Place, Suite 330, Boston, MA  02111-1307  USA
000018:
000019:                                                                                         	# Filename:	Errordsp.agc
000020:                                                                                         	# Purpose:	This is an error-display function for the validation
000021:                                                                                         	#		suite.
000022:                                                                                         	# Mod history:	07/04/04 RSB.	Began.
000023:                                                                                         	#		07/10/04 RSB.	Added display of the error sub-code.
000024:                                                                                         	#		07/17/04 RSB.	PRO key signal level inverted.
000025:
000026:                                                                                         	#-------------------------------------------------------------------------
000027:                                                                                         	# Display the error code.  What this does is to clear the entire display,
000028:                                                                                         	# except for MODE (which contains the error code), and then lights the
000029:                                                                                         	# OPR ERR lamp and waits for the ENTR key to be hit.  Then it unlights
000030:                                                                                         	# OPR ERR and continues.
000031:
000032:    7240                        ERRORDSP                                                 	#
000033:                                                                                         	# Save return address in TEMPK
000034:    7240           00006                          EXTEND                                 	#
000035:    7241           22065                          QXCH     TEMPK                         	#
000036:
000037:                                                                                         	# Blank out all DSKY fields except MODE.  This means
000038:                                                                                         	# writing out 50000, 44000, ..., 04000.
000039:    7242           37404                          CA       O50000                        	#
000040:    7243           54001                          TS       L                             	# L is the value we want to write to ch 10.
000041:    7244           37430                          CA       TEN                           	# A is the loop counter.
000042:    7245           56001        ERRORLOO          XCH      L                             	#
000043:                                                                                         	# TC	IODELAY
000044:    7246           00006                          EXTEND                                 	#
000045:    7247           01010                          WRITE    CH10                          	#
000046:    7250           67411                          AD       O-4000                        	#
000047:    7251           56001                          XCH      L                             	#
000048:    7252           10000                          CCS      A                             	#
000049:    7253           17245                          TCF      ERRORLOO                      	#
000050:
000051:                                                                                         	# Output ERRNUM in MODE.
000052:    7254           37403                          CA       O54000                        	#
000053:    7255           54063                          TS       TEMPI                         	#
000054:    7256           30061                          CA       ERRNUM                        	#
000055:    7257           54064                          TS       TEMPJ                         	#
000056:                                                                                         	# TC	IODELAY
000057:    7260           07322                          TC       DIGPAIR                       	#
000058:
000059:                                                                                         	# Output ERRSUB in NOUN.
000060:    7261           37405                          CA       O44000                        	#
000061:    7262           54063                          TS       TEMPI                         	#
000062:    7263           30062                          CA       ERRSUB                        	#
000063:    7264           54064                          TS       TEMPJ                         	#
000064:                                                                                         	# TC	IODELAY
000065:    7265           07322                          TC       DIGPAIR                       	#
000066:
000067:                                                                                         	# Turn on the OPR ERR lamp.
000068:    7266           37434                          CA       BIT7                          	#
000069:                                                                                         	# TC	IODELAY
000070:    7267           00006                          EXTEND                                 	#
000071:    7270           01011                          WRITE    CH11                          	#
000072:
000073:                                                                                         	# Wait for PRO key to be pressed.  Please recall that
000074:                                                                                         	# the PRO key is a low-polarity signal:  0 when pressed,
000075:                                                                                         	# 1 when released.
000076:    7271           00006        PRONWAIT          EXTEND                                 	#
000077:    7272           00032                          READ     CH32                          	#
000078:    7273           77435                          MASK     BIT14                         	#
000079:    7274           10000                          CCS      A                             	#
000080:    7275           17271                          TCF      PRONWAIT                      	#
000081:    7276                        PROPRESS                                                 	#
000082:
000083:                                                                                         	# Turn off the OPR ERR lamp.
000084:    7276           30007                          CA       ZEROES                        	#
000085:                                                                                         	# TC	IODELAY
000086:    7277           00006                          EXTEND                                 	#
000087:    7300           01011                          WRITE    CH11                          	#
000088:
000089:                                                                                         	# Wait for PRO key to be released.
000090:    7301           00006        PROFWAIT          EXTEND                                 	#
000091:    7302           00032                          READ     CH32                          	#
000092:    7303           77435                          MASK     BIT14                         	#
000093:    7304           10000                          CCS      A                             	#
000094:    7305           17307                          TCF      +2                            	#
000095:    7306           17301                          TCF      PROFWAIT                      	#
000096:
000097:                                                                                         	# Restore the return address.  (Could actually just
000098:                                                                                         	# "TC TEMPK" here.)
000099:    7307           00006                          EXTEND                                 	#
000100:    7310           22065                          QXCH     TEMPK                         	#
000101:    7311           00002                          RETURN                                 	#
000102:
000103:                                                                                         	#-------------------------------------------------------------------------
000104:                                                                                         	# Delay a little while.  This is a workaround for some characteristics
000105:                                                                                         	# (as of 07/17/04, anyhow) of Webb's AGC-DSKY interaction.  No registers
000106:                                                                                         	# are affected, except that any overflow in the accumulator will be lost.
000107:
000108:    7312           00764        IODELAYT          DEC      500        B-14               	#
000109:
000110:    7313           54064        IODELAY           TS       TEMPJ                         	# Save accumulator.
000111:    7314           17315                          NOOP                                   	#
000112:    7315           37312                          CA       IODELAYT                      	#
000113:    7316           10000                          CCS      A                             	#
000114:    7317           17316                          TCF      -1                            	#
000115:    7320           30064                          CA       TEMPJ                         	# Restore accumulator.
000116:    7321           00002                          RETURN                                 	#
000117:
000118:                                                                                         	#-------------------------------------------------------------------------
000119:                                                                                         	# Display a two-digit octal code.  On entry, TEMPI should contain a
000120:                                                                                         	# code corresponding to the digit pair, as follows:
000121:                                                                                         	#	54000	MODE
000122:                                                                                         	#	50000	VERB
000123:                                                                                         	#	44000	NOUN
000124:                                                                                         	#	40000	Not used/1st digit of R1
000125:                                                                                         	#	34000	2nd/3rd digit of R1
000126:                                                                                         	#	30000	4th/5th digit of R1
000127:                                                                                         	#	24000	1st/2nd digit of R2
000128:                                                                                         	#	20000	3rd/4th digit of R2
000129:                                                                                         	#	14000	5th digit of R2/1st digit of R3
000130:                                                                                         	#	10000	2nd/3rd digit of R3
000131:                                                                                         	#	04000	4th/5th digit of R3
000132:                                                                                         	# On entry also, TEMPJ contains the number we want displayed.
000133:
000134:    7322                        DIGPAIR                                                  	# Shift the error code down by 3 places, so as to get
000135:                                                                                         	# the first octal digit.
000136:    7322           30064                          CA       TEMPJ                         	#
000137:    7323           54020                          TS       CYR                           	#
000138:    7324           30020                          CA       CYR                           	#
000139:    7325           30020                          CA       CYR                           	#
000140:    7326           30020                          CA       CYR                           	#
000141:    7327           77431                          MASK     SEVEN                         	#
000142:                                                                                         	# Convert to a pattern for output.
000143:    7330           50000                          INDEX    A                             	#
000144:    7331           37362                          CA       DSP0                          	#
000145:    7332           54022                          TS       CYL                           	#
000146:    7333           30022                          CA       CYL                           	#
000147:    7334           30022                          CA       CYL                           	#
000148:    7335           30022                          CA       CYL                           	#
000149:    7336           30022                          CA       CYL                           	#
000150:    7337           30022                          CA       CYL                           	#
000151:    7340           60063                          AD       TEMPI                         	#
000152:    7341           54063                          TS       TEMPI                         	#
000153:                                                                                         	# Now do the same for the second octal digit, except that
000154:                                                                                         	# all the shifting isn't neeeded.
000155:    7342           30064                          CA       TEMPJ                         	#
000156:    7343           77431                          MASK     SEVEN                         	#
000157:    7344           50000                          INDEX    A                             	#
000158:    7345           37362                          CA       DSP0                          	#
000159:    7346           60063                          AD       TEMPI                         	#
000160:    7347           54063                          TS       TEMPI                         	#
000161:                                                                                         	# Output it!
000162:    7350           00006                          EXTEND                                 	#
000163:    7351           01010                          WRITE    CH10                          	#
000164:
000165:    7352           00002                          RETURN                                 	#
000166:
(End of include-file Errordsp.agc, resuming Validation.agc)
000315: $Utilities.agc
000001:                                                                                         	# Copyright 2004 Ronald S. Burkey <info@sandroid.org>
000002:                                                                                         	#
000003:                                                                                         	# This file is part of yaAGC.
000004:
000005:                                                                                         	# yaAGC is free software; you can redistribute it and/or modify
000006:                                                                                         	# it under the terms of the GNU General Public License as published by
000007:                                                                                         	# the Free Software Foundation; either version 2 of the License, or
000008:                                                                                         	# (at your option) any later version.
000009:
000010:                                                                                         	# yaAGC is distributed in the hope that it will be useful,
000011:                                                                                         	# but WITHOUT ANY WARRANTY; without even the implied warranty of
000012:                                                                                         	# MERCHANTABILITY or FITNESS FOR A PARTICULAR PURPOSE.  See the
000013:                                                                                         	# GNU General Public License for more details.
000014:
000015:                                                                                         	# You should have received a copy of the GNU General Public License
000016:                                                                                         	# along with yaAGC; if not, write to the Free Software
000017:                                                                                         	# Foundation, Inc., 59 Temple Place, Suite 330, Boston, MA  02111-1307  USA
000018:
000019:                                                                                         	# Filename:	Utilities.agc
000020:                                                                                         	# Purpose:	Useful functions for the validation suite.
000021:                                                                                         	# Mod history:	07/04/04 RSB.	Began.
000022:
000023:                                                                                         	#-------------------------------------------------------------------------
000024:                                                                                         	# A utility to check if the accumulator contains -1.  Swiped from
000025:                                                                                         	# Luminary AGC self-check.
000026:
000027:    7353           10000        -1CHK             CCS      A                             	#
000028:    7354           17240                          TCF      ERRORDSP                      	#
000029:    7355           17240                          TCF      ERRORDSP                      	#
000030:    7356           10000                          CCS      A                             	#
000031:    7357           17240                          TCF      ERRORDSP                      	#
000032:    7360           00002                          TC       Q                             	#
000033:
(End of include-file Utilities.agc, resuming Validation.agc)
000316: $VariablesAndConstants.agc
000001:                                                                                         	# Copyright 2004 Ronald S. Burkey <info@sandroid.org>
000002:                                                                                         	#
000003:                                                                                         	# This file is part of yaAGC.
000004:
000005:                                                                                         	# yaAGC is free software; you can redistribute it and/or modify
000006:                                                                                         	# it under the terms of the GNU General Public License as published by
000007:                                                                                         	# the Free Software Foundation; either version 2 of the License, or
000008:                                                                                         	# (at your option) any later version.
000009:
000010:                                                                                         	# yaAGC is distributed in the hope that it will be useful,
000011:                                                                                         	# but WITHOUT ANY WARRANTY; without even the implied warranty of
000012:                                                                                         	# MERCHANTABILITY or FITNESS FOR A PARTICULAR PURPOSE.  See the
000013:                                                                                         	# GNU General Public License for more details.
000014:
000015:                                                                                         	# You should have received a copy of the GNU General Public License
000016:                                                                                         	# along with yaAGC; if not, write to the Free Software
000017:                                                                                         	# Foundation, Inc., 59 Temple Place, Suite 330, Boston, MA  02111-1307  USA
000018:
000019:                                                                                         	# Filename:	VariablesAndConstants.agc
000020:                                                                                         	# Purpose:	Definitions of constants and variables for the validation
000021:                                                                                         	#		suite.
000022:                                                                                         	# Mod history:	07/04/04 RSB.	Began.
000023:                                                                                         	#		07/06/04 RSB.	Added stuff for the MASK test, and the
000024:                                                                                         	#				similar logical tests for ROR, WOR, RAND,
000025:                                                                                         	#				WAND, and RXOR.
000026:                                                                                         	#		07/07/04 RSB.	Addes SKEEP1 through SKEEP7.
000027:
000028:                                                                                         	#-----------------------------------------------------------------------
000029:                                                                                         	# Constants and read-only memory.
000030:
000031:                                                                                         	# Names of CPU registers.
000032:    7361                        A                 EQUALS   0                             	#
000033:    7361                        L                 EQUALS   1                             	#
000034:    7361                        Q                 EQUALS   2                             	#
000035:    7361                        EB                EQUALS   3                             	#
000036:    7361                        FB                EQUALS   4                             	#
000037:    7361                        Z                 EQUALS   5                             	#
000038:    7361                        BB                EQUALS   6                             	#
000039:    7361                        ZEROES            EQUALS   7                             	# Really an unnamed register.
000040:    7361                        ARUPT             EQUALS   10                            	#
000041:    7361                        LRUPT             EQUALS   11                            	#
000042:    7361                        QRUPT             EQUALS   12                            	#
000043:    7361                        ZRUPT             EQUALS   15                            	#
000044:    7361                        BBRUPT            EQUALS   16                            	#
000045:    7361                        BRUPT             EQUALS   17                            	#
000046:    7361                        CYR               EQUALS   20                            	#
000047:    7361                        SR                EQUALS   21                            	#
000048:    7361                        CYL               EQUALS   22                            	#
000049:    7361                        EDOP              EQUALS   23                            	#
000050:
000051:                                                                                         	# Patterns for display of digits.
000052:    7361           00000        DSPBLANK          OCT      0                             	#
000053:    7362           00025        DSP0              OCT      25                            	#
000054:    7363           00003        DSP1              OCT      3                             	#
000055:    7364           00031        DSP2              OCT      31                            	#
000056:    7365           00033        DSP3              OCT      33                            	#
000057:    7366           00017        DSP4              OCT      17                            	#
000058:    7367           00036        DSP5              OCT      36                            	#
000059:    7370           00034        DSP6              OCT      34                            	#
000060:    7371           00023        DSP7              OCT      23                            	#
000061:    7372           00035        DSP8              OCT      35                            	#
000062:    7373           00037        DSP9              OCT      37                            	#
000063:
000064:    7374                        SZERO             EQUALS   0                             	#
000065:    7374                        CH10              EQUALS   10                            	#
000066:    7374                        CH11              EQUALS   11                            	#
000067:    7374                        CH32              EQUALS   32                            	#
000068:    7374                        CH26              EQUALS   26                            	#
000069:    7374                        CH27              EQUALS   27                            	#
000070:    7374           00177        O177              OCT      177                           	#
000071:    7375           00377        O377              OCT      377                           	#
000072:    7376           03777        O3777             OCT      3777                          	#
000073:    7377           17777        O17777            OCT      17777                         	#
000074:    7400           20000        O20000            OCT      20000                         	#
000075:    7401           37774        O37774            OCT      37774                         	#
000076:    7402           37776        O37776            OCT      37776                         	#
000077:    7403           54000        O54000            OCT      54000                         	#
000078:    7404           50000        O50000            OCT      50000                         	#
000079:    7405           44000        O44000            OCT      44000                         	#
000080:    7406           40000        O40000            OCT      40000                         	#
000081:    7407           77770        O77770            OCT      77770                         	#
000082:    7410           74000        O-3777            OCT      74000                         	#
000083:    7411           73777        O-4000            OCT      73777                         	#
000084:    7412           60000        O-17777           OCT      60000                         	#
000085:    7413           57777        O-20000           OCT      57777                         	#
000086:    7414           40003        O-37774           OCT      40003                         	#
000087:    7415           40001        O-37776           OCT      40001                         	#
000088:    7416           77777        NEGZERO           OCT      77777                         	#
000089:    7417           77776        NEGONE            OCT      77776                         	#
000090:    7420           77775        NEGTWO            DEC      -2         B-14               	#
000091:    7421           77774        NEGTHREE          DEC      -3         B-14               	#
000092:    7422           77773        NEGFOUR           DEC      -4         B-14               	#
000093:    7423           00001        ONE               OCT      1                             	#
000094:    7424           00002        TWO               OCT      2                             	#
000095:    7425           00003        THREE             OCT      3                             	#
000096:    7426           00005        FIVE              OCT      5                             	#
000097:    7427           00011        NINE              DEC      9          B-14               	#
000098:    7430           00012        TEN               DEC      10         B-14               	#
000099:    7431           00007        SEVEN             DEC      7          B-14               	#
000100:    7432           00027        TWNTHREE          DEC      23         B-14               	#
000101:    7433           00001        BIT1              OCT      1                             	#
000102:    7434           00100        BIT7              OCT      100                           	#
000103:    7435           20000        BIT14             OCT      20000                         	#
000104:    7436           37777        MAXP              OCT      37777                         	#
000105:    7437           37776        MAXP-1            OCT      37776                         	#
000106:    7440           37775        MAXP-2            OCT      37775                         	#
000107:    7441           37774        MAXP-3            OCT      37774                         	#
000108:    7442           40000        MAXN              OCT      40000                         	#
000109:    7443           40001        MAXN-1            OCT      40001                         	#
000110:    7444           40002        MAXN-2            OCT      40002                         	#
000111:    7445           40003        MAXN-3            OCT      40003                         	#
000112:
000113:    7446           77777        MAXERR            OCT      77777                         	#
000114:    7447           04007        WHERE1            GENADR   DEST1                         	#
000115:    7450           25252        CONC+S1           OCT      25252                         	# USED IN CYCLSHFT
000116:    7451           52400        CONC+S2           OCT      52400                         	# USED IN CYCLSHFT
000117:    7452     7433               S+1               EQUALS   BIT1                          	#
000118:    7452           02471 14321  BIGNUM            2DEC     21911761   B-28               	#
000119:    7454           37260 24714  BIGRNUM           2DEC     262941132  B-28               	# 14 (oct) * BIGNUM
000120:    7456           00000 00000  DBZERO            2DEC     0          B-28               	#
000121:    7460           77777 77777  DBMZERO           2DEC     -0         B-28               	#
000122:    7462           00000 00001  DBONE             2DEC     1          B-28               	#
000123:    7464           77777 77776  DBMONE            2DEC     -1         B-28               	#
000124:    7466           37777 37777  DBMAXP            2DEC     268435455  B-28               	# Biggest positive DP number.
000125:    7470           40000 40000  DBMAXN            2DEC     -268435455 B-28               	#
000126:    7472           37777 37776  DBMAXP-1          2DEC     268435454  B-28               	#
000127:    7474           40000 40001  DBMAXN-1          2DEC     -268435454 B-28               	#
000128:    7476           12345        SMALNUM           OCT      12345                         	#
000129:    7477           37257        SMALRNUM          OCT      37257                         	# 3 * SMALNUM
000130:
000131:    7500           52525        MASKL1            OCT      52525                         	#
000132:    7501           25252        MASKR1            OCT      25252                         	#
000133:    7502           63146        MASKL2            OCT      63146                         	#
000134:    7503           14631        MASKR2            OCT      14631                         	#
000135:    7504           42104        ANDL1L2           OCT      42104                         	#
000136:    7505           10421        ANDL1R2           OCT      10421                         	#
000137:    7506           21042        ANDR1L2           OCT      21042                         	#
000138:    7507           04210        ANDR1R2           OCT      04210                         	#
000139:    7510           73567        ORL1L2            OCT      73567                         	#
000140:    7511           56735        ORL1R2            OCT      56735                         	#
000141:    7512           67356        ORR1L2            OCT      67356                         	#
000142:    7513           35673        ORR1R2            OCT      35673                         	#
000143:    7514           31463        XORL1L2           OCT      31463                         	#
000144:    7515           46314        XORL1R2           OCT      46314                         	#
000145:    7516           46314        XORR1L2           OCT      46314                         	#
000146:    7517           31463        XORR1R2           OCT      31463                         	#
000147:
000148:                                                                                         	#-------------------------------------------------------------------------
000149:                                                                                         	# Some variables.
000150:
000151:    0061                                          SETLOC   61                            	#
000152:
000153:    0061                        ERRNUM            ERASE                                  	# Error-code, reported to DSKY.
000154:    0062                        ERRSUB            ERASE                                  	# Error-subcode.
000155:
000156:                                                                                         	# Dummy variables.
000157:    0063                        TEMPI             ERASE                                  	#
000158:    0064                        TEMPJ             ERASE                                  	#
000159:    0065                        TEMPK             ERASE                                  	#
000160:
000161:                                                                                         	# For Smally's tests.
000162:    0066                        SKEEP1            ERASE                                  	#
000163:    0067                        SKEEP2            ERASE                                  	#
000164:    0070                        SKEEP3            ERASE                                  	#
000165:    0071                        SKEEP4            ERASE                                  	#
000166:    0072                        SKEEP5            ERASE                                  	#
000167:    0073                        SKEEP6            ERASE                                  	#
000168:    0074                        SKEEP7            ERASE                                  	#
000169:
000170:
000171:
(End of include-file VariablesAndConstants.agc, resuming Validation.agc)
000317:
000318:
000319:


Usage Table for Fixed-Memory Banks
----------------------------------
Bank 00:  0000/2000 words used.
Bank 01:  0000/2000 words used.
Bank 02:  1663/2000 words used.
Bank 03:  1520/2000 words used.
Bank 04:  1261/2000 words used.
Bank 05:  0276/2000 words used.
Bank 06:  0011/2000 words used.
Bank 07:  0124/2000 words used.
Bank 10:  0272/2000 words used.
Bank 11:  0000/2000 words used.
Bank 12:  0000/2000 words used.
Bank 13:  0000/2000 words used.
Bank 14:  0000/2000 words used.
Bank 15:  0000/2000 words used.
Bank 16:  0000/2000 words used.
Bank 17:  0000/2000 words used.
Bank 20:  0000/2000 words used.
Bank 21:  0000/2000 words used.
Bank 22:  0000/2000 words used.
Bank 23:  0000/2000 words used.
Bank 24:  0000/2000 words used.
Bank 25:  0000/2000 words used.
Bank 26:  0000/2000 words used.
Bank 27:  0000/2000 words used.
Bank 30:  0000/2000 words used.
Bank 31:  0000/2000 words used.
Bank 32:  0000/2000 words used.
Bank 33:  0000/2000 words used.
Bank 34:  0000/2000 words used.
Bank 35:  0000/2000 words used.
Bank 36:  0000/2000 words used.
Bank 37:  0000/2000 words used.
Bank 40:  0000/2000 words used.
Bank 41:  0000/2000 words used.
Bank 42:  0000/2000 words used.
Bank 43:  0000/2000 words used.


Symbol Table
------------
     1:   $17             0017  		     2:   $3              0003  		     3:   $4              0004  		     4:   $5              0005
     5:   $6              0006  		     6:   $7              0007  		     7:   -1CHK           7353  		     8:   4SKEEP1      04,2223
     9:   4SKEEP2      04,2224  		    10:   A            0000000  		    11:   AD1             6270  		    12:   AD2             6302
    13:   AD3             6330  		    14:   ADLOOP          6262  		    15:   ADS1            5032  		    16:   ADS10           5142
    17:   ADS2            5037  		    18:   ADS3            5051  		    19:   ADS4            5064  		    20:   ADS5            5071
    21:   ADS6            5104  		    22:   ADS7            5114  		    23:   ADS8            5123  		    24:   ADS9            5133
    25:   ADSLOOP1        5024  		    26:   ADSLOOP2        5055  		    27:   AFTERTAB        5517  		    28:   ANDL1L2         7504
    29:   ANDL1R2         7505  		    30:   ANDR1L2         7506  		    31:   ANDR1R2         7507  		    32:   ARUPT        0000010
    33:   ASMDV           7230  		    34:   ASMGEN          7220  		    35:   ASMGEN2         7222  		    36:   ASMGEN3         7224
    37:   ASMMP           7226  		    38:   BANK3           6000  		    39:   BB           0000006  		    40:   BBRUPT       0000016
    41:   BIGNUM          7452  		    42:   BIGRNUM         7454  		    43:   BIT1            7433  		    44:   BIT14           7435
    45:   BIT7            7434  		    46:   BRUPT        0000017  		    47:   BZFERROR     04,2306  		    48:   BZMFERR      04,2121
    49:   CA1             5170  		    50:   CA2             5202  		    51:   CA3             5215  		    52:   CA4             5230
    53:   CA5             5243  		    54:   CA6             5252  		    55:   CCK+0        05,2176  		    56:   CCKERROR     05,2205
    57:   CCKLOOP1     05,2143  		    58:   CCKLOOP2     05,2145  		    59:   CCKNEG       05,2166  		    60:   CCSCHK1         4051
    61:   CCSCHK2         4071  		    62:   CCSCHK3         4105  		    63:   CCSCHK4         4127  		    64:   CCSCHK5         4147
    65:   CCSCHK6         4177  		    66:   CCSCHK7         4217  		    67:   CCSCHK8         4241  		    68:   CCSDONE      04,2070
    69:   CCSERROR     04,2067  		    70:   CCSOK1          4061  		    71:   CCSOK2          4075  		    72:   CCSOK3          4115
    73:   CCSOK4          4137  		    74:   CCSOK5          4157  		    75:   CCSOK5A         4166  		    76:   CCSOK6          4206
    77:   CCSOK7A         4227  		    78:   CCSOK8A         4251  		    79:   CH10         0000010  		    80:   CH11         0000011
    81:   CH26         0000026  		    82:   CH27         0000027  		    83:   CH32         0000032  		    84:   CONC+S1         7450
    85:   CONC+S2         7451  		    86:   CS1             5274  		    87:   CS2             5304  		    88:   CS3             5315
    89:   CS4             5326  		    90:   CS5             5337  		    91:   CS7             5354  		    92:   CYCLSHFT        4016
    93:   CYL          0000022  		    94:   CYR          0000020  		    95:   DASLOOP         4266  		    96:   DASNOV1         4275
    97:   DASNOV1A        4301  		    98:   DASOK1          4313  		    99:   DASOK10         4423  		   100:   DASOK11         4432
   101:   DASOK12         4442  		   102:   DASOK13         4452  		   103:   DASOK14         4461  		   104:   DASOK15         4473
   105:   DASOK16         4503  		   106:   DASOK17         4512  		   107:   DASOK18         4522  		   108:   DASOK19         4532
   109:   DASOK2          4322  		   110:   DASOK20         4541  		   111:   DASOK3          4337  		   112:   DASOK4          4347
   113:   DASOK5          4356  		   114:   DASOK6          4365  		   115:   DASOK7          4375  		   116:   DASOK8          4404
   117:   DASOK9          4413  		   118:   DBMAXN          7470  		   119:   DBMAXN-1        7474  		   120:   DBMAXP          7466
   121:   DBMAXP-1        7472  		   122:   DBMONE          7464  		   123:   DBMZERO         7460  		   124:   DBONE           7462
   125:   DBZERO          7456  		   126:   DDERROR      04,2422  		   127:   DEST1           4007  		   128:   DIERROR      04,2553
   129:   DIGPAIR         7322  		   130:   DLCERROR     04,3254  		   131:   DONE            7237  		   132:   DONE4           4253
   133:   DSCERROR     04,3212  		   134:   DSP0            7362  		   135:   DSP1            7363  		   136:   DSP2            7364
   137:   DSP3            7365  		   138:   DSP4            7366  		   139:   DSP5            7367  		   140:   DSP6            7370
   141:   DSP7            7371  		   142:   DSP8            7372  		   143:   DSP9            7373  		   144:   DSPBLANK        7361
   145:   DVCERROR     04,3025  		   146:   DVDONE       10,2271  		   147:   DVERROR      10,2270  		   148:   DXCH1           6015
   149:   DXCH10          6111  		   150:   DXCH11          6117  		   151:   DXCH12          6132  		   152:   DXCH13          6140
   153:   DXCH14          6145  		   154:   DXCH2           6022  		   155:   DXCH3           6030  		   156:   DXCH4           6036
   157:   DXCH5           6052  		   158:   DXCH6           6056  		   159:   DXCH7           6063  		   160:   DXCH8           6071
   161:   DXCH9           6100  		   162:   EB           0000003  		   163:   EDOP         0000023  		   164:   ERRNUM          0061
   165:   ERROR4          4252  		   166:   ERRORDSP        7240  		   167:   ERRORLOO        7245  		   168:   ERRSUB          0062
   169:   FB           0000004  		   170:   FIVE            7426  		   171:   INCROK1         4723  		   172:   INCROK2         4727
   173:   INCROK3         4734  		   174:   INCROK4         4744  		   175:   INCROK5         4752  		   176:   INCROK7         4771
   177:   INCROK8         5001  		   178:   INCROK9         5012  		   179:   INDEX1          5532  		   180:   INDEX10         5652
   181:   INDEX2          5542  		   182:   INDEX3          5552  		   183:   INDEX4          5562  		   184:   INDEX5          5572
   185:   INDEX6          5606  		   186:   INDEX7          5617  		   187:   INDEX8          5630  		   188:   INDEX9          5641
   189:   IO1             6446  		   190:   IO10A           6752  		   191:   IO10O           7070  		   192:   IO11A           6761
   193:   IO11O           7077  		   194:   IO12A           6772  		   195:   IO12O           7110  		   196:   IO13A           7001
   197:   IO13O           7117  		   198:   IO14A           7012  		   199:   IO14O           7130  		   200:   IO15A           7022
   201:   IO15O           7140  		   202:   IO16A           7033  		   203:   IO16O           7151  		   204:   IO17A           7043
   205:   IO17O           7161  		   206:   IO1ERROR     05,2032  		   207:   IO2             6455  		   208:   IO2ERROR     05,2063
   209:   IO3             6465  		   210:   IO3ERROR     05,2135  		   211:   IO4             6475  		   212:   IO5             6505
   213:   IO6A            6532  		   214:   IO6O            6612  		   215:   IO6X            6672  		   216:   IO7A            6543
   217:   IO7O            6623  		   218:   IO7X            6703  		   219:   IO8A            6554  		   220:   IO8O            6634
   221:   IO8X            6714  		   222:   IO9A            6565  		   223:   IO9O            6645  		   224:   IO9X            6725
   225:   IODELAY         7313  		   226:   IODELAYT        7312  		   227:   IODONE          7163  		   228:   IOERROR         7162
   229:   L            0000001  		   230:   LRUPT        0000011  		   231:   LXCHOK1         4613  		   232:   LXCHOK2         4621
   233:   LXCHOK3         4632  		   234:   LXCHOK4         4640  		   235:   LXCHOK5         4660  		   236:   LXCHOK6         4664
   237:   LXCHOK7         4704  		   238:   LXCHOK8         4710  		   239:   MADERROR        6355  		   240:   MASK1           6371
   241:   MASK2           6401  		   242:   MASK3           6411  		   243:   MASK4           6421  		   244:   MASKL1          7500
   245:   MASKL2          7502  		   246:   MASKR1          7501  		   247:   MASKR2          7503  		   248:   MAXERR          7446
   249:   MAXN            7442  		   250:   MAXN-1          7443  		   251:   MAXN-2          7444  		   252:   MAXN-3          7445
   253:   MAXP            7436  		   254:   MAXP-1          7437  		   255:   MAXP-2          7440  		   256:   MAXP-3          7441
   257:   MPCERROR     04,2653  		   258:   MPDONE       07,2121  		   259:   MPERROR      07,2120  		   260:   MPLOOP1      07,2005
   261:   MPLOOP2      07,2026  		   262:   MPLOOP3      07,2053  		   263:   MPLOOP4      07,2074  		   264:   MSCERROR     04,3063
   265:   MSKERROR     04,3126  		   266:   NEGFOUR         7422  		   267:   NEGONE          7417  		   268:   NEGTHREE        7421
   269:   NEGTWO          7420  		   270:   NEGZERO         7416  		   271:   NINE            7427  		   272:   O-17777         7412
   273:   O-20000         7413  		   274:   O-3777          7410  		   275:   O-37774         7414  		   276:   O-37776         7415
   277:   O-4000          7411  		   278:   O177            7374  		   279:   O17777          7377  		   280:   O20000          7400
   281:   O377            7375  		   282:   O3777           7376  		   283:   O37774          7401  		   284:   O37776          7402
   285:   O40000          7406  		   286:   O44000          7405  		   287:   O50000          7404  		   288:   O54000          7403
   289:   O77770          7407  		   290:   ONE             7423  		   291:   ORL1L2          7510  		   292:   ORL1R2          7511
   293:   ORR1L2          7512  		   294:   ORR1R2          7513  		   295:   OUFDONE      05,2257  		   296:   OUFERROR     05,2272
   297:   OUFLOOP1     05,2212  		   298:   OUFLOOP2     05,2217  		   299:   OUFNZERO     05,2242  		   300:   PROFWAIT        7301
   301:   PRONWAIT        7271  		   302:   PROPRESS        7276  		   303:   Q            0000002  		   304:   QRUPT        0000012
   305:   R1ERROR      04,2161  		   306:   R2ERROR      04,2221  		   307:   R3ERROR      04,2250  		   308:   S+1             7433
   309:   SEVEN           7431  		   310:   SKEEP1          0066  		   311:   SKEEP2          0067  		   312:   SKEEP3          0070
   313:   SKEEP4          0071  		   314:   SKEEP5          0072  		   315:   SKEEP6          0073  		   316:   SKEEP7          0074
   317:   SMALNUM         7476  		   318:   SMALRNUM        7477  		   319:   SMDV         10,2000  		   320:   SMGEN        04,2000
   321:   SMGEN2       05,2000  		   322:   SMGEN3       06,2000  		   323:   SMMP         07,2000  		   324:   SMNEXT          7232
   325:   SR           0000021  		   326:   SZERO        0000000  		   327:   TABLE           5514  		   328:   TCTCFDN2     04,2020
   329:   TCTCFDON     04,2015  		   330:   TCTCFERR     04,2013  		   331:   TEMPI           0063  		   332:   TEMPJ           0064
   333:   TEMPK           0065  		   334:   TEN             7430  		   335:   TEST1OK         4016  		   336:   THREE           7425
   337:   TS1             5371  		   338:   TS2             5412  		   339:   TS3             5431  		   340:   TS4             5463
   341:   TS4A            5446  		   342:   TS5             5476  		   343:   TS5A            5471  		   344:   TS6             5504
   345:   TSTEIGHT        4571  		   346:   TWNTHREE        7432  		   347:   TWO             7424  		   348:   VCAERROR        5261
   349:   VCSERROR        5355  		   350:   VDAERROR        4572  		   351:   VDSERROR        5155  		   352:   VINERROR        5013
   353:   VLXERROR        4711  		   354:   VMSERROR        6422  		   355:   VNDERROR        5653  		   356:   VTSERROR        5505
   357:   VXCERROR        6247  		   358:   WHERE1          7447  		   359:   XCH1            6160  		   360:   XCH2            6167
   361:   XCH3            6206  		   362:   XCH3A           6200  		   363:   XCH4            6216  		   364:   XCH5            6224
   365:   XCH6            6246  		   366:   XORL1L2         7514  		   367:   XORL1R2         7515  		   368:   XORR1L2         7516
   369:   XORR1R2         7517  		   370:   Z            0000005  		   371:   ZEROES       0000007  		   372:   ZRUPT        0000015

Unresolved symbols:  0
Fatal errors:  0
Warnings:  0
Removing the duplicated lines...

Bugger word 72653 at 02,3665.
Bugger word 52111 at 03,3522.
Bugger word 73776 at 00,2002.
Bugger word 73777 at 01,2002.
Bugger word 65622 at 04,3263.
Bugger word 10371 at 05,2300.
Bugger word 76113 at 06,2013.
Bugger word 66261 at 07,2126.
Bugger word 61755 at 10,2274.
Bugger word 74007 at 11,2002.
Bugger word 74010 at 12,2002.
Bugger word 74011 at 13,2002.
Bugger word 74012 at 14,2002.
Bugger word 74013 at 15,2002.
Bugger word 74014 at 16,2002.
Bugger word 74015 at 17,2002.
Bugger word 74016 at 20,2002.
Bugger word 74017 at 21,2002.
Bugger word 74020 at 22,2002.
Bugger word 74021 at 23,2002.
Bugger word 74022 at 24,2002.
Bugger word 74023 at 25,2002.
Bugger word 74024 at 26,2002.
Bugger word 74025 at 27,2002.
Bugger word 74026 at 30,2002.
Bugger word 74027 at 31,2002.
Bugger word 74030 at 32,2002.
Bugger word 74031 at 33,2002.
Bugger word 74032 at 34,2002.
Bugger word 74033 at 35,2002.
Bugger word 74034 at 36,2002.
Bugger word 74035 at 37,2002.
Bugger word 74036 at 40,2002.
Bugger word 74037 at 41,2002.
Bugger word 74040 at 42,2002.
Bugger word 74041 at 43,2002.
